{
  "address": "0xe7f1725E7734CE288F8367e1Bb143E90bb3F0512",
  "abi": [
    {
      "inputs": [
        {
          "internalType": "address",
          "name": "_token",
          "type": "address"
        },
        {
          "internalType": "address",
          "name": "_initialOwner",
          "type": "address"
        }
      ],
      "stateMutability": "nonpayable",
      "type": "constructor"
    },
    {
      "inputs": [
        {
          "internalType": "address",
          "name": "sender",
          "type": "address"
        },
        {
          "internalType": "uint256",
          "name": "tokenId",
          "type": "uint256"
        },
        {
          "internalType": "address",
          "name": "owner",
          "type": "address"
        }
      ],
      "name": "ERC721IncorrectOwner",
      "type": "error"
    },
    {
      "inputs": [
        {
          "internalType": "address",
          "name": "operator",
          "type": "address"
        },
        {
          "internalType": "uint256",
          "name": "tokenId",
          "type": "uint256"
        }
      ],
      "name": "ERC721InsufficientApproval",
      "type": "error"
    },
    {
      "inputs": [
        {
          "internalType": "address",
          "name": "approver",
          "type": "address"
        }
      ],
      "name": "ERC721InvalidApprover",
      "type": "error"
    },
    {
      "inputs": [
        {
          "internalType": "address",
          "name": "operator",
          "type": "address"
        }
      ],
      "name": "ERC721InvalidOperator",
      "type": "error"
    },
    {
      "inputs": [
        {
          "internalType": "address",
          "name": "owner",
          "type": "address"
        }
      ],
      "name": "ERC721InvalidOwner",
      "type": "error"
    },
    {
      "inputs": [
        {
          "internalType": "address",
          "name": "receiver",
          "type": "address"
        }
      ],
      "name": "ERC721InvalidReceiver",
      "type": "error"
    },
    {
      "inputs": [
        {
          "internalType": "address",
          "name": "sender",
          "type": "address"
        }
      ],
      "name": "ERC721InvalidSender",
      "type": "error"
    },
    {
      "inputs": [
        {
          "internalType": "uint256",
          "name": "tokenId",
          "type": "uint256"
        }
      ],
      "name": "ERC721NonexistentToken",
      "type": "error"
    },
    {
      "inputs": [
        {
          "internalType": "address",
          "name": "owner",
          "type": "address"
        }
      ],
      "name": "OwnableInvalidOwner",
      "type": "error"
    },
    {
      "inputs": [
        {
          "internalType": "address",
          "name": "account",
          "type": "address"
        }
      ],
      "name": "OwnableUnauthorizedAccount",
      "type": "error"
    },
    {
      "anonymous": false,
      "inputs": [
        {
          "indexed": true,
          "internalType": "address",
          "name": "owner",
          "type": "address"
        },
        {
          "indexed": true,
          "internalType": "address",
          "name": "approved",
          "type": "address"
        },
        {
          "indexed": true,
          "internalType": "uint256",
          "name": "tokenId",
          "type": "uint256"
        }
      ],
      "name": "Approval",
      "type": "event"
    },
    {
      "anonymous": false,
      "inputs": [
        {
          "indexed": true,
          "internalType": "address",
          "name": "owner",
          "type": "address"
        },
        {
          "indexed": true,
          "internalType": "address",
          "name": "operator",
          "type": "address"
        },
        {
          "indexed": false,
          "internalType": "bool",
          "name": "approved",
          "type": "bool"
        }
      ],
      "name": "ApprovalForAll",
      "type": "event"
    },
    {
      "anonymous": false,
      "inputs": [
        {
          "indexed": true,
          "internalType": "address",
          "name": "player",
          "type": "address"
        },
        {
          "indexed": false,
          "internalType": "uint256",
          "name": "score",
          "type": "uint256"
        },
        {
          "indexed": false,
          "internalType": "uint256",
          "name": "level",
          "type": "uint256"
        }
      ],
      "name": "GamePlayed",
      "type": "event"
    },
    {
      "anonymous": false,
      "inputs": [
        {
          "indexed": true,
          "internalType": "uint256",
          "name": "itemId",
          "type": "uint256"
        },
        {
          "indexed": false,
          "internalType": "string",
          "name": "name",
          "type": "string"
        },
        {
          "indexed": false,
          "internalType": "uint256",
          "name": "power",
          "type": "uint256"
        }
      ],
      "name": "ItemAdded",
      "type": "event"
    },
    {
      "anonymous": false,
      "inputs": [
        {
          "indexed": true,
          "internalType": "address",
          "name": "player",
          "type": "address"
        },
        {
          "indexed": true,
          "internalType": "uint256",
          "name": "itemId",
          "type": "uint256"
        }
      ],
      "name": "ItemPurchased",
      "type": "event"
    },
    {
      "anonymous": false,
      "inputs": [
        {
          "indexed": true,
          "internalType": "address",
          "name": "player",
          "type": "address"
        },
        {
          "indexed": false,
          "internalType": "uint256",
          "name": "newLevel",
          "type": "uint256"
        }
      ],
      "name": "LevelUp",
      "type": "event"
    },
    {
      "anonymous": false,
      "inputs": [
        {
          "indexed": true,
          "internalType": "address",
          "name": "previousOwner",
          "type": "address"
        },
        {
          "indexed": true,
          "internalType": "address",
          "name": "newOwner",
          "type": "address"
        }
      ],
      "name": "OwnershipTransferred",
      "type": "event"
    },
    {
      "anonymous": false,
      "inputs": [
        {
          "indexed": true,
          "internalType": "address",
          "name": "player",
          "type": "address"
        },
        {
          "indexed": false,
          "internalType": "uint256",
          "name": "rewards",
          "type": "uint256"
        }
      ],
      "name": "RewardsClaimed",
      "type": "event"
    },
    {
      "anonymous": false,
      "inputs": [
        {
          "indexed": true,
          "internalType": "address",
          "name": "from",
          "type": "address"
        },
        {
          "indexed": true,
          "internalType": "address",
          "name": "to",
          "type": "address"
        },
        {
          "indexed": true,
          "internalType": "uint256",
          "name": "tokenId",
          "type": "uint256"
        }
      ],
      "name": "Transfer",
      "type": "event"
    },
    {
      "inputs": [
        {
          "internalType": "string",
          "name": "_name",
          "type": "string"
        },
        {
          "internalType": "uint256",
          "name": "_power",
          "type": "uint256"
        }
      ],
      "name": "addItem",
      "outputs": [],
      "stateMutability": "nonpayable",
      "type": "function"
    },
    {
      "inputs": [
        {
          "internalType": "address",
          "name": "to",
          "type": "address"
        },
        {
          "internalType": "uint256",
          "name": "tokenId",
          "type": "uint256"
        }
      ],
      "name": "approve",
      "outputs": [],
      "stateMutability": "nonpayable",
      "type": "function"
    },
    {
      "inputs": [
        {
          "internalType": "address",
          "name": "owner",
          "type": "address"
        }
      ],
      "name": "balanceOf",
      "outputs": [
        {
          "internalType": "uint256",
          "name": "",
          "type": "uint256"
        }
      ],
      "stateMutability": "view",
      "type": "function"
    },
    {
      "inputs": [],
      "name": "claimRewards",
      "outputs": [],
      "stateMutability": "nonpayable",
      "type": "function"
    },
    {
      "inputs": [],
      "name": "gameCost",
      "outputs": [
        {
          "internalType": "uint256",
          "name": "",
          "type": "uint256"
        }
      ],
      "stateMutability": "view",
      "type": "function"
    },
    {
      "inputs": [
        {
          "internalType": "uint256",
          "name": "tokenId",
          "type": "uint256"
        }
      ],
      "name": "getApproved",
      "outputs": [
        {
          "internalType": "address",
          "name": "",
          "type": "address"
        }
      ],
      "stateMutability": "view",
      "type": "function"
    },
    {
      "inputs": [],
      "name": "getItems",
      "outputs": [
        {
          "components": [
            {
              "internalType": "uint256",
              "name": "id",
              "type": "uint256"
            },
            {
              "internalType": "string",
              "name": "name",
              "type": "string"
            },
            {
              "internalType": "uint256",
              "name": "power",
              "type": "uint256"
            }
          ],
          "internalType": "struct ArcadeGame.Item[]",
          "name": "",
          "type": "tuple[]"
        }
      ],
      "stateMutability": "view",
      "type": "function"
    },
    {
      "inputs": [
        {
          "internalType": "address",
          "name": "_player",
          "type": "address"
        }
      ],
      "name": "getPlayerDetails",
      "outputs": [
        {
          "components": [
            {
              "internalType": "uint256",
              "name": "score",
              "type": "uint256"
            },
            {
              "internalType": "uint256",
              "name": "rewards",
              "type": "uint256"
            },
            {
              "internalType": "uint256",
              "name": "level",
              "type": "uint256"
            },
            {
              "internalType": "uint256[]",
              "name": "items",
              "type": "uint256[]"
            }
          ],
          "internalType": "struct ArcadeGame.Player",
          "name": "",
          "type": "tuple"
        }
      ],
      "stateMutability": "view",
      "type": "function"
    },
    {
      "inputs": [
        {
          "internalType": "address",
          "name": "playerAddress",
          "type": "address"
        }
      ],
      "name": "initializePlayer",
      "outputs": [],
      "stateMutability": "nonpayable",
      "type": "function"
    },
    {
      "inputs": [
        {
          "internalType": "address",
          "name": "owner",
          "type": "address"
        },
        {
          "internalType": "address",
          "name": "operator",
          "type": "address"
        }
      ],
      "name": "isApprovedForAll",
      "outputs": [
        {
          "internalType": "bool",
          "name": "",
          "type": "bool"
        }
      ],
      "stateMutability": "view",
      "type": "function"
    },
    {
      "inputs": [
        {
          "internalType": "uint256",
          "name": "",
          "type": "uint256"
        }
      ],
      "name": "items",
      "outputs": [
        {
          "internalType": "uint256",
          "name": "id",
          "type": "uint256"
        },
        {
          "internalType": "string",
          "name": "name",
          "type": "string"
        },
        {
          "internalType": "uint256",
          "name": "power",
          "type": "uint256"
        }
      ],
      "stateMutability": "view",
      "type": "function"
    },
    {
      "inputs": [],
      "name": "levelUpScore",
      "outputs": [
        {
          "internalType": "uint256",
          "name": "",
          "type": "uint256"
        }
      ],
      "stateMutability": "view",
      "type": "function"
    },
    {
      "inputs": [],
      "name": "mintNFT",
      "outputs": [],
      "stateMutability": "nonpayable",
      "type": "function"
    },
    {
      "inputs": [],
      "name": "name",
      "outputs": [
        {
          "internalType": "string",
          "name": "",
          "type": "string"
        }
      ],
      "stateMutability": "view",
      "type": "function"
    },
    {
      "inputs": [
        {
          "internalType": "uint256",
          "name": "",
          "type": "uint256"
        }
      ],
      "name": "nftOwners",
      "outputs": [
        {
          "internalType": "address",
          "name": "",
          "type": "address"
        }
      ],
      "stateMutability": "view",
      "type": "function"
    },
    {
      "inputs": [],
      "name": "owner",
      "outputs": [
        {
          "internalType": "address",
          "name": "",
          "type": "address"
        }
      ],
      "stateMutability": "view",
      "type": "function"
    },
    {
      "inputs": [
        {
          "internalType": "uint256",
          "name": "tokenId",
          "type": "uint256"
        }
      ],
      "name": "ownerOf",
      "outputs": [
        {
          "internalType": "address",
          "name": "",
          "type": "address"
        }
      ],
      "stateMutability": "view",
      "type": "function"
    },
    {
      "inputs": [
        {
          "internalType": "uint256",
          "name": "_score",
          "type": "uint256"
        }
      ],
      "name": "playGame",
      "outputs": [],
      "stateMutability": "nonpayable",
      "type": "function"
    },
    {
      "inputs": [
        {
          "internalType": "address",
          "name": "",
          "type": "address"
        }
      ],
      "name": "players",
      "outputs": [
        {
          "internalType": "uint256",
          "name": "score",
          "type": "uint256"
        },
        {
          "internalType": "uint256",
          "name": "rewards",
          "type": "uint256"
        },
        {
          "internalType": "uint256",
          "name": "level",
          "type": "uint256"
        }
      ],
      "stateMutability": "view",
      "type": "function"
    },
    {
      "inputs": [
        {
          "internalType": "uint256",
          "name": "_itemId",
          "type": "uint256"
        }
      ],
      "name": "purchaseItem",
      "outputs": [],
      "stateMutability": "nonpayable",
      "type": "function"
    },
    {
      "inputs": [],
      "name": "renounceOwnership",
      "outputs": [],
      "stateMutability": "nonpayable",
      "type": "function"
    },
    {
      "inputs": [
        {
          "internalType": "address",
          "name": "from",
          "type": "address"
        },
        {
          "internalType": "address",
          "name": "to",
          "type": "address"
        },
        {
          "internalType": "uint256",
          "name": "tokenId",
          "type": "uint256"
        }
      ],
      "name": "safeTransferFrom",
      "outputs": [],
      "stateMutability": "nonpayable",
      "type": "function"
    },
    {
      "inputs": [
        {
          "internalType": "address",
          "name": "from",
          "type": "address"
        },
        {
          "internalType": "address",
          "name": "to",
          "type": "address"
        },
        {
          "internalType": "uint256",
          "name": "tokenId",
          "type": "uint256"
        },
        {
          "internalType": "bytes",
          "name": "data",
          "type": "bytes"
        }
      ],
      "name": "safeTransferFrom",
      "outputs": [],
      "stateMutability": "nonpayable",
      "type": "function"
    },
    {
      "inputs": [
        {
          "internalType": "address",
          "name": "operator",
          "type": "address"
        },
        {
          "internalType": "bool",
          "name": "approved",
          "type": "bool"
        }
      ],
      "name": "setApprovalForAll",
      "outputs": [],
      "stateMutability": "nonpayable",
      "type": "function"
    },
    {
      "inputs": [
        {
          "internalType": "uint256",
          "name": "_gameCost",
          "type": "uint256"
        }
      ],
      "name": "setGameCost",
      "outputs": [],
      "stateMutability": "nonpayable",
      "type": "function"
    },
    {
      "inputs": [
        {
          "internalType": "uint256",
          "name": "_levelUpScore",
          "type": "uint256"
        }
      ],
      "name": "setLevelUpScore",
      "outputs": [],
      "stateMutability": "nonpayable",
      "type": "function"
    },
    {
      "inputs": [
        {
          "internalType": "bytes4",
          "name": "interfaceId",
          "type": "bytes4"
        }
      ],
      "name": "supportsInterface",
      "outputs": [
        {
          "internalType": "bool",
          "name": "",
          "type": "bool"
        }
      ],
      "stateMutability": "view",
      "type": "function"
    },
    {
      "inputs": [],
      "name": "symbol",
      "outputs": [
        {
          "internalType": "string",
          "name": "",
          "type": "string"
        }
      ],
      "stateMutability": "view",
      "type": "function"
    },
    {
      "inputs": [],
      "name": "token",
      "outputs": [
        {
          "internalType": "contract IERC20",
          "name": "",
          "type": "address"
        }
      ],
      "stateMutability": "view",
      "type": "function"
    },
    {
      "inputs": [
        {
          "internalType": "uint256",
          "name": "tokenId",
          "type": "uint256"
        }
      ],
      "name": "tokenURI",
      "outputs": [
        {
          "internalType": "string",
          "name": "",
          "type": "string"
        }
      ],
      "stateMutability": "view",
      "type": "function"
    },
    {
      "inputs": [
        {
          "internalType": "address",
          "name": "from",
          "type": "address"
        },
        {
          "internalType": "address",
          "name": "to",
          "type": "address"
        },
        {
          "internalType": "uint256",
          "name": "tokenId",
          "type": "uint256"
        }
      ],
      "name": "transferFrom",
      "outputs": [],
      "stateMutability": "nonpayable",
      "type": "function"
    },
    {
      "inputs": [
        {
          "internalType": "address",
          "name": "newOwner",
          "type": "address"
        }
      ],
      "name": "transferOwnership",
      "outputs": [],
      "stateMutability": "nonpayable",
      "type": "function"
    }
  ],
  "transactionHash": "0xc1f020d70167dd8e37fc0427d3451eeaac205aae525ffd176efd6e2e00ec3517",
  "args": [
    "0x5FbDB2315678afecb367f032d93F642f64180aa3",
    "0xf39Fd6e51aad88F6F4ce6aB8827279cffFb92266"
  ],
  "numDeployments": 1,
  "solcInputHash": "0972c8e4f7b4dc3fd87b4b3869722a09",
  "bytecode": "0x60806040523480156200001157600080fd5b50604051620046bc380380620046bc8339818101604052810190620000379190620002e3565b806040518060400160405280600f81526020017f41726361646547616d65546f6b656e00000000000000000000000000000000008152506040518060400160405280600381526020017f41475400000000000000000000000000000000000000000000000000000000008152508160009081620000b59190620005a4565b508060019081620000c79190620005a4565b505050600073ffffffffffffffffffffffffffffffffffffffff168173ffffffffffffffffffffffffffffffffffffffff16036200013f5760006040517f1e4fbdf70000000000000000000000000000000000000000000000000000000081526004016200013691906200069c565b60405180910390fd5b6200015081620001b360201b60201c565b5081600760006101000a81548173ffffffffffffffffffffffffffffffffffffffff021916908373ffffffffffffffffffffffffffffffffffffffff16021790555068056bc75e2d63100000600a819055506103e8600b819055505050620006b9565b6000600660009054906101000a900473ffffffffffffffffffffffffffffffffffffffff16905081600660006101000a81548173ffffffffffffffffffffffffffffffffffffffff021916908373ffffffffffffffffffffffffffffffffffffffff1602179055508173ffffffffffffffffffffffffffffffffffffffff168173ffffffffffffffffffffffffffffffffffffffff167f8be0079c531659141344cd1fd0a4f28419497f9722a3daafe3b4186f6b6457e060405160405180910390a35050565b600080fd5b600073ffffffffffffffffffffffffffffffffffffffff82169050919050565b6000620002ab826200027e565b9050919050565b620002bd816200029e565b8114620002c957600080fd5b50565b600081519050620002dd81620002b2565b92915050565b60008060408385031215620002fd57620002fc62000279565b5b60006200030d85828601620002cc565b92505060206200032085828601620002cc565b9150509250929050565b600081519050919050565b7f4e487b7100000000000000000000000000000000000000000000000000000000600052604160045260246000fd5b7f4e487b7100000000000000000000000000000000000000000000000000000000600052602260045260246000fd5b60006002820490506001821680620003ac57607f821691505b602082108103620003c257620003c162000364565b5b50919050565b60008190508160005260206000209050919050565b60006020601f8301049050919050565b600082821b905092915050565b6000600883026200042c7fffffffffffffffffffffffffffffffffffffffffffffffffffffffffffffffff82620003ed565b620004388683620003ed565b95508019841693508086168417925050509392505050565b6000819050919050565b6000819050919050565b6000620004856200047f620004798462000450565b6200045a565b62000450565b9050919050565b6000819050919050565b620004a18362000464565b620004b9620004b0826200048c565b848454620003fa565b825550505050565b600090565b620004d0620004c1565b620004dd81848462000496565b505050565b5b818110156200050557620004f9600082620004c6565b600181019050620004e3565b5050565b601f82111562000554576200051e81620003c8565b6200052984620003dd565b8101602085101562000539578190505b620005516200054885620003dd565b830182620004e2565b50505b505050565b600082821c905092915050565b6000620005796000198460080262000559565b1980831691505092915050565b600062000594838362000566565b9150826002028217905092915050565b620005af826200032a565b67ffffffffffffffff811115620005cb57620005ca62000335565b5b620005d7825462000393565b620005e482828562000509565b600060209050601f8311600181146200061c576000841562000607578287015190505b62000613858262000586565b86555062000683565b601f1984166200062c86620003c8565b60005b8281101562000656578489015182556001820191506020850194506020810190506200062f565b8683101562000676578489015162000672601f89168262000566565b8355505b6001600288020188555050505b505050505050565b62000696816200029e565b82525050565b6000602082019050620006b360008301846200068b565b92915050565b613ff380620006c96000396000f3fe608060405234801561001057600080fd5b50600436106101f05760003560e01c80637f17b79d1161010f578063c87b56dd116100a2578063e2eb41ff11610071578063e2eb41ff1461057d578063e985e9c5146105af578063f2fde38b146105df578063fc0c546a146105fb576101f0565b8063c87b56dd146104e3578063c8dd6ce714610513578063cab896dc14610543578063d38ea5bf14610561576101f0565b8063affc55c0116100de578063affc55c014610447578063b88d4fde14610465578063bbd94c2f14610481578063bfb231d2146104b1576101f0565b80637f17b79d146103d35780638da5cb5b146103ef57806395d89b411461040d578063a22cb4651461042b576101f0565b8063372500ab1161018757806362d6bbdf1161015657806362d6bbdf1461034d5780636352211e1461036957806370a0823114610399578063715018a6146103c9576101f0565b8063372500ab146102ed578063410d59cc146102f757806342842e0e146103155780635873533d14610331576101f0565b8063095ea7b3116101c3578063095ea7b31461028f578063139652e4146102ab57806314f710fe146102c757806323b872dd146102d1576101f0565b806301ffc9a7146101f557806306fdde0314610225578063081812fc146102435780630931a4d114610273575b600080fd5b61020f600480360381019061020a9190612c1b565b610619565b60405161021c9190612c63565b60405180910390f35b61022d6106fb565b60405161023a9190612d0e565b60405180910390f35b61025d60048036038101906102589190612d66565b61078d565b60405161026a9190612dd4565b60405180910390f35b61028d60048036038101906102889190612d66565b6107a9565b005b6102a960048036038101906102a49190612e1b565b6107bb565b005b6102c560048036038101906102c09190612e5b565b6107d1565b005b6102cf6109a6565b005b6102eb60048036038101906102e69190612e88565b610a1d565b005b6102f5610b1f565b005b6102ff610ce9565b60405161030c9190613046565b60405180910390f35b61032f600480360381019061032a9190612e88565b610e5a565b005b61034b60048036038101906103469190612d66565b610e7a565b005b6103676004803603810190610362919061319d565b6111ba565b005b610383600480360381019061037e9190612d66565b611274565b6040516103909190612dd4565b60405180910390f35b6103b360048036038101906103ae9190612e5b565b611286565b6040516103c09190613208565b60405180910390f35b6103d1611340565b005b6103ed60048036038101906103e89190612d66565b611354565b005b6103f7611366565b6040516104049190612dd4565b60405180910390f35b610415611390565b6040516104229190612d0e565b60405180910390f35b6104456004803603810190610440919061324f565b611422565b005b61044f611438565b60405161045c9190613208565b60405180910390f35b61047f600480360381019061047a9190613330565b61143e565b005b61049b60048036038101906104969190612d66565b61145b565b6040516104a89190612dd4565b60405180910390f35b6104cb60048036038101906104c69190612d66565b61148e565b6040516104da939291906133b3565b60405180910390f35b6104fd60048036038101906104f89190612d66565b611540565b60405161050a9190612d0e565b60405180910390f35b61052d60048036038101906105289190612e5b565b6115a9565b60405161053a9190613503565b60405180910390f35b61054b61179a565b6040516105589190613208565b60405180910390f35b61057b60048036038101906105769190612d66565b6117a0565b005b61059760048036038101906105929190612e5b565b611ae0565b6040516105a693929190613525565b60405180910390f35b6105c960048036038101906105c4919061355c565b611b0a565b6040516105d69190612c63565b60405180910390f35b6105f960048036038101906105f49190612e5b565b611b9e565b005b610603611c24565b60405161061091906135fb565b60405180910390f35b60007f80ac58cd000000000000000000000000000000000000000000000000000000007bffffffffffffffffffffffffffffffffffffffffffffffffffffffff1916827bffffffffffffffffffffffffffffffffffffffffffffffffffffffff191614806106e457507f5b5e139f000000000000000000000000000000000000000000000000000000007bffffffffffffffffffffffffffffffffffffffffffffffffffffffff1916827bffffffffffffffffffffffffffffffffffffffffffffffffffffffff1916145b806106f457506106f382611c4a565b5b9050919050565b60606000805461070a90613645565b80601f016020809104026020016040519081016040528092919081815260200182805461073690613645565b80156107835780601f1061075857610100808354040283529160200191610783565b820191906000526020600020905b81548152906001019060200180831161076657829003601f168201915b5050505050905090565b600061079882611cb4565b506107a282611d3c565b9050919050565b6107b1611d79565b80600b8190555050565b6107cd82826107c8611e00565b611e08565b5050565b6000600c60008373ffffffffffffffffffffffffffffffffffffffff1673ffffffffffffffffffffffffffffffffffffffff1681526020019081526020016000206002015414801561086557506000600c60008373ffffffffffffffffffffffffffffffffffffffff1673ffffffffffffffffffffffffffffffffffffffff16815260200190815260200160002060000154145b80156108b357506000600c60008373ffffffffffffffffffffffffffffffffffffffff1673ffffffffffffffffffffffffffffffffffffffff16815260200190815260200160002060010154145b156109a3576040518060800160405280600081526020016000815260200160018152602001600067ffffffffffffffff8111156108f3576108f2613072565b5b6040519080825280602002602001820160405280156109215781602001602082028036833780820191505090505b50815250600c60008373ffffffffffffffffffffffffffffffffffffffff1673ffffffffffffffffffffffffffffffffffffffff168152602001908152602001600020600082015181600001556020820151816001015560408201518160020155606082015181600301908051906020019061099e929190612afc565b509050505b50565b60006109b26009611e1a565b90506109be6009611e28565b6109c83382611e3e565b33600e600083815260200190815260200160002060006101000a81548173ffffffffffffffffffffffffffffffffffffffff021916908373ffffffffffffffffffffffffffffffffffffffff16021790555050565b600073ffffffffffffffffffffffffffffffffffffffff168273ffffffffffffffffffffffffffffffffffffffff1603610a8f5760006040517f64a0ae92000000000000000000000000000000000000000000000000000000008152600401610a869190612dd4565b60405180910390fd5b6000610aa38383610a9e611e00565b611f37565b90508373ffffffffffffffffffffffffffffffffffffffff168173ffffffffffffffffffffffffffffffffffffffff1614610b19578382826040517f64283d7b000000000000000000000000000000000000000000000000000000008152600401610b1093929190613676565b60405180910390fd5b50505050565b6000600c60003373ffffffffffffffffffffffffffffffffffffffff1673ffffffffffffffffffffffffffffffffffffffff168152602001908152602001600020905060008160010154905060008111610bae576040517f08c379a0000000000000000000000000000000000000000000000000000000008152600401610ba5906136f9565b60405180910390fd5b60008260010181905550600760009054906101000a900473ffffffffffffffffffffffffffffffffffffffff1673ffffffffffffffffffffffffffffffffffffffff1663a9059cbb33836040518363ffffffff1660e01b8152600401610c15929190613719565b6020604051808303816000875af1158015610c34573d6000803e3d6000fd5b505050506040513d601f19601f82011682018060405250810190610c589190613757565b610c97576040517f08c379a0000000000000000000000000000000000000000000000000000000008152600401610c8e906137d0565b60405180910390fd5b3373ffffffffffffffffffffffffffffffffffffffff167ffc30cddea38e2bf4d6ea7d3f9ed3b6ad7f176419f4963bd81318067a4aee73fe82604051610cdd9190613208565b60405180910390a25050565b60606000610cf76008611e1a565b905060008167ffffffffffffffff811115610d1557610d14613072565b5b604051908082528060200260200182016040528015610d4e57816020015b610d3b612b49565b815260200190600190039081610d335790505b50905060005b82811015610e5157600d600082815260200190815260200160002060405180606001604052908160008201548152602001600182018054610d9490613645565b80601f0160208091040260200160405190810160405280929190818152602001828054610dc090613645565b8015610e0d5780601f10610de257610100808354040283529160200191610e0d565b820191906000526020600020905b815481529060010190602001808311610df057829003601f168201915b50505050508152602001600282015481525050828281518110610e3357610e326137f0565b5b60200260200101819052508080610e499061384e565b915050610d54565b50809250505090565b610e758383836040518060200160405280600081525061143e565b505050565b600a54600760009054906101000a900473ffffffffffffffffffffffffffffffffffffffff1673ffffffffffffffffffffffffffffffffffffffff166370a08231336040518263ffffffff1660e01b8152600401610ed89190612dd4565b602060405180830381865afa158015610ef5573d6000803e3d6000fd5b505050506040513d601f19601f82011682018060405250810190610f1991906138ab565b1015610f5a576040517f08c379a0000000000000000000000000000000000000000000000000000000008152600401610f5190613924565b60405180910390fd5b600760009054906101000a900473ffffffffffffffffffffffffffffffffffffffff1673ffffffffffffffffffffffffffffffffffffffff166323b872dd3330600a546040518463ffffffff1660e01b8152600401610fbb93929190613944565b6020604051808303816000875af1158015610fda573d6000803e3d6000fd5b505050506040513d601f19601f82011682018060405250810190610ffe9190613757565b61103d576040517f08c379a0000000000000000000000000000000000000000000000000000000008152600401611034906139c7565b60405180910390fd5b611046336107d1565b6000600c60003373ffffffffffffffffffffffffffffffffffffffff1673ffffffffffffffffffffffffffffffffffffffff16815260200190815260200160002090508181600001600082825461109d91906139e7565b92505081905550600a826110b19190613a4a565b8160010160008282546110c491906139e7565b92505081905550600b54816000015410611162578060020160008154809291906110ed9061384e565b9190505550600b548160000160008282546111089190613a7b565b925050819055503373ffffffffffffffffffffffffffffffffffffffff167f91e51c29e7e87a74ad3b8ccba98538970f50a4309242735467f41e27c6b0fbac82600201546040516111599190613208565b60405180910390a25b3373ffffffffffffffffffffffffffffffffffffffff167f24b31e1dbf1732a12bb700d3d77e5fb96ff3b693374d9fa15ccbc03f427150768383600201546040516111ae929190613aaf565b60405180910390a25050565b6111c2611d79565b60006111ce6008611e1a565b90506111da6008611e28565b604051806060016040528082815260200184815260200183815250600d60008381526020019081526020016000206000820151816000015560208201518160010190816112279190613c7a565b5060408201518160020155905050807f0444434676a57f70f8479401c50fb4add3e31052f88f4b35e155b7759e5968e58484604051611267929190613d4c565b60405180910390a2505050565b600061127f82611cb4565b9050919050565b60008073ffffffffffffffffffffffffffffffffffffffff168273ffffffffffffffffffffffffffffffffffffffff16036112f95760006040517f89c62b640000000000000000000000000000000000000000000000000000000081526004016112f09190612dd4565b60405180910390fd5b600360008373ffffffffffffffffffffffffffffffffffffffff1673ffffffffffffffffffffffffffffffffffffffff168152602001908152602001600020549050919050565b611348611d79565b6113526000612151565b565b61135c611d79565b80600a8190555050565b6000600660009054906101000a900473ffffffffffffffffffffffffffffffffffffffff16905090565b60606001805461139f90613645565b80601f01602080910402602001604051908101604052809291908181526020018280546113cb90613645565b80156114185780601f106113ed57610100808354040283529160200191611418565b820191906000526020600020905b8154815290600101906020018083116113fb57829003601f168201915b5050505050905090565b61143461142d611e00565b8383612217565b5050565b600b5481565b611449848484610a1d565b61145584848484612386565b50505050565b600e6020528060005260406000206000915054906101000a900473ffffffffffffffffffffffffffffffffffffffff1681565b600d6020528060005260406000206000915090508060000154908060010180546114b790613645565b80601f01602080910402602001604051908101604052809291908181526020018280546114e390613645565b80156115305780601f1061150557610100808354040283529160200191611530565b820191906000526020600020905b81548152906001019060200180831161151357829003601f168201915b5050505050908060020154905083565b606061154b82611cb4565b50600061155661253d565b9050600081511161157657604051806020016040528060008152506115a1565b8061158084612554565b604051602001611591929190613db8565b6040516020818303038152906040525b915050919050565b6115b1612b6a565b6000600c60008473ffffffffffffffffffffffffffffffffffffffff1673ffffffffffffffffffffffffffffffffffffffff1681526020019081526020016000206002015414158061164657506000600c60008473ffffffffffffffffffffffffffffffffffffffff1673ffffffffffffffffffffffffffffffffffffffff1681526020019081526020016000206000015414155b8061169457506000600c60008473ffffffffffffffffffffffffffffffffffffffff1673ffffffffffffffffffffffffffffffffffffffff1681526020019081526020016000206001015414155b6116d3576040517f08c379a00000000000000000000000000000000000000000000000000000000081526004016116ca90613e28565b60405180910390fd5b600c60008373ffffffffffffffffffffffffffffffffffffffff1673ffffffffffffffffffffffffffffffffffffffff1681526020019081526020016000206040518060800160405290816000820154815260200160018201548152602001600282015481526020016003820180548060200260200160405190810160405280929190818152602001828054801561178a57602002820191906000526020600020905b815481526020019060010190808311611776575b5050505050815250509050919050565b600a5481565b6000600d6000838152602001908152602001600020604051806060016040529081600082015481526020016001820180546117da90613645565b80601f016020809104026020016040519081016040528092919081815260200182805461180690613645565b80156118535780601f1061182857610100808354040283529160200191611853565b820191906000526020600020905b81548152906001019060200180831161183657829003601f168201915b5050505050815260200160028201548152505090508060400151600760009054906101000a900473ffffffffffffffffffffffffffffffffffffffff1673ffffffffffffffffffffffffffffffffffffffff166370a08231336040518263ffffffff1660e01b81526004016118c89190612dd4565b602060405180830381865afa1580156118e5573d6000803e3d6000fd5b505050506040513d601f19601f8201168201806040525081019061190991906138ab565b101561194a576040517f08c379a000000000000000000000000000000000000000000000000000000000815260040161194190613eba565b60405180910390fd5b600760009054906101000a900473ffffffffffffffffffffffffffffffffffffffff1673ffffffffffffffffffffffffffffffffffffffff166323b872dd333084604001516040518463ffffffff1660e01b81526004016119ad93929190613944565b6020604051808303816000875af11580156119cc573d6000803e3d6000fd5b505050506040513d601f19601f820116820180604052508101906119f09190613757565b611a2f576040517f08c379a0000000000000000000000000000000000000000000000000000000008152600401611a26906139c7565b60405180910390fd5b600c60003373ffffffffffffffffffffffffffffffffffffffff1673ffffffffffffffffffffffffffffffffffffffff168152602001908152602001600020600301829080600181540180825580915050600190039060005260206000200160009091909190915055813373ffffffffffffffffffffffffffffffffffffffff167f792fe07c0f3ce4ef42df79c4a2b07925168cddbaabf7a7ef1351f027a376031360405160405180910390a35050565b600c6020528060005260406000206000915090508060000154908060010154908060020154905083565b6000600560008473ffffffffffffffffffffffffffffffffffffffff1673ffffffffffffffffffffffffffffffffffffffff16815260200190815260200160002060008373ffffffffffffffffffffffffffffffffffffffff1673ffffffffffffffffffffffffffffffffffffffff16815260200190815260200160002060009054906101000a900460ff16905092915050565b611ba6611d79565b600073ffffffffffffffffffffffffffffffffffffffff168173ffffffffffffffffffffffffffffffffffffffff1603611c185760006040517f1e4fbdf7000000000000000000000000000000000000000000000000000000008152600401611c0f9190612dd4565b60405180910390fd5b611c2181612151565b50565b600760009054906101000a900473ffffffffffffffffffffffffffffffffffffffff1681565b60007f01ffc9a7000000000000000000000000000000000000000000000000000000007bffffffffffffffffffffffffffffffffffffffffffffffffffffffff1916827bffffffffffffffffffffffffffffffffffffffffffffffffffffffff1916149050919050565b600080611cc083612622565b9050600073ffffffffffffffffffffffffffffffffffffffff168173ffffffffffffffffffffffffffffffffffffffff1603611d3357826040517f7e273289000000000000000000000000000000000000000000000000000000008152600401611d2a9190613208565b60405180910390fd5b80915050919050565b60006004600083815260200190815260200160002060009054906101000a900473ffffffffffffffffffffffffffffffffffffffff169050919050565b611d81611e00565b73ffffffffffffffffffffffffffffffffffffffff16611d9f611366565b73ffffffffffffffffffffffffffffffffffffffff1614611dfe57611dc2611e00565b6040517f118cdaa7000000000000000000000000000000000000000000000000000000008152600401611df59190612dd4565b60405180910390fd5b565b600033905090565b611e15838383600161265f565b505050565b600081600001549050919050565b6001816000016000828254019250508190555050565b600073ffffffffffffffffffffffffffffffffffffffff168273ffffffffffffffffffffffffffffffffffffffff1603611eb05760006040517f64a0ae92000000000000000000000000000000000000000000000000000000008152600401611ea79190612dd4565b60405180910390fd5b6000611ebe83836000611f37565b9050600073ffffffffffffffffffffffffffffffffffffffff168173ffffffffffffffffffffffffffffffffffffffff1614611f325760006040517f73c6ac6e000000000000000000000000000000000000000000000000000000008152600401611f299190612dd4565b60405180910390fd5b505050565b600080611f4384612622565b9050600073ffffffffffffffffffffffffffffffffffffffff168373ffffffffffffffffffffffffffffffffffffffff1614611f8557611f84818486612824565b5b600073ffffffffffffffffffffffffffffffffffffffff168173ffffffffffffffffffffffffffffffffffffffff161461201657611fc760008560008061265f565b6001600360008373ffffffffffffffffffffffffffffffffffffffff1673ffffffffffffffffffffffffffffffffffffffff168152602001908152602001600020600082825403925050819055505b600073ffffffffffffffffffffffffffffffffffffffff168573ffffffffffffffffffffffffffffffffffffffff1614612099576001600360008773ffffffffffffffffffffffffffffffffffffffff1673ffffffffffffffffffffffffffffffffffffffff168152602001908152602001600020600082825401925050819055505b846002600086815260200190815260200160002060006101000a81548173ffffffffffffffffffffffffffffffffffffffff021916908373ffffffffffffffffffffffffffffffffffffffff160217905550838573ffffffffffffffffffffffffffffffffffffffff168273ffffffffffffffffffffffffffffffffffffffff167fddf252ad1be2c89b69c2b068fc378daa952ba7f163c4a11628f55a4df523b3ef60405160405180910390a4809150509392505050565b6000600660009054906101000a900473ffffffffffffffffffffffffffffffffffffffff16905081600660006101000a81548173ffffffffffffffffffffffffffffffffffffffff021916908373ffffffffffffffffffffffffffffffffffffffff1602179055508173ffffffffffffffffffffffffffffffffffffffff168173ffffffffffffffffffffffffffffffffffffffff167f8be0079c531659141344cd1fd0a4f28419497f9722a3daafe3b4186f6b6457e060405160405180910390a35050565b600073ffffffffffffffffffffffffffffffffffffffff168273ffffffffffffffffffffffffffffffffffffffff160361228857816040517f5b08ba1800000000000000000000000000000000000000000000000000000000815260040161227f9190612dd4565b60405180910390fd5b80600560008573ffffffffffffffffffffffffffffffffffffffff1673ffffffffffffffffffffffffffffffffffffffff16815260200190815260200160002060008473ffffffffffffffffffffffffffffffffffffffff1673ffffffffffffffffffffffffffffffffffffffff16815260200190815260200160002060006101000a81548160ff0219169083151502179055508173ffffffffffffffffffffffffffffffffffffffff168373ffffffffffffffffffffffffffffffffffffffff167f17307eab39ab6107e8899845ad3d59bd9653f200f220920489ca2b5937696c31836040516123799190612c63565b60405180910390a3505050565b60008373ffffffffffffffffffffffffffffffffffffffff163b1115612537578273ffffffffffffffffffffffffffffffffffffffff1663150b7a026123ca611e00565b8685856040518563ffffffff1660e01b81526004016123ec9493929190613f2f565b6020604051808303816000875af192505050801561242857506040513d601f19601f820116820180604052508101906124259190613f90565b60015b6124ac573d8060008114612458576040519150601f19603f3d011682016040523d82523d6000602084013e61245d565b606091505b5060008151036124a457836040517f64a0ae9200000000000000000000000000000000000000000000000000000000815260040161249b9190612dd4565b60405180910390fd5b805181602001fd5b63150b7a0260e01b7bffffffffffffffffffffffffffffffffffffffffffffffffffffffff1916817bffffffffffffffffffffffffffffffffffffffffffffffffffffffff19161461253557836040517f64a0ae9200000000000000000000000000000000000000000000000000000000815260040161252c9190612dd4565b60405180910390fd5b505b50505050565b606060405180602001604052806000815250905090565b606060006001612563846128e8565b01905060008167ffffffffffffffff81111561258257612581613072565b5b6040519080825280601f01601f1916602001820160405280156125b45781602001600182028036833780820191505090505b509050600082602001820190505b600115612617578080600190039150507f3031323334353637383961626364656600000000000000000000000000000000600a86061a8153600a858161260b5761260a613a1b565b5b049450600085036125c2575b819350505050919050565b60006002600083815260200190815260200160002060009054906101000a900473ffffffffffffffffffffffffffffffffffffffff169050919050565b80806126985750600073ffffffffffffffffffffffffffffffffffffffff168273ffffffffffffffffffffffffffffffffffffffff1614155b156127cc5760006126a884611cb4565b9050600073ffffffffffffffffffffffffffffffffffffffff168373ffffffffffffffffffffffffffffffffffffffff161415801561271357508273ffffffffffffffffffffffffffffffffffffffff168173ffffffffffffffffffffffffffffffffffffffff1614155b801561272657506127248184611b0a565b155b1561276857826040517fa9fbf51f00000000000000000000000000000000000000000000000000000000815260040161275f9190612dd4565b60405180910390fd5b81156127ca57838573ffffffffffffffffffffffffffffffffffffffff168273ffffffffffffffffffffffffffffffffffffffff167f8c5be1e5ebec7d5bd14f71427d1e84f3dd0314c0f7b2291e5b200ac8c7c3b92560405160405180910390a45b505b836004600085815260200190815260200160002060006101000a81548173ffffffffffffffffffffffffffffffffffffffff021916908373ffffffffffffffffffffffffffffffffffffffff16021790555050505050565b61282f838383612a3b565b6128e357600073ffffffffffffffffffffffffffffffffffffffff168373ffffffffffffffffffffffffffffffffffffffff16036128a457806040517f7e27328900000000000000000000000000000000000000000000000000000000815260040161289b9190613208565b60405180910390fd5b81816040517f177e802f0000000000000000000000000000000000000000000000000000000081526004016128da929190613719565b60405180910390fd5b505050565b600080600090507a184f03e93ff9f4daa797ed6e38ed64bf6a1f0100000000000000008310612946577a184f03e93ff9f4daa797ed6e38ed64bf6a1f010000000000000000838161293c5761293b613a1b565b5b0492506040810190505b6d04ee2d6d415b85acef81000000008310612983576d04ee2d6d415b85acef8100000000838161297957612978613a1b565b5b0492506020810190505b662386f26fc1000083106129b257662386f26fc1000083816129a8576129a7613a1b565b5b0492506010810190505b6305f5e10083106129db576305f5e10083816129d1576129d0613a1b565b5b0492506008810190505b6127108310612a005761271083816129f6576129f5613a1b565b5b0492506004810190505b60648310612a235760648381612a1957612a18613a1b565b5b0492506002810190505b600a8310612a32576001810190505b80915050919050565b60008073ffffffffffffffffffffffffffffffffffffffff168373ffffffffffffffffffffffffffffffffffffffff1614158015612af357508273ffffffffffffffffffffffffffffffffffffffff168473ffffffffffffffffffffffffffffffffffffffff161480612ab45750612ab38484611b0a565b5b80612af257508273ffffffffffffffffffffffffffffffffffffffff16612ada83611d3c565b73ffffffffffffffffffffffffffffffffffffffff16145b5b90509392505050565b828054828255906000526020600020908101928215612b38579160200282015b82811115612b37578251825591602001919060010190612b1c565b5b509050612b459190612b92565b5090565b60405180606001604052806000815260200160608152602001600081525090565b6040518060800160405280600081526020016000815260200160008152602001606081525090565b5b80821115612bab576000816000905550600101612b93565b5090565b6000604051905090565b600080fd5b600080fd5b60007fffffffff0000000000000000000000000000000000000000000000000000000082169050919050565b612bf881612bc3565b8114612c0357600080fd5b50565b600081359050612c1581612bef565b92915050565b600060208284031215612c3157612c30612bb9565b5b6000612c3f84828501612c06565b91505092915050565b60008115159050919050565b612c5d81612c48565b82525050565b6000602082019050612c786000830184612c54565b92915050565b600081519050919050565b600082825260208201905092915050565b60005b83811015612cb8578082015181840152602081019050612c9d565b60008484015250505050565b6000601f19601f8301169050919050565b6000612ce082612c7e565b612cea8185612c89565b9350612cfa818560208601612c9a565b612d0381612cc4565b840191505092915050565b60006020820190508181036000830152612d288184612cd5565b905092915050565b6000819050919050565b612d4381612d30565b8114612d4e57600080fd5b50565b600081359050612d6081612d3a565b92915050565b600060208284031215612d7c57612d7b612bb9565b5b6000612d8a84828501612d51565b91505092915050565b600073ffffffffffffffffffffffffffffffffffffffff82169050919050565b6000612dbe82612d93565b9050919050565b612dce81612db3565b82525050565b6000602082019050612de96000830184612dc5565b92915050565b612df881612db3565b8114612e0357600080fd5b50565b600081359050612e1581612def565b92915050565b60008060408385031215612e3257612e31612bb9565b5b6000612e4085828601612e06565b9250506020612e5185828601612d51565b9150509250929050565b600060208284031215612e7157612e70612bb9565b5b6000612e7f84828501612e06565b91505092915050565b600080600060608486031215612ea157612ea0612bb9565b5b6000612eaf86828701612e06565b9350506020612ec086828701612e06565b9250506040612ed186828701612d51565b9150509250925092565b600081519050919050565b600082825260208201905092915050565b6000819050602082019050919050565b612f1081612d30565b82525050565b600082825260208201905092915050565b6000612f3282612c7e565b612f3c8185612f16565b9350612f4c818560208601612c9a565b612f5581612cc4565b840191505092915050565b6000606083016000830151612f786000860182612f07565b5060208301518482036020860152612f908282612f27565b9150506040830151612fa56040860182612f07565b508091505092915050565b6000612fbc8383612f60565b905092915050565b6000602082019050919050565b6000612fdc82612edb565b612fe68185612ee6565b935083602082028501612ff885612ef7565b8060005b8581101561303457848403895281516130158582612fb0565b945061302083612fc4565b925060208a01995050600181019050612ffc565b50829750879550505050505092915050565b600060208201905081810360008301526130608184612fd1565b905092915050565b600080fd5b600080fd5b7f4e487b7100000000000000000000000000000000000000000000000000000000600052604160045260246000fd5b6130aa82612cc4565b810181811067ffffffffffffffff821117156130c9576130c8613072565b5b80604052505050565b60006130dc612baf565b90506130e882826130a1565b919050565b600067ffffffffffffffff82111561310857613107613072565b5b61311182612cc4565b9050602081019050919050565b82818337600083830152505050565b600061314061313b846130ed565b6130d2565b90508281526020810184848401111561315c5761315b61306d565b5b61316784828561311e565b509392505050565b600082601f83011261318457613183613068565b5b813561319484826020860161312d565b91505092915050565b600080604083850312156131b4576131b3612bb9565b5b600083013567ffffffffffffffff8111156131d2576131d1612bbe565b5b6131de8582860161316f565b92505060206131ef85828601612d51565b9150509250929050565b61320281612d30565b82525050565b600060208201905061321d60008301846131f9565b92915050565b61322c81612c48565b811461323757600080fd5b50565b60008135905061324981613223565b92915050565b6000806040838503121561326657613265612bb9565b5b600061327485828601612e06565b92505060206132858582860161323a565b9150509250929050565b600067ffffffffffffffff8211156132aa576132a9613072565b5b6132b382612cc4565b9050602081019050919050565b60006132d36132ce8461328f565b6130d2565b9050828152602081018484840111156132ef576132ee61306d565b5b6132fa84828561311e565b509392505050565b600082601f83011261331757613316613068565b5b81356133278482602086016132c0565b91505092915050565b6000806000806080858703121561334a57613349612bb9565b5b600061335887828801612e06565b945050602061336987828801612e06565b935050604061337a87828801612d51565b925050606085013567ffffffffffffffff81111561339b5761339a612bbe565b5b6133a787828801613302565b91505092959194509250565b60006060820190506133c860008301866131f9565b81810360208301526133da8185612cd5565b90506133e960408301846131f9565b949350505050565b600081519050919050565b600082825260208201905092915050565b6000819050602082019050919050565b60006134298383612f07565b60208301905092915050565b6000602082019050919050565b600061344d826133f1565b61345781856133fc565b93506134628361340d565b8060005b8381101561349357815161347a888261341d565b975061348583613435565b925050600181019050613466565b5085935050505092915050565b60006080830160008301516134b86000860182612f07565b5060208301516134cb6020860182612f07565b5060408301516134de6040860182612f07565b50606083015184820360608601526134f68282613442565b9150508091505092915050565b6000602082019050818103600083015261351d81846134a0565b905092915050565b600060608201905061353a60008301866131f9565b61354760208301856131f9565b61355460408301846131f9565b949350505050565b6000806040838503121561357357613572612bb9565b5b600061358185828601612e06565b925050602061359285828601612e06565b9150509250929050565b6000819050919050565b60006135c16135bc6135b784612d93565b61359c565b612d93565b9050919050565b60006135d3826135a6565b9050919050565b60006135e5826135c8565b9050919050565b6135f5816135da565b82525050565b600060208201905061361060008301846135ec565b92915050565b7f4e487b7100000000000000000000000000000000000000000000000000000000600052602260045260246000fd5b6000600282049050600182168061365d57607f821691505b6020821081036136705761366f613616565b5b50919050565b600060608201905061368b6000830186612dc5565b61369860208301856131f9565b6136a56040830184612dc5565b949350505050565b7f4e6f207265776172647320746f20636c61696d00000000000000000000000000600082015250565b60006136e3601383612c89565b91506136ee826136ad565b602082019050919050565b60006020820190508181036000830152613712816136d6565b9050919050565b600060408201905061372e6000830185612dc5565b61373b60208301846131f9565b9392505050565b60008151905061375181613223565b92915050565b60006020828403121561376d5761376c612bb9565b5b600061377b84828501613742565b91505092915050565b7f526577617264207472616e73666572206661696c656400000000000000000000600082015250565b60006137ba601683612c89565b91506137c582613784565b602082019050919050565b600060208201905081810360008301526137e9816137ad565b9050919050565b7f4e487b7100000000000000000000000000000000000000000000000000000000600052603260045260246000fd5b7f4e487b7100000000000000000000000000000000000000000000000000000000600052601160045260246000fd5b600061385982612d30565b91507fffffffffffffffffffffffffffffffffffffffffffffffffffffffffffffffff820361388b5761388a61381f565b5b600182019050919050565b6000815190506138a581612d3a565b92915050565b6000602082840312156138c1576138c0612bb9565b5b60006138cf84828501613896565b91505092915050565b7f496e73756666696369656e7420746f6b656e7320746f20706c61790000000000600082015250565b600061390e601b83612c89565b9150613919826138d8565b602082019050919050565b6000602082019050818103600083015261393d81613901565b9050919050565b60006060820190506139596000830186612dc5565b6139666020830185612dc5565b61397360408301846131f9565b949350505050565b7f546f6b656e207472616e73666572206661696c65640000000000000000000000600082015250565b60006139b1601583612c89565b91506139bc8261397b565b602082019050919050565b600060208201905081810360008301526139e0816139a4565b9050919050565b60006139f282612d30565b91506139fd83612d30565b9250828201905080821115613a1557613a1461381f565b5b92915050565b7f4e487b7100000000000000000000000000000000000000000000000000000000600052601260045260246000fd5b6000613a5582612d30565b9150613a6083612d30565b925082613a7057613a6f613a1b565b5b828204905092915050565b6000613a8682612d30565b9150613a9183612d30565b9250828203905081811115613aa957613aa861381f565b5b92915050565b6000604082019050613ac460008301856131f9565b613ad160208301846131f9565b9392505050565b60008190508160005260206000209050919050565b60006020601f8301049050919050565b600082821b905092915050565b600060088302613b3a7fffffffffffffffffffffffffffffffffffffffffffffffffffffffffffffffff82613afd565b613b448683613afd565b95508019841693508086168417925050509392505050565b6000613b77613b72613b6d84612d30565b61359c565b612d30565b9050919050565b6000819050919050565b613b9183613b5c565b613ba5613b9d82613b7e565b848454613b0a565b825550505050565b600090565b613bba613bad565b613bc5818484613b88565b505050565b5b81811015613be957613bde600082613bb2565b600181019050613bcb565b5050565b601f821115613c2e57613bff81613ad8565b613c0884613aed565b81016020851015613c17578190505b613c2b613c2385613aed565b830182613bca565b50505b505050565b600082821c905092915050565b6000613c5160001984600802613c33565b1980831691505092915050565b6000613c6a8383613c40565b9150826002028217905092915050565b613c8382612c7e565b67ffffffffffffffff811115613c9c57613c9b613072565b5b613ca68254613645565b613cb1828285613bed565b600060209050601f831160018114613ce45760008415613cd2578287015190505b613cdc8582613c5e565b865550613d44565b601f198416613cf286613ad8565b60005b82811015613d1a57848901518255600182019150602085019450602081019050613cf5565b86831015613d375784890151613d33601f891682613c40565b8355505b6001600288020188555050505b505050505050565b60006040820190508181036000830152613d668185612cd5565b9050613d7560208301846131f9565b9392505050565b600081905092915050565b6000613d9282612c7e565b613d9c8185613d7c565b9350613dac818560208601612c9a565b80840191505092915050565b6000613dc48285613d87565b9150613dd08284613d87565b91508190509392505050565b7f506c61796572206e6f7420696e697469616c697a656400000000000000000000600082015250565b6000613e12601683612c89565b9150613e1d82613ddc565b602082019050919050565b60006020820190508181036000830152613e4181613e05565b9050919050565b7f496e73756666696369656e7420746f6b656e7320746f2070757263686173652060008201527f6974656d00000000000000000000000000000000000000000000000000000000602082015250565b6000613ea4602483612c89565b9150613eaf82613e48565b604082019050919050565b60006020820190508181036000830152613ed381613e97565b9050919050565b600081519050919050565b600082825260208201905092915050565b6000613f0182613eda565b613f0b8185613ee5565b9350613f1b818560208601612c9a565b613f2481612cc4565b840191505092915050565b6000608082019050613f446000830187612dc5565b613f516020830186612dc5565b613f5e60408301856131f9565b8181036060830152613f708184613ef6565b905095945050505050565b600081519050613f8a81612bef565b92915050565b600060208284031215613fa657613fa5612bb9565b5b6000613fb484828501613f7b565b9150509291505056fea2646970667358221220a00d8ed9a73ccf5898bc43ddb92d4fdef8aff0b1b4eee55e4eaf8704e1a9965664736f6c63430008140033",
  "devdoc": {
    "errors": {
      "ERC721IncorrectOwner(address,uint256,address)": [
        {
          "details": "Indicates an error related to the ownership over a particular token. Used in transfers.",
          "params": {
            "owner": "Address of the current owner of a token.",
            "sender": "Address whose tokens are being transferred.",
            "tokenId": "Identifier number of a token."
          }
        }
      ],
      "ERC721InsufficientApproval(address,uint256)": [
        {
          "details": "Indicates a failure with the `operator`s approval. Used in transfers.",
          "params": {
            "operator": "Address that may be allowed to operate on tokens without being their owner.",
            "tokenId": "Identifier number of a token."
          }
        }
      ],
      "ERC721InvalidApprover(address)": [
        {
          "details": "Indicates a failure with the `approver` of a token to be approved. Used in approvals.",
          "params": {
            "approver": "Address initiating an approval operation."
          }
        }
      ],
      "ERC721InvalidOperator(address)": [
        {
          "details": "Indicates a failure with the `operator` to be approved. Used in approvals.",
          "params": {
            "operator": "Address that may be allowed to operate on tokens without being their owner."
          }
        }
      ],
      "ERC721InvalidOwner(address)": [
        {
          "details": "Indicates that an address can't be an owner. For example, `address(0)` is a forbidden owner in EIP-20. Used in balance queries.",
          "params": {
            "owner": "Address of the current owner of a token."
          }
        }
      ],
      "ERC721InvalidReceiver(address)": [
        {
          "details": "Indicates a failure with the token `receiver`. Used in transfers.",
          "params": {
            "receiver": "Address to which tokens are being transferred."
          }
        }
      ],
      "ERC721InvalidSender(address)": [
        {
          "details": "Indicates a failure with the token `sender`. Used in transfers.",
          "params": {
            "sender": "Address whose tokens are being transferred."
          }
        }
      ],
      "ERC721NonexistentToken(uint256)": [
        {
          "details": "Indicates a `tokenId` whose `owner` is the zero address.",
          "params": {
            "tokenId": "Identifier number of a token."
          }
        }
      ],
      "OwnableInvalidOwner(address)": [
        {
          "details": "The owner is not a valid owner account. (eg. `address(0)`)"
        }
      ],
      "OwnableUnauthorizedAccount(address)": [
        {
          "details": "The caller account is not authorized to perform an operation."
        }
      ]
    },
    "events": {
      "Approval(address,address,uint256)": {
        "details": "Emitted when `owner` enables `approved` to manage the `tokenId` token."
      },
      "ApprovalForAll(address,address,bool)": {
        "details": "Emitted when `owner` enables or disables (`approved`) `operator` to manage all of its assets."
      },
      "Transfer(address,address,uint256)": {
        "details": "Emitted when `tokenId` token is transferred from `from` to `to`."
      }
    },
    "kind": "dev",
    "methods": {
      "approve(address,uint256)": {
        "details": "See {IERC721-approve}."
      },
      "balanceOf(address)": {
        "details": "See {IERC721-balanceOf}."
      },
      "getApproved(uint256)": {
        "details": "See {IERC721-getApproved}."
      },
      "isApprovedForAll(address,address)": {
        "details": "See {IERC721-isApprovedForAll}."
      },
      "name()": {
        "details": "See {IERC721Metadata-name}."
      },
      "owner()": {
        "details": "Returns the address of the current owner."
      },
      "ownerOf(uint256)": {
        "details": "See {IERC721-ownerOf}."
      },
      "renounceOwnership()": {
        "details": "Leaves the contract without owner. It will not be possible to call `onlyOwner` functions. Can only be called by the current owner. NOTE: Renouncing ownership will leave the contract without an owner, thereby disabling any functionality that is only available to the owner."
      },
      "safeTransferFrom(address,address,uint256)": {
        "details": "See {IERC721-safeTransferFrom}."
      },
      "safeTransferFrom(address,address,uint256,bytes)": {
        "details": "See {IERC721-safeTransferFrom}."
      },
      "setApprovalForAll(address,bool)": {
        "details": "See {IERC721-setApprovalForAll}."
      },
      "supportsInterface(bytes4)": {
        "details": "See {IERC165-supportsInterface}."
      },
      "symbol()": {
        "details": "See {IERC721Metadata-symbol}."
      },
      "tokenURI(uint256)": {
        "details": "See {IERC721Metadata-tokenURI}."
      },
      "transferFrom(address,address,uint256)": {
        "details": "See {IERC721-transferFrom}."
      },
      "transferOwnership(address)": {
        "details": "Transfers ownership of the contract to a new account (`newOwner`). Can only be called by the current owner."
      }
    },
    "version": 1
  },
  "userdoc": {
    "kind": "user",
    "methods": {},
    "version": 1
  },
  "storageLayout": {
    "storage": [
      {
        "astId": 395,
        "contract": "contracts/ArcadeGame.sol:ArcadeGame",
        "label": "_name",
        "offset": 0,
        "slot": "0",
        "type": "t_string_storage"
      },
      {
        "astId": 397,
        "contract": "contracts/ArcadeGame.sol:ArcadeGame",
        "label": "_symbol",
        "offset": 0,
        "slot": "1",
        "type": "t_string_storage"
      },
      {
        "astId": 401,
        "contract": "contracts/ArcadeGame.sol:ArcadeGame",
        "label": "_owners",
        "offset": 0,
        "slot": "2",
        "type": "t_mapping(t_uint256,t_address)"
      },
      {
        "astId": 405,
        "contract": "contracts/ArcadeGame.sol:ArcadeGame",
        "label": "_balances",
        "offset": 0,
        "slot": "3",
        "type": "t_mapping(t_address,t_uint256)"
      },
      {
        "astId": 409,
        "contract": "contracts/ArcadeGame.sol:ArcadeGame",
        "label": "_tokenApprovals",
        "offset": 0,
        "slot": "4",
        "type": "t_mapping(t_uint256,t_address)"
      },
      {
        "astId": 415,
        "contract": "contracts/ArcadeGame.sol:ArcadeGame",
        "label": "_operatorApprovals",
        "offset": 0,
        "slot": "5",
        "type": "t_mapping(t_address,t_mapping(t_address,t_bool))"
      },
      {
        "astId": 8,
        "contract": "contracts/ArcadeGame.sol:ArcadeGame",
        "label": "_owner",
        "offset": 0,
        "slot": "6",
        "type": "t_address"
      },
      {
        "astId": 3048,
        "contract": "contracts/ArcadeGame.sol:ArcadeGame",
        "label": "token",
        "offset": 0,
        "slot": "7",
        "type": "t_contract(IERC20)362"
      },
      {
        "astId": 3051,
        "contract": "contracts/ArcadeGame.sol:ArcadeGame",
        "label": "_itemIdCounter",
        "offset": 0,
        "slot": "8",
        "type": "t_struct(Counter)3554_storage"
      },
      {
        "astId": 3054,
        "contract": "contracts/ArcadeGame.sol:ArcadeGame",
        "label": "_nftIdCounter",
        "offset": 0,
        "slot": "9",
        "type": "t_struct(Counter)3554_storage"
      },
      {
        "astId": 3056,
        "contract": "contracts/ArcadeGame.sol:ArcadeGame",
        "label": "gameCost",
        "offset": 0,
        "slot": "10",
        "type": "t_uint256"
      },
      {
        "astId": 3058,
        "contract": "contracts/ArcadeGame.sol:ArcadeGame",
        "label": "levelUpScore",
        "offset": 0,
        "slot": "11",
        "type": "t_uint256"
      },
      {
        "astId": 3063,
        "contract": "contracts/ArcadeGame.sol:ArcadeGame",
        "label": "players",
        "offset": 0,
        "slot": "12",
        "type": "t_mapping(t_address,t_struct(Player)3038_storage)"
      },
      {
        "astId": 3068,
        "contract": "contracts/ArcadeGame.sol:ArcadeGame",
        "label": "items",
        "offset": 0,
        "slot": "13",
        "type": "t_mapping(t_uint256,t_struct(Item)3045_storage)"
      },
      {
        "astId": 3072,
        "contract": "contracts/ArcadeGame.sol:ArcadeGame",
        "label": "nftOwners",
        "offset": 0,
        "slot": "14",
        "type": "t_mapping(t_uint256,t_address)"
      }
    ],
    "types": {
      "t_address": {
        "encoding": "inplace",
        "label": "address",
        "numberOfBytes": "20"
      },
      "t_array(t_uint256)dyn_storage": {
        "base": "t_uint256",
        "encoding": "dynamic_array",
        "label": "uint256[]",
        "numberOfBytes": "32"
      },
      "t_bool": {
        "encoding": "inplace",
        "label": "bool",
        "numberOfBytes": "1"
      },
      "t_contract(IERC20)362": {
        "encoding": "inplace",
        "label": "contract IERC20",
        "numberOfBytes": "20"
      },
      "t_mapping(t_address,t_bool)": {
        "encoding": "mapping",
        "key": "t_address",
        "label": "mapping(address => bool)",
        "numberOfBytes": "32",
        "value": "t_bool"
      },
      "t_mapping(t_address,t_mapping(t_address,t_bool))": {
        "encoding": "mapping",
        "key": "t_address",
        "label": "mapping(address => mapping(address => bool))",
        "numberOfBytes": "32",
        "value": "t_mapping(t_address,t_bool)"
      },
      "t_mapping(t_address,t_struct(Player)3038_storage)": {
        "encoding": "mapping",
        "key": "t_address",
        "label": "mapping(address => struct ArcadeGame.Player)",
        "numberOfBytes": "32",
        "value": "t_struct(Player)3038_storage"
      },
      "t_mapping(t_address,t_uint256)": {
        "encoding": "mapping",
        "key": "t_address",
        "label": "mapping(address => uint256)",
        "numberOfBytes": "32",
        "value": "t_uint256"
      },
      "t_mapping(t_uint256,t_address)": {
        "encoding": "mapping",
        "key": "t_uint256",
        "label": "mapping(uint256 => address)",
        "numberOfBytes": "32",
        "value": "t_address"
      },
      "t_mapping(t_uint256,t_struct(Item)3045_storage)": {
        "encoding": "mapping",
        "key": "t_uint256",
        "label": "mapping(uint256 => struct ArcadeGame.Item)",
        "numberOfBytes": "32",
        "value": "t_struct(Item)3045_storage"
      },
      "t_string_storage": {
        "encoding": "bytes",
        "label": "string",
        "numberOfBytes": "32"
      },
      "t_struct(Counter)3554_storage": {
        "encoding": "inplace",
        "label": "struct Counters.Counter",
        "members": [
          {
            "astId": 3553,
            "contract": "contracts/ArcadeGame.sol:ArcadeGame",
            "label": "_value",
            "offset": 0,
            "slot": "0",
            "type": "t_uint256"
          }
        ],
        "numberOfBytes": "32"
      },
      "t_struct(Item)3045_storage": {
        "encoding": "inplace",
        "label": "struct ArcadeGame.Item",
        "members": [
          {
            "astId": 3040,
            "contract": "contracts/ArcadeGame.sol:ArcadeGame",
            "label": "id",
            "offset": 0,
            "slot": "0",
            "type": "t_uint256"
          },
          {
            "astId": 3042,
            "contract": "contracts/ArcadeGame.sol:ArcadeGame",
            "label": "name",
            "offset": 0,
            "slot": "1",
            "type": "t_string_storage"
          },
          {
            "astId": 3044,
            "contract": "contracts/ArcadeGame.sol:ArcadeGame",
            "label": "power",
            "offset": 0,
            "slot": "2",
            "type": "t_uint256"
          }
        ],
        "numberOfBytes": "96"
      },
      "t_struct(Player)3038_storage": {
        "encoding": "inplace",
        "label": "struct ArcadeGame.Player",
        "members": [
          {
            "astId": 3030,
            "contract": "contracts/ArcadeGame.sol:ArcadeGame",
            "label": "score",
            "offset": 0,
            "slot": "0",
            "type": "t_uint256"
          },
          {
            "astId": 3032,
            "contract": "contracts/ArcadeGame.sol:ArcadeGame",
            "label": "rewards",
            "offset": 0,
            "slot": "1",
            "type": "t_uint256"
          },
          {
            "astId": 3034,
            "contract": "contracts/ArcadeGame.sol:ArcadeGame",
            "label": "level",
            "offset": 0,
            "slot": "2",
            "type": "t_uint256"
          },
          {
            "astId": 3037,
            "contract": "contracts/ArcadeGame.sol:ArcadeGame",
            "label": "items",
            "offset": 0,
            "slot": "3",
            "type": "t_array(t_uint256)dyn_storage"
          }
        ],
        "numberOfBytes": "128"
      },
      "t_uint256": {
        "encoding": "inplace",
        "label": "uint256",
        "numberOfBytes": "32"
      }
    }
  }
}