{
  "address": "0xe7f1725E7734CE288F8367e1Bb143E90bb3F0512",
  "abi": [
    {
      "inputs": [
        {
          "internalType": "address",
          "name": "_token",
          "type": "address"
        },
        {
          "internalType": "address",
          "name": "_initialOwner",
          "type": "address"
        }
      ],
      "stateMutability": "nonpayable",
      "type": "constructor"
    },
    {
      "inputs": [
        {
          "internalType": "address",
          "name": "sender",
          "type": "address"
        },
        {
          "internalType": "uint256",
          "name": "tokenId",
          "type": "uint256"
        },
        {
          "internalType": "address",
          "name": "owner",
          "type": "address"
        }
      ],
      "name": "ERC721IncorrectOwner",
      "type": "error"
    },
    {
      "inputs": [
        {
          "internalType": "address",
          "name": "operator",
          "type": "address"
        },
        {
          "internalType": "uint256",
          "name": "tokenId",
          "type": "uint256"
        }
      ],
      "name": "ERC721InsufficientApproval",
      "type": "error"
    },
    {
      "inputs": [
        {
          "internalType": "address",
          "name": "approver",
          "type": "address"
        }
      ],
      "name": "ERC721InvalidApprover",
      "type": "error"
    },
    {
      "inputs": [
        {
          "internalType": "address",
          "name": "operator",
          "type": "address"
        }
      ],
      "name": "ERC721InvalidOperator",
      "type": "error"
    },
    {
      "inputs": [
        {
          "internalType": "address",
          "name": "owner",
          "type": "address"
        }
      ],
      "name": "ERC721InvalidOwner",
      "type": "error"
    },
    {
      "inputs": [
        {
          "internalType": "address",
          "name": "receiver",
          "type": "address"
        }
      ],
      "name": "ERC721InvalidReceiver",
      "type": "error"
    },
    {
      "inputs": [
        {
          "internalType": "address",
          "name": "sender",
          "type": "address"
        }
      ],
      "name": "ERC721InvalidSender",
      "type": "error"
    },
    {
      "inputs": [
        {
          "internalType": "uint256",
          "name": "tokenId",
          "type": "uint256"
        }
      ],
      "name": "ERC721NonexistentToken",
      "type": "error"
    },
    {
      "inputs": [
        {
          "internalType": "address",
          "name": "owner",
          "type": "address"
        }
      ],
      "name": "OwnableInvalidOwner",
      "type": "error"
    },
    {
      "inputs": [
        {
          "internalType": "address",
          "name": "account",
          "type": "address"
        }
      ],
      "name": "OwnableUnauthorizedAccount",
      "type": "error"
    },
    {
      "anonymous": false,
      "inputs": [
        {
          "indexed": true,
          "internalType": "address",
          "name": "owner",
          "type": "address"
        },
        {
          "indexed": true,
          "internalType": "address",
          "name": "approved",
          "type": "address"
        },
        {
          "indexed": true,
          "internalType": "uint256",
          "name": "tokenId",
          "type": "uint256"
        }
      ],
      "name": "Approval",
      "type": "event"
    },
    {
      "anonymous": false,
      "inputs": [
        {
          "indexed": true,
          "internalType": "address",
          "name": "owner",
          "type": "address"
        },
        {
          "indexed": true,
          "internalType": "address",
          "name": "operator",
          "type": "address"
        },
        {
          "indexed": false,
          "internalType": "bool",
          "name": "approved",
          "type": "bool"
        }
      ],
      "name": "ApprovalForAll",
      "type": "event"
    },
    {
      "anonymous": false,
      "inputs": [
        {
          "indexed": true,
          "internalType": "address",
          "name": "player",
          "type": "address"
        },
        {
          "indexed": false,
          "internalType": "uint256",
          "name": "score",
          "type": "uint256"
        },
        {
          "indexed": false,
          "internalType": "uint256",
          "name": "level",
          "type": "uint256"
        }
      ],
      "name": "GamePlayed",
      "type": "event"
    },
    {
      "anonymous": false,
      "inputs": [
        {
          "indexed": true,
          "internalType": "uint256",
          "name": "itemId",
          "type": "uint256"
        },
        {
          "indexed": false,
          "internalType": "string",
          "name": "name",
          "type": "string"
        },
        {
          "indexed": false,
          "internalType": "uint256",
          "name": "power",
          "type": "uint256"
        }
      ],
      "name": "ItemAdded",
      "type": "event"
    },
    {
      "anonymous": false,
      "inputs": [
        {
          "indexed": true,
          "internalType": "address",
          "name": "player",
          "type": "address"
        },
        {
          "indexed": true,
          "internalType": "uint256",
          "name": "itemId",
          "type": "uint256"
        }
      ],
      "name": "ItemPurchased",
      "type": "event"
    },
    {
      "anonymous": false,
      "inputs": [
        {
          "indexed": true,
          "internalType": "address",
          "name": "player",
          "type": "address"
        },
        {
          "indexed": false,
          "internalType": "uint256",
          "name": "newLevel",
          "type": "uint256"
        }
      ],
      "name": "LevelUp",
      "type": "event"
    },
    {
      "anonymous": false,
      "inputs": [
        {
          "indexed": true,
          "internalType": "address",
          "name": "previousOwner",
          "type": "address"
        },
        {
          "indexed": true,
          "internalType": "address",
          "name": "newOwner",
          "type": "address"
        }
      ],
      "name": "OwnershipTransferred",
      "type": "event"
    },
    {
      "anonymous": false,
      "inputs": [
        {
          "indexed": true,
          "internalType": "address",
          "name": "player",
          "type": "address"
        },
        {
          "indexed": false,
          "internalType": "uint256",
          "name": "rewards",
          "type": "uint256"
        }
      ],
      "name": "RewardsClaimed",
      "type": "event"
    },
    {
      "anonymous": false,
      "inputs": [
        {
          "indexed": true,
          "internalType": "address",
          "name": "from",
          "type": "address"
        },
        {
          "indexed": true,
          "internalType": "address",
          "name": "to",
          "type": "address"
        },
        {
          "indexed": true,
          "internalType": "uint256",
          "name": "tokenId",
          "type": "uint256"
        }
      ],
      "name": "Transfer",
      "type": "event"
    },
    {
      "inputs": [
        {
          "internalType": "string",
          "name": "_name",
          "type": "string"
        },
        {
          "internalType": "uint256",
          "name": "_power",
          "type": "uint256"
        }
      ],
      "name": "addItem",
      "outputs": [],
      "stateMutability": "nonpayable",
      "type": "function"
    },
    {
      "inputs": [
        {
          "internalType": "address",
          "name": "to",
          "type": "address"
        },
        {
          "internalType": "uint256",
          "name": "tokenId",
          "type": "uint256"
        }
      ],
      "name": "approve",
      "outputs": [],
      "stateMutability": "nonpayable",
      "type": "function"
    },
    {
      "inputs": [
        {
          "internalType": "address",
          "name": "owner",
          "type": "address"
        }
      ],
      "name": "balanceOf",
      "outputs": [
        {
          "internalType": "uint256",
          "name": "",
          "type": "uint256"
        }
      ],
      "stateMutability": "view",
      "type": "function"
    },
    {
      "inputs": [],
      "name": "claimRewards",
      "outputs": [],
      "stateMutability": "nonpayable",
      "type": "function"
    },
    {
      "inputs": [],
      "name": "gameCost",
      "outputs": [
        {
          "internalType": "uint256",
          "name": "",
          "type": "uint256"
        }
      ],
      "stateMutability": "view",
      "type": "function"
    },
    {
      "inputs": [
        {
          "internalType": "uint256",
          "name": "tokenId",
          "type": "uint256"
        }
      ],
      "name": "getApproved",
      "outputs": [
        {
          "internalType": "address",
          "name": "",
          "type": "address"
        }
      ],
      "stateMutability": "view",
      "type": "function"
    },
    {
      "inputs": [],
      "name": "getItems",
      "outputs": [
        {
          "components": [
            {
              "internalType": "uint256",
              "name": "id",
              "type": "uint256"
            },
            {
              "internalType": "string",
              "name": "name",
              "type": "string"
            },
            {
              "internalType": "uint256",
              "name": "power",
              "type": "uint256"
            }
          ],
          "internalType": "struct ArcadeGame.Item[]",
          "name": "",
          "type": "tuple[]"
        }
      ],
      "stateMutability": "view",
      "type": "function"
    },
    {
      "inputs": [
        {
          "internalType": "address",
          "name": "_player",
          "type": "address"
        }
      ],
      "name": "getPlayerDetails",
      "outputs": [
        {
          "components": [
            {
              "internalType": "uint256",
              "name": "score",
              "type": "uint256"
            },
            {
              "internalType": "uint256",
              "name": "rewards",
              "type": "uint256"
            },
            {
              "internalType": "uint256",
              "name": "level",
              "type": "uint256"
            },
            {
              "internalType": "uint256[]",
              "name": "items",
              "type": "uint256[]"
            }
          ],
          "internalType": "struct ArcadeGame.Player",
          "name": "",
          "type": "tuple"
        }
      ],
      "stateMutability": "view",
      "type": "function"
    },
    {
      "inputs": [
        {
          "internalType": "address",
          "name": "owner",
          "type": "address"
        },
        {
          "internalType": "address",
          "name": "operator",
          "type": "address"
        }
      ],
      "name": "isApprovedForAll",
      "outputs": [
        {
          "internalType": "bool",
          "name": "",
          "type": "bool"
        }
      ],
      "stateMutability": "view",
      "type": "function"
    },
    {
      "inputs": [
        {
          "internalType": "uint256",
          "name": "",
          "type": "uint256"
        }
      ],
      "name": "items",
      "outputs": [
        {
          "internalType": "uint256",
          "name": "id",
          "type": "uint256"
        },
        {
          "internalType": "string",
          "name": "name",
          "type": "string"
        },
        {
          "internalType": "uint256",
          "name": "power",
          "type": "uint256"
        }
      ],
      "stateMutability": "view",
      "type": "function"
    },
    {
      "inputs": [],
      "name": "levelUpScore",
      "outputs": [
        {
          "internalType": "uint256",
          "name": "",
          "type": "uint256"
        }
      ],
      "stateMutability": "view",
      "type": "function"
    },
    {
      "inputs": [],
      "name": "mintNFT",
      "outputs": [],
      "stateMutability": "nonpayable",
      "type": "function"
    },
    {
      "inputs": [],
      "name": "name",
      "outputs": [
        {
          "internalType": "string",
          "name": "",
          "type": "string"
        }
      ],
      "stateMutability": "view",
      "type": "function"
    },
    {
      "inputs": [
        {
          "internalType": "uint256",
          "name": "",
          "type": "uint256"
        }
      ],
      "name": "nftOwners",
      "outputs": [
        {
          "internalType": "address",
          "name": "",
          "type": "address"
        }
      ],
      "stateMutability": "view",
      "type": "function"
    },
    {
      "inputs": [],
      "name": "owner",
      "outputs": [
        {
          "internalType": "address",
          "name": "",
          "type": "address"
        }
      ],
      "stateMutability": "view",
      "type": "function"
    },
    {
      "inputs": [
        {
          "internalType": "uint256",
          "name": "tokenId",
          "type": "uint256"
        }
      ],
      "name": "ownerOf",
      "outputs": [
        {
          "internalType": "address",
          "name": "",
          "type": "address"
        }
      ],
      "stateMutability": "view",
      "type": "function"
    },
    {
      "inputs": [
        {
          "internalType": "uint256",
          "name": "_score",
          "type": "uint256"
        }
      ],
      "name": "playGame",
      "outputs": [],
      "stateMutability": "nonpayable",
      "type": "function"
    },
    {
      "inputs": [
        {
          "internalType": "address",
          "name": "",
          "type": "address"
        }
      ],
      "name": "players",
      "outputs": [
        {
          "internalType": "uint256",
          "name": "score",
          "type": "uint256"
        },
        {
          "internalType": "uint256",
          "name": "rewards",
          "type": "uint256"
        },
        {
          "internalType": "uint256",
          "name": "level",
          "type": "uint256"
        }
      ],
      "stateMutability": "view",
      "type": "function"
    },
    {
      "inputs": [
        {
          "internalType": "uint256",
          "name": "_itemId",
          "type": "uint256"
        }
      ],
      "name": "purchaseItem",
      "outputs": [],
      "stateMutability": "nonpayable",
      "type": "function"
    },
    {
      "inputs": [],
      "name": "renounceOwnership",
      "outputs": [],
      "stateMutability": "nonpayable",
      "type": "function"
    },
    {
      "inputs": [
        {
          "internalType": "address",
          "name": "from",
          "type": "address"
        },
        {
          "internalType": "address",
          "name": "to",
          "type": "address"
        },
        {
          "internalType": "uint256",
          "name": "tokenId",
          "type": "uint256"
        }
      ],
      "name": "safeTransferFrom",
      "outputs": [],
      "stateMutability": "nonpayable",
      "type": "function"
    },
    {
      "inputs": [
        {
          "internalType": "address",
          "name": "from",
          "type": "address"
        },
        {
          "internalType": "address",
          "name": "to",
          "type": "address"
        },
        {
          "internalType": "uint256",
          "name": "tokenId",
          "type": "uint256"
        },
        {
          "internalType": "bytes",
          "name": "data",
          "type": "bytes"
        }
      ],
      "name": "safeTransferFrom",
      "outputs": [],
      "stateMutability": "nonpayable",
      "type": "function"
    },
    {
      "inputs": [
        {
          "internalType": "address",
          "name": "operator",
          "type": "address"
        },
        {
          "internalType": "bool",
          "name": "approved",
          "type": "bool"
        }
      ],
      "name": "setApprovalForAll",
      "outputs": [],
      "stateMutability": "nonpayable",
      "type": "function"
    },
    {
      "inputs": [
        {
          "internalType": "uint256",
          "name": "_gameCost",
          "type": "uint256"
        }
      ],
      "name": "setGameCost",
      "outputs": [],
      "stateMutability": "nonpayable",
      "type": "function"
    },
    {
      "inputs": [
        {
          "internalType": "uint256",
          "name": "_levelUpScore",
          "type": "uint256"
        }
      ],
      "name": "setLevelUpScore",
      "outputs": [],
      "stateMutability": "nonpayable",
      "type": "function"
    },
    {
      "inputs": [
        {
          "internalType": "bytes4",
          "name": "interfaceId",
          "type": "bytes4"
        }
      ],
      "name": "supportsInterface",
      "outputs": [
        {
          "internalType": "bool",
          "name": "",
          "type": "bool"
        }
      ],
      "stateMutability": "view",
      "type": "function"
    },
    {
      "inputs": [],
      "name": "symbol",
      "outputs": [
        {
          "internalType": "string",
          "name": "",
          "type": "string"
        }
      ],
      "stateMutability": "view",
      "type": "function"
    },
    {
      "inputs": [],
      "name": "token",
      "outputs": [
        {
          "internalType": "contract IERC20",
          "name": "",
          "type": "address"
        }
      ],
      "stateMutability": "view",
      "type": "function"
    },
    {
      "inputs": [
        {
          "internalType": "uint256",
          "name": "tokenId",
          "type": "uint256"
        }
      ],
      "name": "tokenURI",
      "outputs": [
        {
          "internalType": "string",
          "name": "",
          "type": "string"
        }
      ],
      "stateMutability": "view",
      "type": "function"
    },
    {
      "inputs": [
        {
          "internalType": "address",
          "name": "from",
          "type": "address"
        },
        {
          "internalType": "address",
          "name": "to",
          "type": "address"
        },
        {
          "internalType": "uint256",
          "name": "tokenId",
          "type": "uint256"
        }
      ],
      "name": "transferFrom",
      "outputs": [],
      "stateMutability": "nonpayable",
      "type": "function"
    },
    {
      "inputs": [
        {
          "internalType": "address",
          "name": "newOwner",
          "type": "address"
        }
      ],
      "name": "transferOwnership",
      "outputs": [],
      "stateMutability": "nonpayable",
      "type": "function"
    }
  ],
  "transactionHash": "0x58354e0291acc8ceda3f70d0ef2054e38d5a92bf18a7168b3daa280077e1b2bb",
  "args": [
    "0x5FbDB2315678afecb367f032d93F642f64180aa3",
    "0xf39Fd6e51aad88F6F4ce6aB8827279cffFb92266"
  ],
  "numDeployments": 1,
  "solcInputHash": "6947b9e482342adc6a8fefa3b0adce4e",
  "bytecode": "0x60806040523480156200001157600080fd5b50604051620042bf380380620042bf8339818101604052810190620000379190620002e3565b806040518060400160405280600f81526020017f41726361646547616d65546f6b656e00000000000000000000000000000000008152506040518060400160405280600381526020017f41475400000000000000000000000000000000000000000000000000000000008152508160009081620000b59190620005a4565b508060019081620000c79190620005a4565b505050600073ffffffffffffffffffffffffffffffffffffffff168173ffffffffffffffffffffffffffffffffffffffff16036200013f5760006040517f1e4fbdf70000000000000000000000000000000000000000000000000000000081526004016200013691906200069c565b60405180910390fd5b6200015081620001b360201b60201c565b5081600760006101000a81548173ffffffffffffffffffffffffffffffffffffffff021916908373ffffffffffffffffffffffffffffffffffffffff16021790555068056bc75e2d63100000600a819055506103e8600b819055505050620006b9565b6000600660009054906101000a900473ffffffffffffffffffffffffffffffffffffffff16905081600660006101000a81548173ffffffffffffffffffffffffffffffffffffffff021916908373ffffffffffffffffffffffffffffffffffffffff1602179055508173ffffffffffffffffffffffffffffffffffffffff168173ffffffffffffffffffffffffffffffffffffffff167f8be0079c531659141344cd1fd0a4f28419497f9722a3daafe3b4186f6b6457e060405160405180910390a35050565b600080fd5b600073ffffffffffffffffffffffffffffffffffffffff82169050919050565b6000620002ab826200027e565b9050919050565b620002bd816200029e565b8114620002c957600080fd5b50565b600081519050620002dd81620002b2565b92915050565b60008060408385031215620002fd57620002fc62000279565b5b60006200030d85828601620002cc565b92505060206200032085828601620002cc565b9150509250929050565b600081519050919050565b7f4e487b7100000000000000000000000000000000000000000000000000000000600052604160045260246000fd5b7f4e487b7100000000000000000000000000000000000000000000000000000000600052602260045260246000fd5b60006002820490506001821680620003ac57607f821691505b602082108103620003c257620003c162000364565b5b50919050565b60008190508160005260206000209050919050565b60006020601f8301049050919050565b600082821b905092915050565b6000600883026200042c7fffffffffffffffffffffffffffffffffffffffffffffffffffffffffffffffff82620003ed565b620004388683620003ed565b95508019841693508086168417925050509392505050565b6000819050919050565b6000819050919050565b6000620004856200047f620004798462000450565b6200045a565b62000450565b9050919050565b6000819050919050565b620004a18362000464565b620004b9620004b0826200048c565b848454620003fa565b825550505050565b600090565b620004d0620004c1565b620004dd81848462000496565b505050565b5b818110156200050557620004f9600082620004c6565b600181019050620004e3565b5050565b601f82111562000554576200051e81620003c8565b6200052984620003dd565b8101602085101562000539578190505b620005516200054885620003dd565b830182620004e2565b50505b505050565b600082821c905092915050565b6000620005796000198460080262000559565b1980831691505092915050565b600062000594838362000566565b9150826002028217905092915050565b620005af826200032a565b67ffffffffffffffff811115620005cb57620005ca62000335565b5b620005d7825462000393565b620005e482828562000509565b600060209050601f8311600181146200061c576000841562000607578287015190505b62000613858262000586565b86555062000683565b601f1984166200062c86620003c8565b60005b8281101562000656578489015182556001820191506020850194506020810190506200062f565b8683101562000676578489015162000672601f89168262000566565b8355505b6001600288020188555050505b505050505050565b62000696816200029e565b82525050565b6000602082019050620006b360008301846200068b565b92915050565b613bf680620006c96000396000f3fe608060405234801561001057600080fd5b50600436106101e55760003560e01c80637f17b79d1161010f578063c87b56dd116100a2578063e2eb41ff11610071578063e2eb41ff14610556578063e985e9c514610588578063f2fde38b146105b8578063fc0c546a146105d4576101e5565b8063c87b56dd146104bc578063c8dd6ce7146104ec578063cab896dc1461051c578063d38ea5bf1461053a576101e5565b8063affc55c0116100de578063affc55c014610420578063b88d4fde1461043e578063bbd94c2f1461045a578063bfb231d21461048a576101e5565b80637f17b79d146103ac5780638da5cb5b146103c857806395d89b41146103e6578063a22cb46514610404576101e5565b8063372500ab1161018757806362d6bbdf1161015657806362d6bbdf146103265780636352211e1461034257806370a0823114610372578063715018a6146103a2576101e5565b8063372500ab146102c6578063410d59cc146102d057806342842e0e146102ee5780635873533d1461030a576101e5565b80630931a4d1116101c35780630931a4d114610268578063095ea7b31461028457806314f710fe146102a057806323b872dd146102aa576101e5565b806301ffc9a7146101ea57806306fdde031461021a578063081812fc14610238575b600080fd5b61020460048036038101906101ff919061288a565b6105f2565b60405161021191906128d2565b60405180910390f35b6102226106d4565b60405161022f919061297d565b60405180910390f35b610252600480360381019061024d91906129d5565b610766565b60405161025f9190612a43565b60405180910390f35b610282600480360381019061027d91906129d5565b610782565b005b61029e60048036038101906102999190612a8a565b610794565b005b6102a86107aa565b005b6102c460048036038101906102bf9190612aca565b610821565b005b6102ce610923565b005b6102d8610aed565b6040516102e59190612c88565b60405180910390f35b61030860048036038101906103039190612aca565b610c5e565b005b610324600480360381019061031f91906129d5565b610c7e565b005b610340600480360381019061033b9190612ddf565b610fb5565b005b61035c600480360381019061035791906129d5565b61106f565b6040516103699190612a43565b60405180910390f35b61038c60048036038101906103879190612e3b565b611081565b6040516103999190612e77565b60405180910390f35b6103aa61113b565b005b6103c660048036038101906103c191906129d5565b61114f565b005b6103d0611161565b6040516103dd9190612a43565b60405180910390f35b6103ee61118b565b6040516103fb919061297d565b60405180910390f35b61041e60048036038101906104199190612ebe565b61121d565b005b610428611233565b6040516104359190612e77565b60405180910390f35b61045860048036038101906104539190612f9f565b611239565b005b610474600480360381019061046f91906129d5565b611256565b6040516104819190612a43565b60405180910390f35b6104a4600480360381019061049f91906129d5565b611289565b6040516104b393929190613022565b60405180910390f35b6104d660048036038101906104d191906129d5565b61133b565b6040516104e3919061297d565b60405180910390f35b61050660048036038101906105019190612e3b565b6113a4565b6040516105139190613172565b60405180910390f35b610524611473565b6040516105319190612e77565b60405180910390f35b610554600480360381019061054f91906129d5565b611479565b005b610570600480360381019061056b9190612e3b565b6117b9565b60405161057f93929190613194565b60405180910390f35b6105a2600480360381019061059d91906131cb565b6117e3565b6040516105af91906128d2565b60405180910390f35b6105d260048036038101906105cd9190612e3b565b611877565b005b6105dc6118fd565b6040516105e9919061326a565b60405180910390f35b60007f80ac58cd000000000000000000000000000000000000000000000000000000007bffffffffffffffffffffffffffffffffffffffffffffffffffffffff1916827bffffffffffffffffffffffffffffffffffffffffffffffffffffffff191614806106bd57507f5b5e139f000000000000000000000000000000000000000000000000000000007bffffffffffffffffffffffffffffffffffffffffffffffffffffffff1916827bffffffffffffffffffffffffffffffffffffffffffffffffffffffff1916145b806106cd57506106cc82611923565b5b9050919050565b6060600080546106e3906132b4565b80601f016020809104026020016040519081016040528092919081815260200182805461070f906132b4565b801561075c5780601f106107315761010080835404028352916020019161075c565b820191906000526020600020905b81548152906001019060200180831161073f57829003601f168201915b5050505050905090565b60006107718261198d565b5061077b82611a15565b9050919050565b61078a611a52565b80600b8190555050565b6107a682826107a1611ad9565b611ae1565b5050565b60006107b66009611af3565b90506107c26009611b01565b6107cc3382611b17565b33600e600083815260200190815260200160002060006101000a81548173ffffffffffffffffffffffffffffffffffffffff021916908373ffffffffffffffffffffffffffffffffffffffff16021790555050565b600073ffffffffffffffffffffffffffffffffffffffff168273ffffffffffffffffffffffffffffffffffffffff16036108935760006040517f64a0ae9200000000000000000000000000000000000000000000000000000000815260040161088a9190612a43565b60405180910390fd5b60006108a783836108a2611ad9565b611c10565b90508373ffffffffffffffffffffffffffffffffffffffff168173ffffffffffffffffffffffffffffffffffffffff161461091d578382826040517f64283d7b000000000000000000000000000000000000000000000000000000008152600401610914939291906132e5565b60405180910390fd5b50505050565b6000600c60003373ffffffffffffffffffffffffffffffffffffffff1673ffffffffffffffffffffffffffffffffffffffff1681526020019081526020016000209050600081600101549050600081116109b2576040517f08c379a00000000000000000000000000000000000000000000000000000000081526004016109a990613368565b60405180910390fd5b60008260010181905550600760009054906101000a900473ffffffffffffffffffffffffffffffffffffffff1673ffffffffffffffffffffffffffffffffffffffff1663a9059cbb33836040518363ffffffff1660e01b8152600401610a19929190613388565b6020604051808303816000875af1158015610a38573d6000803e3d6000fd5b505050506040513d601f19601f82011682018060405250810190610a5c91906133c6565b610a9b576040517f08c379a0000000000000000000000000000000000000000000000000000000008152600401610a929061343f565b60405180910390fd5b3373ffffffffffffffffffffffffffffffffffffffff167ffc30cddea38e2bf4d6ea7d3f9ed3b6ad7f176419f4963bd81318067a4aee73fe82604051610ae19190612e77565b60405180910390a25050565b60606000610afb6008611af3565b905060008167ffffffffffffffff811115610b1957610b18612cb4565b5b604051908082528060200260200182016040528015610b5257816020015b610b3f6127d5565b815260200190600190039081610b375790505b50905060005b82811015610c5557600d600082815260200190815260200160002060405180606001604052908160008201548152602001600182018054610b98906132b4565b80601f0160208091040260200160405190810160405280929190818152602001828054610bc4906132b4565b8015610c115780601f10610be657610100808354040283529160200191610c11565b820191906000526020600020905b815481529060010190602001808311610bf457829003601f168201915b50505050508152602001600282015481525050828281518110610c3757610c3661345f565b5b60200260200101819052508080610c4d906134bd565b915050610b58565b50809250505090565b610c7983838360405180602001604052806000815250611239565b505050565b600a54600760009054906101000a900473ffffffffffffffffffffffffffffffffffffffff1673ffffffffffffffffffffffffffffffffffffffff166370a08231336040518263ffffffff1660e01b8152600401610cdc9190612a43565b602060405180830381865afa158015610cf9573d6000803e3d6000fd5b505050506040513d601f19601f82011682018060405250810190610d1d919061351a565b1015610d5e576040517f08c379a0000000000000000000000000000000000000000000000000000000008152600401610d5590613593565b60405180910390fd5b600760009054906101000a900473ffffffffffffffffffffffffffffffffffffffff1673ffffffffffffffffffffffffffffffffffffffff166323b872dd3330600a546040518463ffffffff1660e01b8152600401610dbf939291906135b3565b6020604051808303816000875af1158015610dde573d6000803e3d6000fd5b505050506040513d601f19601f82011682018060405250810190610e0291906133c6565b610e41576040517f08c379a0000000000000000000000000000000000000000000000000000000008152600401610e3890613636565b60405180910390fd5b6000600c60003373ffffffffffffffffffffffffffffffffffffffff1673ffffffffffffffffffffffffffffffffffffffff168152602001908152602001600020905081816000016000828254610e989190613656565b92505081905550600a82610eac91906136b9565b816001016000828254610ebf9190613656565b92505081905550600b54816000015410610f5d57806002016000815480929190610ee8906134bd565b9190505550600b54816000016000828254610f0391906136ea565b925050819055503373ffffffffffffffffffffffffffffffffffffffff167f91e51c29e7e87a74ad3b8ccba98538970f50a4309242735467f41e27c6b0fbac8260020154604051610f549190612e77565b60405180910390a25b3373ffffffffffffffffffffffffffffffffffffffff167f24b31e1dbf1732a12bb700d3d77e5fb96ff3b693374d9fa15ccbc03f42715076838360020154604051610fa992919061371e565b60405180910390a25050565b610fbd611a52565b6000610fc96008611af3565b9050610fd56008611b01565b604051806060016040528082815260200184815260200183815250600d600083815260200190815260200160002060008201518160000155602082015181600101908161102291906138e9565b5060408201518160020155905050807f0444434676a57f70f8479401c50fb4add3e31052f88f4b35e155b7759e5968e584846040516110629291906139bb565b60405180910390a2505050565b600061107a8261198d565b9050919050565b60008073ffffffffffffffffffffffffffffffffffffffff168273ffffffffffffffffffffffffffffffffffffffff16036110f45760006040517f89c62b640000000000000000000000000000000000000000000000000000000081526004016110eb9190612a43565b60405180910390fd5b600360008373ffffffffffffffffffffffffffffffffffffffff1673ffffffffffffffffffffffffffffffffffffffff168152602001908152602001600020549050919050565b611143611a52565b61114d6000611e2a565b565b611157611a52565b80600a8190555050565b6000600660009054906101000a900473ffffffffffffffffffffffffffffffffffffffff16905090565b60606001805461119a906132b4565b80601f01602080910402602001604051908101604052809291908181526020018280546111c6906132b4565b80156112135780601f106111e857610100808354040283529160200191611213565b820191906000526020600020905b8154815290600101906020018083116111f657829003601f168201915b5050505050905090565b61122f611228611ad9565b8383611ef0565b5050565b600b5481565b611244848484610821565b6112508484848461205f565b50505050565b600e6020528060005260406000206000915054906101000a900473ffffffffffffffffffffffffffffffffffffffff1681565b600d6020528060005260406000206000915090508060000154908060010180546112b2906132b4565b80601f01602080910402602001604051908101604052809291908181526020018280546112de906132b4565b801561132b5780601f106113005761010080835404028352916020019161132b565b820191906000526020600020905b81548152906001019060200180831161130e57829003601f168201915b5050505050908060020154905083565b60606113468261198d565b506000611351612216565b90506000815111611371576040518060200160405280600081525061139c565b8061137b8461222d565b60405160200161138c929190613a27565b6040516020818303038152906040525b915050919050565b6113ac6127f6565b600c60008373ffffffffffffffffffffffffffffffffffffffff1673ffffffffffffffffffffffffffffffffffffffff1681526020019081526020016000206040518060800160405290816000820154815260200160018201548152602001600282015481526020016003820180548060200260200160405190810160405280929190818152602001828054801561146357602002820191906000526020600020905b81548152602001906001019080831161144f575b5050505050815250509050919050565b600a5481565b6000600d6000838152602001908152602001600020604051806060016040529081600082015481526020016001820180546114b3906132b4565b80601f01602080910402602001604051908101604052809291908181526020018280546114df906132b4565b801561152c5780601f106115015761010080835404028352916020019161152c565b820191906000526020600020905b81548152906001019060200180831161150f57829003601f168201915b5050505050815260200160028201548152505090508060400151600760009054906101000a900473ffffffffffffffffffffffffffffffffffffffff1673ffffffffffffffffffffffffffffffffffffffff166370a08231336040518263ffffffff1660e01b81526004016115a19190612a43565b602060405180830381865afa1580156115be573d6000803e3d6000fd5b505050506040513d601f19601f820116820180604052508101906115e2919061351a565b1015611623576040517f08c379a000000000000000000000000000000000000000000000000000000000815260040161161a90613abd565b60405180910390fd5b600760009054906101000a900473ffffffffffffffffffffffffffffffffffffffff1673ffffffffffffffffffffffffffffffffffffffff166323b872dd333084604001516040518463ffffffff1660e01b8152600401611686939291906135b3565b6020604051808303816000875af11580156116a5573d6000803e3d6000fd5b505050506040513d601f19601f820116820180604052508101906116c991906133c6565b611708576040517f08c379a00000000000000000000000000000000000000000000000000000000081526004016116ff90613636565b60405180910390fd5b600c60003373ffffffffffffffffffffffffffffffffffffffff1673ffffffffffffffffffffffffffffffffffffffff168152602001908152602001600020600301829080600181540180825580915050600190039060005260206000200160009091909190915055813373ffffffffffffffffffffffffffffffffffffffff167f792fe07c0f3ce4ef42df79c4a2b07925168cddbaabf7a7ef1351f027a376031360405160405180910390a35050565b600c6020528060005260406000206000915090508060000154908060010154908060020154905083565b6000600560008473ffffffffffffffffffffffffffffffffffffffff1673ffffffffffffffffffffffffffffffffffffffff16815260200190815260200160002060008373ffffffffffffffffffffffffffffffffffffffff1673ffffffffffffffffffffffffffffffffffffffff16815260200190815260200160002060009054906101000a900460ff16905092915050565b61187f611a52565b600073ffffffffffffffffffffffffffffffffffffffff168173ffffffffffffffffffffffffffffffffffffffff16036118f15760006040517f1e4fbdf70000000000000000000000000000000000000000000000000000000081526004016118e89190612a43565b60405180910390fd5b6118fa81611e2a565b50565b600760009054906101000a900473ffffffffffffffffffffffffffffffffffffffff1681565b60007f01ffc9a7000000000000000000000000000000000000000000000000000000007bffffffffffffffffffffffffffffffffffffffffffffffffffffffff1916827bffffffffffffffffffffffffffffffffffffffffffffffffffffffff1916149050919050565b600080611999836122fb565b9050600073ffffffffffffffffffffffffffffffffffffffff168173ffffffffffffffffffffffffffffffffffffffff1603611a0c57826040517f7e273289000000000000000000000000000000000000000000000000000000008152600401611a039190612e77565b60405180910390fd5b80915050919050565b60006004600083815260200190815260200160002060009054906101000a900473ffffffffffffffffffffffffffffffffffffffff169050919050565b611a5a611ad9565b73ffffffffffffffffffffffffffffffffffffffff16611a78611161565b73ffffffffffffffffffffffffffffffffffffffff1614611ad757611a9b611ad9565b6040517f118cdaa7000000000000000000000000000000000000000000000000000000008152600401611ace9190612a43565b60405180910390fd5b565b600033905090565b611aee8383836001612338565b505050565b600081600001549050919050565b6001816000016000828254019250508190555050565b600073ffffffffffffffffffffffffffffffffffffffff168273ffffffffffffffffffffffffffffffffffffffff1603611b895760006040517f64a0ae92000000000000000000000000000000000000000000000000000000008152600401611b809190612a43565b60405180910390fd5b6000611b9783836000611c10565b9050600073ffffffffffffffffffffffffffffffffffffffff168173ffffffffffffffffffffffffffffffffffffffff1614611c0b5760006040517f73c6ac6e000000000000000000000000000000000000000000000000000000008152600401611c029190612a43565b60405180910390fd5b505050565b600080611c1c846122fb565b9050600073ffffffffffffffffffffffffffffffffffffffff168373ffffffffffffffffffffffffffffffffffffffff1614611c5e57611c5d8184866124fd565b5b600073ffffffffffffffffffffffffffffffffffffffff168173ffffffffffffffffffffffffffffffffffffffff1614611cef57611ca0600085600080612338565b6001600360008373ffffffffffffffffffffffffffffffffffffffff1673ffffffffffffffffffffffffffffffffffffffff168152602001908152602001600020600082825403925050819055505b600073ffffffffffffffffffffffffffffffffffffffff168573ffffffffffffffffffffffffffffffffffffffff1614611d72576001600360008773ffffffffffffffffffffffffffffffffffffffff1673ffffffffffffffffffffffffffffffffffffffff168152602001908152602001600020600082825401925050819055505b846002600086815260200190815260200160002060006101000a81548173ffffffffffffffffffffffffffffffffffffffff021916908373ffffffffffffffffffffffffffffffffffffffff160217905550838573ffffffffffffffffffffffffffffffffffffffff168273ffffffffffffffffffffffffffffffffffffffff167fddf252ad1be2c89b69c2b068fc378daa952ba7f163c4a11628f55a4df523b3ef60405160405180910390a4809150509392505050565b6000600660009054906101000a900473ffffffffffffffffffffffffffffffffffffffff16905081600660006101000a81548173ffffffffffffffffffffffffffffffffffffffff021916908373ffffffffffffffffffffffffffffffffffffffff1602179055508173ffffffffffffffffffffffffffffffffffffffff168173ffffffffffffffffffffffffffffffffffffffff167f8be0079c531659141344cd1fd0a4f28419497f9722a3daafe3b4186f6b6457e060405160405180910390a35050565b600073ffffffffffffffffffffffffffffffffffffffff168273ffffffffffffffffffffffffffffffffffffffff1603611f6157816040517f5b08ba18000000000000000000000000000000000000000000000000000000008152600401611f589190612a43565b60405180910390fd5b80600560008573ffffffffffffffffffffffffffffffffffffffff1673ffffffffffffffffffffffffffffffffffffffff16815260200190815260200160002060008473ffffffffffffffffffffffffffffffffffffffff1673ffffffffffffffffffffffffffffffffffffffff16815260200190815260200160002060006101000a81548160ff0219169083151502179055508173ffffffffffffffffffffffffffffffffffffffff168373ffffffffffffffffffffffffffffffffffffffff167f17307eab39ab6107e8899845ad3d59bd9653f200f220920489ca2b5937696c318360405161205291906128d2565b60405180910390a3505050565b60008373ffffffffffffffffffffffffffffffffffffffff163b1115612210578273ffffffffffffffffffffffffffffffffffffffff1663150b7a026120a3611ad9565b8685856040518563ffffffff1660e01b81526004016120c59493929190613b32565b6020604051808303816000875af192505050801561210157506040513d601f19601f820116820180604052508101906120fe9190613b93565b60015b612185573d8060008114612131576040519150601f19603f3d011682016040523d82523d6000602084013e612136565b606091505b50600081510361217d57836040517f64a0ae920000000000000000000000000000000000000000000000000000000081526004016121749190612a43565b60405180910390fd5b805181602001fd5b63150b7a0260e01b7bffffffffffffffffffffffffffffffffffffffffffffffffffffffff1916817bffffffffffffffffffffffffffffffffffffffffffffffffffffffff19161461220e57836040517f64a0ae920000000000000000000000000000000000000000000000000000000081526004016122059190612a43565b60405180910390fd5b505b50505050565b606060405180602001604052806000815250905090565b60606000600161223c846125c1565b01905060008167ffffffffffffffff81111561225b5761225a612cb4565b5b6040519080825280601f01601f19166020018201604052801561228d5781602001600182028036833780820191505090505b509050600082602001820190505b6001156122f0578080600190039150507f3031323334353637383961626364656600000000000000000000000000000000600a86061a8153600a85816122e4576122e361368a565b5b0494506000850361229b575b819350505050919050565b60006002600083815260200190815260200160002060009054906101000a900473ffffffffffffffffffffffffffffffffffffffff169050919050565b80806123715750600073ffffffffffffffffffffffffffffffffffffffff168273ffffffffffffffffffffffffffffffffffffffff1614155b156124a55760006123818461198d565b9050600073ffffffffffffffffffffffffffffffffffffffff168373ffffffffffffffffffffffffffffffffffffffff16141580156123ec57508273ffffffffffffffffffffffffffffffffffffffff168173ffffffffffffffffffffffffffffffffffffffff1614155b80156123ff57506123fd81846117e3565b155b1561244157826040517fa9fbf51f0000000000000000000000000000000000000000000000000000000081526004016124389190612a43565b60405180910390fd5b81156124a357838573ffffffffffffffffffffffffffffffffffffffff168273ffffffffffffffffffffffffffffffffffffffff167f8c5be1e5ebec7d5bd14f71427d1e84f3dd0314c0f7b2291e5b200ac8c7c3b92560405160405180910390a45b505b836004600085815260200190815260200160002060006101000a81548173ffffffffffffffffffffffffffffffffffffffff021916908373ffffffffffffffffffffffffffffffffffffffff16021790555050505050565b612508838383612714565b6125bc57600073ffffffffffffffffffffffffffffffffffffffff168373ffffffffffffffffffffffffffffffffffffffff160361257d57806040517f7e2732890000000000000000000000000000000000000000000000000000000081526004016125749190612e77565b60405180910390fd5b81816040517f177e802f0000000000000000000000000000000000000000000000000000000081526004016125b3929190613388565b60405180910390fd5b505050565b600080600090507a184f03e93ff9f4daa797ed6e38ed64bf6a1f010000000000000000831061261f577a184f03e93ff9f4daa797ed6e38ed64bf6a1f01000000000000000083816126155761261461368a565b5b0492506040810190505b6d04ee2d6d415b85acef8100000000831061265c576d04ee2d6d415b85acef810000000083816126525761265161368a565b5b0492506020810190505b662386f26fc10000831061268b57662386f26fc1000083816126815761268061368a565b5b0492506010810190505b6305f5e10083106126b4576305f5e10083816126aa576126a961368a565b5b0492506008810190505b61271083106126d95761271083816126cf576126ce61368a565b5b0492506004810190505b606483106126fc57606483816126f2576126f161368a565b5b0492506002810190505b600a831061270b576001810190505b80915050919050565b60008073ffffffffffffffffffffffffffffffffffffffff168373ffffffffffffffffffffffffffffffffffffffff16141580156127cc57508273ffffffffffffffffffffffffffffffffffffffff168473ffffffffffffffffffffffffffffffffffffffff16148061278d575061278c84846117e3565b5b806127cb57508273ffffffffffffffffffffffffffffffffffffffff166127b383611a15565b73ffffffffffffffffffffffffffffffffffffffff16145b5b90509392505050565b60405180606001604052806000815260200160608152602001600081525090565b6040518060800160405280600081526020016000815260200160008152602001606081525090565b6000604051905090565b600080fd5b600080fd5b60007fffffffff0000000000000000000000000000000000000000000000000000000082169050919050565b61286781612832565b811461287257600080fd5b50565b6000813590506128848161285e565b92915050565b6000602082840312156128a05761289f612828565b5b60006128ae84828501612875565b91505092915050565b60008115159050919050565b6128cc816128b7565b82525050565b60006020820190506128e760008301846128c3565b92915050565b600081519050919050565b600082825260208201905092915050565b60005b8381101561292757808201518184015260208101905061290c565b60008484015250505050565b6000601f19601f8301169050919050565b600061294f826128ed565b61295981856128f8565b9350612969818560208601612909565b61297281612933565b840191505092915050565b600060208201905081810360008301526129978184612944565b905092915050565b6000819050919050565b6129b28161299f565b81146129bd57600080fd5b50565b6000813590506129cf816129a9565b92915050565b6000602082840312156129eb576129ea612828565b5b60006129f9848285016129c0565b91505092915050565b600073ffffffffffffffffffffffffffffffffffffffff82169050919050565b6000612a2d82612a02565b9050919050565b612a3d81612a22565b82525050565b6000602082019050612a586000830184612a34565b92915050565b612a6781612a22565b8114612a7257600080fd5b50565b600081359050612a8481612a5e565b92915050565b60008060408385031215612aa157612aa0612828565b5b6000612aaf85828601612a75565b9250506020612ac0858286016129c0565b9150509250929050565b600080600060608486031215612ae357612ae2612828565b5b6000612af186828701612a75565b9350506020612b0286828701612a75565b9250506040612b13868287016129c0565b9150509250925092565b600081519050919050565b600082825260208201905092915050565b6000819050602082019050919050565b612b528161299f565b82525050565b600082825260208201905092915050565b6000612b74826128ed565b612b7e8185612b58565b9350612b8e818560208601612909565b612b9781612933565b840191505092915050565b6000606083016000830151612bba6000860182612b49565b5060208301518482036020860152612bd28282612b69565b9150506040830151612be76040860182612b49565b508091505092915050565b6000612bfe8383612ba2565b905092915050565b6000602082019050919050565b6000612c1e82612b1d565b612c288185612b28565b935083602082028501612c3a85612b39565b8060005b85811015612c765784840389528151612c578582612bf2565b9450612c6283612c06565b925060208a01995050600181019050612c3e565b50829750879550505050505092915050565b60006020820190508181036000830152612ca28184612c13565b905092915050565b600080fd5b600080fd5b7f4e487b7100000000000000000000000000000000000000000000000000000000600052604160045260246000fd5b612cec82612933565b810181811067ffffffffffffffff82111715612d0b57612d0a612cb4565b5b80604052505050565b6000612d1e61281e565b9050612d2a8282612ce3565b919050565b600067ffffffffffffffff821115612d4a57612d49612cb4565b5b612d5382612933565b9050602081019050919050565b82818337600083830152505050565b6000612d82612d7d84612d2f565b612d14565b905082815260208101848484011115612d9e57612d9d612caf565b5b612da9848285612d60565b509392505050565b600082601f830112612dc657612dc5612caa565b5b8135612dd6848260208601612d6f565b91505092915050565b60008060408385031215612df657612df5612828565b5b600083013567ffffffffffffffff811115612e1457612e1361282d565b5b612e2085828601612db1565b9250506020612e31858286016129c0565b9150509250929050565b600060208284031215612e5157612e50612828565b5b6000612e5f84828501612a75565b91505092915050565b612e718161299f565b82525050565b6000602082019050612e8c6000830184612e68565b92915050565b612e9b816128b7565b8114612ea657600080fd5b50565b600081359050612eb881612e92565b92915050565b60008060408385031215612ed557612ed4612828565b5b6000612ee385828601612a75565b9250506020612ef485828601612ea9565b9150509250929050565b600067ffffffffffffffff821115612f1957612f18612cb4565b5b612f2282612933565b9050602081019050919050565b6000612f42612f3d84612efe565b612d14565b905082815260208101848484011115612f5e57612f5d612caf565b5b612f69848285612d60565b509392505050565b600082601f830112612f8657612f85612caa565b5b8135612f96848260208601612f2f565b91505092915050565b60008060008060808587031215612fb957612fb8612828565b5b6000612fc787828801612a75565b9450506020612fd887828801612a75565b9350506040612fe9878288016129c0565b925050606085013567ffffffffffffffff81111561300a5761300961282d565b5b61301687828801612f71565b91505092959194509250565b60006060820190506130376000830186612e68565b81810360208301526130498185612944565b90506130586040830184612e68565b949350505050565b600081519050919050565b600082825260208201905092915050565b6000819050602082019050919050565b60006130988383612b49565b60208301905092915050565b6000602082019050919050565b60006130bc82613060565b6130c6818561306b565b93506130d18361307c565b8060005b838110156131025781516130e9888261308c565b97506130f4836130a4565b9250506001810190506130d5565b5085935050505092915050565b60006080830160008301516131276000860182612b49565b50602083015161313a6020860182612b49565b50604083015161314d6040860182612b49565b506060830151848203606086015261316582826130b1565b9150508091505092915050565b6000602082019050818103600083015261318c818461310f565b905092915050565b60006060820190506131a96000830186612e68565b6131b66020830185612e68565b6131c36040830184612e68565b949350505050565b600080604083850312156131e2576131e1612828565b5b60006131f085828601612a75565b925050602061320185828601612a75565b9150509250929050565b6000819050919050565b600061323061322b61322684612a02565b61320b565b612a02565b9050919050565b600061324282613215565b9050919050565b600061325482613237565b9050919050565b61326481613249565b82525050565b600060208201905061327f600083018461325b565b92915050565b7f4e487b7100000000000000000000000000000000000000000000000000000000600052602260045260246000fd5b600060028204905060018216806132cc57607f821691505b6020821081036132df576132de613285565b5b50919050565b60006060820190506132fa6000830186612a34565b6133076020830185612e68565b6133146040830184612a34565b949350505050565b7f4e6f207265776172647320746f20636c61696d00000000000000000000000000600082015250565b60006133526013836128f8565b915061335d8261331c565b602082019050919050565b6000602082019050818103600083015261338181613345565b9050919050565b600060408201905061339d6000830185612a34565b6133aa6020830184612e68565b9392505050565b6000815190506133c081612e92565b92915050565b6000602082840312156133dc576133db612828565b5b60006133ea848285016133b1565b91505092915050565b7f526577617264207472616e73666572206661696c656400000000000000000000600082015250565b60006134296016836128f8565b9150613434826133f3565b602082019050919050565b600060208201905081810360008301526134588161341c565b9050919050565b7f4e487b7100000000000000000000000000000000000000000000000000000000600052603260045260246000fd5b7f4e487b7100000000000000000000000000000000000000000000000000000000600052601160045260246000fd5b60006134c88261299f565b91507fffffffffffffffffffffffffffffffffffffffffffffffffffffffffffffffff82036134fa576134f961348e565b5b600182019050919050565b600081519050613514816129a9565b92915050565b6000602082840312156135305761352f612828565b5b600061353e84828501613505565b91505092915050565b7f496e73756666696369656e7420746f6b656e7320746f20706c61790000000000600082015250565b600061357d601b836128f8565b915061358882613547565b602082019050919050565b600060208201905081810360008301526135ac81613570565b9050919050565b60006060820190506135c86000830186612a34565b6135d56020830185612a34565b6135e26040830184612e68565b949350505050565b7f546f6b656e207472616e73666572206661696c65640000000000000000000000600082015250565b60006136206015836128f8565b915061362b826135ea565b602082019050919050565b6000602082019050818103600083015261364f81613613565b9050919050565b60006136618261299f565b915061366c8361299f565b92508282019050808211156136845761368361348e565b5b92915050565b7f4e487b7100000000000000000000000000000000000000000000000000000000600052601260045260246000fd5b60006136c48261299f565b91506136cf8361299f565b9250826136df576136de61368a565b5b828204905092915050565b60006136f58261299f565b91506137008361299f565b92508282039050818111156137185761371761348e565b5b92915050565b60006040820190506137336000830185612e68565b6137406020830184612e68565b9392505050565b60008190508160005260206000209050919050565b60006020601f8301049050919050565b600082821b905092915050565b6000600883026137a97fffffffffffffffffffffffffffffffffffffffffffffffffffffffffffffffff8261376c565b6137b3868361376c565b95508019841693508086168417925050509392505050565b60006137e66137e16137dc8461299f565b61320b565b61299f565b9050919050565b6000819050919050565b613800836137cb565b61381461380c826137ed565b848454613779565b825550505050565b600090565b61382961381c565b6138348184846137f7565b505050565b5b818110156138585761384d600082613821565b60018101905061383a565b5050565b601f82111561389d5761386e81613747565b6138778461375c565b81016020851015613886578190505b61389a6138928561375c565b830182613839565b50505b505050565b600082821c905092915050565b60006138c0600019846008026138a2565b1980831691505092915050565b60006138d983836138af565b9150826002028217905092915050565b6138f2826128ed565b67ffffffffffffffff81111561390b5761390a612cb4565b5b61391582546132b4565b61392082828561385c565b600060209050601f8311600181146139535760008415613941578287015190505b61394b85826138cd565b8655506139b3565b601f19841661396186613747565b60005b8281101561398957848901518255600182019150602085019450602081019050613964565b868310156139a657848901516139a2601f8916826138af565b8355505b6001600288020188555050505b505050505050565b600060408201905081810360008301526139d58185612944565b90506139e46020830184612e68565b9392505050565b600081905092915050565b6000613a01826128ed565b613a0b81856139eb565b9350613a1b818560208601612909565b80840191505092915050565b6000613a3382856139f6565b9150613a3f82846139f6565b91508190509392505050565b7f496e73756666696369656e7420746f6b656e7320746f2070757263686173652060008201527f6974656d00000000000000000000000000000000000000000000000000000000602082015250565b6000613aa76024836128f8565b9150613ab282613a4b565b604082019050919050565b60006020820190508181036000830152613ad681613a9a565b9050919050565b600081519050919050565b600082825260208201905092915050565b6000613b0482613add565b613b0e8185613ae8565b9350613b1e818560208601612909565b613b2781612933565b840191505092915050565b6000608082019050613b476000830187612a34565b613b546020830186612a34565b613b616040830185612e68565b8181036060830152613b738184613af9565b905095945050505050565b600081519050613b8d8161285e565b92915050565b600060208284031215613ba957613ba8612828565b5b6000613bb784828501613b7e565b9150509291505056fea2646970667358221220b2e5bd0b63102ac6df1e76f527af05c5a90cd4b1adf61d373ec65037d8f323a164736f6c63430008140033",
  "devdoc": {
    "errors": {
      "ERC721IncorrectOwner(address,uint256,address)": [
        {
          "details": "Indicates an error related to the ownership over a particular token. Used in transfers.",
          "params": {
            "owner": "Address of the current owner of a token.",
            "sender": "Address whose tokens are being transferred.",
            "tokenId": "Identifier number of a token."
          }
        }
      ],
      "ERC721InsufficientApproval(address,uint256)": [
        {
          "details": "Indicates a failure with the `operator`s approval. Used in transfers.",
          "params": {
            "operator": "Address that may be allowed to operate on tokens without being their owner.",
            "tokenId": "Identifier number of a token."
          }
        }
      ],
      "ERC721InvalidApprover(address)": [
        {
          "details": "Indicates a failure with the `approver` of a token to be approved. Used in approvals.",
          "params": {
            "approver": "Address initiating an approval operation."
          }
        }
      ],
      "ERC721InvalidOperator(address)": [
        {
          "details": "Indicates a failure with the `operator` to be approved. Used in approvals.",
          "params": {
            "operator": "Address that may be allowed to operate on tokens without being their owner."
          }
        }
      ],
      "ERC721InvalidOwner(address)": [
        {
          "details": "Indicates that an address can't be an owner. For example, `address(0)` is a forbidden owner in EIP-20. Used in balance queries.",
          "params": {
            "owner": "Address of the current owner of a token."
          }
        }
      ],
      "ERC721InvalidReceiver(address)": [
        {
          "details": "Indicates a failure with the token `receiver`. Used in transfers.",
          "params": {
            "receiver": "Address to which tokens are being transferred."
          }
        }
      ],
      "ERC721InvalidSender(address)": [
        {
          "details": "Indicates a failure with the token `sender`. Used in transfers.",
          "params": {
            "sender": "Address whose tokens are being transferred."
          }
        }
      ],
      "ERC721NonexistentToken(uint256)": [
        {
          "details": "Indicates a `tokenId` whose `owner` is the zero address.",
          "params": {
            "tokenId": "Identifier number of a token."
          }
        }
      ],
      "OwnableInvalidOwner(address)": [
        {
          "details": "The owner is not a valid owner account. (eg. `address(0)`)"
        }
      ],
      "OwnableUnauthorizedAccount(address)": [
        {
          "details": "The caller account is not authorized to perform an operation."
        }
      ]
    },
    "events": {
      "Approval(address,address,uint256)": {
        "details": "Emitted when `owner` enables `approved` to manage the `tokenId` token."
      },
      "ApprovalForAll(address,address,bool)": {
        "details": "Emitted when `owner` enables or disables (`approved`) `operator` to manage all of its assets."
      },
      "Transfer(address,address,uint256)": {
        "details": "Emitted when `tokenId` token is transferred from `from` to `to`."
      }
    },
    "kind": "dev",
    "methods": {
      "approve(address,uint256)": {
        "details": "See {IERC721-approve}."
      },
      "balanceOf(address)": {
        "details": "See {IERC721-balanceOf}."
      },
      "getApproved(uint256)": {
        "details": "See {IERC721-getApproved}."
      },
      "isApprovedForAll(address,address)": {
        "details": "See {IERC721-isApprovedForAll}."
      },
      "name()": {
        "details": "See {IERC721Metadata-name}."
      },
      "owner()": {
        "details": "Returns the address of the current owner."
      },
      "ownerOf(uint256)": {
        "details": "See {IERC721-ownerOf}."
      },
      "renounceOwnership()": {
        "details": "Leaves the contract without owner. It will not be possible to call `onlyOwner` functions. Can only be called by the current owner. NOTE: Renouncing ownership will leave the contract without an owner, thereby disabling any functionality that is only available to the owner."
      },
      "safeTransferFrom(address,address,uint256)": {
        "details": "See {IERC721-safeTransferFrom}."
      },
      "safeTransferFrom(address,address,uint256,bytes)": {
        "details": "See {IERC721-safeTransferFrom}."
      },
      "setApprovalForAll(address,bool)": {
        "details": "See {IERC721-setApprovalForAll}."
      },
      "supportsInterface(bytes4)": {
        "details": "See {IERC165-supportsInterface}."
      },
      "symbol()": {
        "details": "See {IERC721Metadata-symbol}."
      },
      "tokenURI(uint256)": {
        "details": "See {IERC721Metadata-tokenURI}."
      },
      "transferFrom(address,address,uint256)": {
        "details": "See {IERC721-transferFrom}."
      },
      "transferOwnership(address)": {
        "details": "Transfers ownership of the contract to a new account (`newOwner`). Can only be called by the current owner."
      }
    },
    "version": 1
  },
  "userdoc": {
    "kind": "user",
    "methods": {},
    "version": 1
  },
  "storageLayout": {
    "storage": [
      {
        "astId": 395,
        "contract": "contracts/ArcadeGame.sol:ArcadeGame",
        "label": "_name",
        "offset": 0,
        "slot": "0",
        "type": "t_string_storage"
      },
      {
        "astId": 397,
        "contract": "contracts/ArcadeGame.sol:ArcadeGame",
        "label": "_symbol",
        "offset": 0,
        "slot": "1",
        "type": "t_string_storage"
      },
      {
        "astId": 401,
        "contract": "contracts/ArcadeGame.sol:ArcadeGame",
        "label": "_owners",
        "offset": 0,
        "slot": "2",
        "type": "t_mapping(t_uint256,t_address)"
      },
      {
        "astId": 405,
        "contract": "contracts/ArcadeGame.sol:ArcadeGame",
        "label": "_balances",
        "offset": 0,
        "slot": "3",
        "type": "t_mapping(t_address,t_uint256)"
      },
      {
        "astId": 409,
        "contract": "contracts/ArcadeGame.sol:ArcadeGame",
        "label": "_tokenApprovals",
        "offset": 0,
        "slot": "4",
        "type": "t_mapping(t_uint256,t_address)"
      },
      {
        "astId": 415,
        "contract": "contracts/ArcadeGame.sol:ArcadeGame",
        "label": "_operatorApprovals",
        "offset": 0,
        "slot": "5",
        "type": "t_mapping(t_address,t_mapping(t_address,t_bool))"
      },
      {
        "astId": 8,
        "contract": "contracts/ArcadeGame.sol:ArcadeGame",
        "label": "_owner",
        "offset": 0,
        "slot": "6",
        "type": "t_address"
      },
      {
        "astId": 3048,
        "contract": "contracts/ArcadeGame.sol:ArcadeGame",
        "label": "token",
        "offset": 0,
        "slot": "7",
        "type": "t_contract(IERC20)362"
      },
      {
        "astId": 3051,
        "contract": "contracts/ArcadeGame.sol:ArcadeGame",
        "label": "_itemIdCounter",
        "offset": 0,
        "slot": "8",
        "type": "t_struct(Counter)3482_storage"
      },
      {
        "astId": 3054,
        "contract": "contracts/ArcadeGame.sol:ArcadeGame",
        "label": "_nftIdCounter",
        "offset": 0,
        "slot": "9",
        "type": "t_struct(Counter)3482_storage"
      },
      {
        "astId": 3056,
        "contract": "contracts/ArcadeGame.sol:ArcadeGame",
        "label": "gameCost",
        "offset": 0,
        "slot": "10",
        "type": "t_uint256"
      },
      {
        "astId": 3058,
        "contract": "contracts/ArcadeGame.sol:ArcadeGame",
        "label": "levelUpScore",
        "offset": 0,
        "slot": "11",
        "type": "t_uint256"
      },
      {
        "astId": 3063,
        "contract": "contracts/ArcadeGame.sol:ArcadeGame",
        "label": "players",
        "offset": 0,
        "slot": "12",
        "type": "t_mapping(t_address,t_struct(Player)3038_storage)"
      },
      {
        "astId": 3068,
        "contract": "contracts/ArcadeGame.sol:ArcadeGame",
        "label": "items",
        "offset": 0,
        "slot": "13",
        "type": "t_mapping(t_uint256,t_struct(Item)3045_storage)"
      },
      {
        "astId": 3072,
        "contract": "contracts/ArcadeGame.sol:ArcadeGame",
        "label": "nftOwners",
        "offset": 0,
        "slot": "14",
        "type": "t_mapping(t_uint256,t_address)"
      }
    ],
    "types": {
      "t_address": {
        "encoding": "inplace",
        "label": "address",
        "numberOfBytes": "20"
      },
      "t_array(t_uint256)dyn_storage": {
        "base": "t_uint256",
        "encoding": "dynamic_array",
        "label": "uint256[]",
        "numberOfBytes": "32"
      },
      "t_bool": {
        "encoding": "inplace",
        "label": "bool",
        "numberOfBytes": "1"
      },
      "t_contract(IERC20)362": {
        "encoding": "inplace",
        "label": "contract IERC20",
        "numberOfBytes": "20"
      },
      "t_mapping(t_address,t_bool)": {
        "encoding": "mapping",
        "key": "t_address",
        "label": "mapping(address => bool)",
        "numberOfBytes": "32",
        "value": "t_bool"
      },
      "t_mapping(t_address,t_mapping(t_address,t_bool))": {
        "encoding": "mapping",
        "key": "t_address",
        "label": "mapping(address => mapping(address => bool))",
        "numberOfBytes": "32",
        "value": "t_mapping(t_address,t_bool)"
      },
      "t_mapping(t_address,t_struct(Player)3038_storage)": {
        "encoding": "mapping",
        "key": "t_address",
        "label": "mapping(address => struct ArcadeGame.Player)",
        "numberOfBytes": "32",
        "value": "t_struct(Player)3038_storage"
      },
      "t_mapping(t_address,t_uint256)": {
        "encoding": "mapping",
        "key": "t_address",
        "label": "mapping(address => uint256)",
        "numberOfBytes": "32",
        "value": "t_uint256"
      },
      "t_mapping(t_uint256,t_address)": {
        "encoding": "mapping",
        "key": "t_uint256",
        "label": "mapping(uint256 => address)",
        "numberOfBytes": "32",
        "value": "t_address"
      },
      "t_mapping(t_uint256,t_struct(Item)3045_storage)": {
        "encoding": "mapping",
        "key": "t_uint256",
        "label": "mapping(uint256 => struct ArcadeGame.Item)",
        "numberOfBytes": "32",
        "value": "t_struct(Item)3045_storage"
      },
      "t_string_storage": {
        "encoding": "bytes",
        "label": "string",
        "numberOfBytes": "32"
      },
      "t_struct(Counter)3482_storage": {
        "encoding": "inplace",
        "label": "struct Counters.Counter",
        "members": [
          {
            "astId": 3481,
            "contract": "contracts/ArcadeGame.sol:ArcadeGame",
            "label": "_value",
            "offset": 0,
            "slot": "0",
            "type": "t_uint256"
          }
        ],
        "numberOfBytes": "32"
      },
      "t_struct(Item)3045_storage": {
        "encoding": "inplace",
        "label": "struct ArcadeGame.Item",
        "members": [
          {
            "astId": 3040,
            "contract": "contracts/ArcadeGame.sol:ArcadeGame",
            "label": "id",
            "offset": 0,
            "slot": "0",
            "type": "t_uint256"
          },
          {
            "astId": 3042,
            "contract": "contracts/ArcadeGame.sol:ArcadeGame",
            "label": "name",
            "offset": 0,
            "slot": "1",
            "type": "t_string_storage"
          },
          {
            "astId": 3044,
            "contract": "contracts/ArcadeGame.sol:ArcadeGame",
            "label": "power",
            "offset": 0,
            "slot": "2",
            "type": "t_uint256"
          }
        ],
        "numberOfBytes": "96"
      },
      "t_struct(Player)3038_storage": {
        "encoding": "inplace",
        "label": "struct ArcadeGame.Player",
        "members": [
          {
            "astId": 3030,
            "contract": "contracts/ArcadeGame.sol:ArcadeGame",
            "label": "score",
            "offset": 0,
            "slot": "0",
            "type": "t_uint256"
          },
          {
            "astId": 3032,
            "contract": "contracts/ArcadeGame.sol:ArcadeGame",
            "label": "rewards",
            "offset": 0,
            "slot": "1",
            "type": "t_uint256"
          },
          {
            "astId": 3034,
            "contract": "contracts/ArcadeGame.sol:ArcadeGame",
            "label": "level",
            "offset": 0,
            "slot": "2",
            "type": "t_uint256"
          },
          {
            "astId": 3037,
            "contract": "contracts/ArcadeGame.sol:ArcadeGame",
            "label": "items",
            "offset": 0,
            "slot": "3",
            "type": "t_array(t_uint256)dyn_storage"
          }
        ],
        "numberOfBytes": "128"
      },
      "t_uint256": {
        "encoding": "inplace",
        "label": "uint256",
        "numberOfBytes": "32"
      }
    }
  }
}