{
  "_format": "hh-sol-artifact-1",
  "contractName": "ArcadeGame",
  "sourceName": "contracts/ArcadeGame.sol",
  "abi": [
    {
      "inputs": [
        {
          "internalType": "address",
          "name": "_token",
          "type": "address"
        },
        {
          "internalType": "address",
          "name": "_initialOwner",
          "type": "address"
        },
        {
          "internalType": "uint256",
          "name": "_initialAirdropAmount",
          "type": "uint256"
        }
      ],
      "stateMutability": "nonpayable",
      "type": "constructor"
    },
    {
      "inputs": [
        {
          "internalType": "address",
          "name": "sender",
          "type": "address"
        },
        {
          "internalType": "uint256",
          "name": "tokenId",
          "type": "uint256"
        },
        {
          "internalType": "address",
          "name": "owner",
          "type": "address"
        }
      ],
      "name": "ERC721IncorrectOwner",
      "type": "error"
    },
    {
      "inputs": [
        {
          "internalType": "address",
          "name": "operator",
          "type": "address"
        },
        {
          "internalType": "uint256",
          "name": "tokenId",
          "type": "uint256"
        }
      ],
      "name": "ERC721InsufficientApproval",
      "type": "error"
    },
    {
      "inputs": [
        {
          "internalType": "address",
          "name": "approver",
          "type": "address"
        }
      ],
      "name": "ERC721InvalidApprover",
      "type": "error"
    },
    {
      "inputs": [
        {
          "internalType": "address",
          "name": "operator",
          "type": "address"
        }
      ],
      "name": "ERC721InvalidOperator",
      "type": "error"
    },
    {
      "inputs": [
        {
          "internalType": "address",
          "name": "owner",
          "type": "address"
        }
      ],
      "name": "ERC721InvalidOwner",
      "type": "error"
    },
    {
      "inputs": [
        {
          "internalType": "address",
          "name": "receiver",
          "type": "address"
        }
      ],
      "name": "ERC721InvalidReceiver",
      "type": "error"
    },
    {
      "inputs": [
        {
          "internalType": "address",
          "name": "sender",
          "type": "address"
        }
      ],
      "name": "ERC721InvalidSender",
      "type": "error"
    },
    {
      "inputs": [
        {
          "internalType": "uint256",
          "name": "tokenId",
          "type": "uint256"
        }
      ],
      "name": "ERC721NonexistentToken",
      "type": "error"
    },
    {
      "inputs": [
        {
          "internalType": "address",
          "name": "owner",
          "type": "address"
        }
      ],
      "name": "OwnableInvalidOwner",
      "type": "error"
    },
    {
      "inputs": [
        {
          "internalType": "address",
          "name": "account",
          "type": "address"
        }
      ],
      "name": "OwnableUnauthorizedAccount",
      "type": "error"
    },
    {
      "anonymous": false,
      "inputs": [
        {
          "indexed": true,
          "internalType": "address",
          "name": "owner",
          "type": "address"
        },
        {
          "indexed": true,
          "internalType": "address",
          "name": "approved",
          "type": "address"
        },
        {
          "indexed": true,
          "internalType": "uint256",
          "name": "tokenId",
          "type": "uint256"
        }
      ],
      "name": "Approval",
      "type": "event"
    },
    {
      "anonymous": false,
      "inputs": [
        {
          "indexed": true,
          "internalType": "address",
          "name": "owner",
          "type": "address"
        },
        {
          "indexed": true,
          "internalType": "address",
          "name": "operator",
          "type": "address"
        },
        {
          "indexed": false,
          "internalType": "bool",
          "name": "approved",
          "type": "bool"
        }
      ],
      "name": "ApprovalForAll",
      "type": "event"
    },
    {
      "anonymous": false,
      "inputs": [
        {
          "indexed": true,
          "internalType": "address",
          "name": "player",
          "type": "address"
        },
        {
          "indexed": false,
          "internalType": "uint256",
          "name": "score",
          "type": "uint256"
        },
        {
          "indexed": false,
          "internalType": "uint256",
          "name": "level",
          "type": "uint256"
        }
      ],
      "name": "GamePlayed",
      "type": "event"
    },
    {
      "anonymous": false,
      "inputs": [
        {
          "indexed": true,
          "internalType": "uint256",
          "name": "itemId",
          "type": "uint256"
        },
        {
          "indexed": false,
          "internalType": "string",
          "name": "name",
          "type": "string"
        },
        {
          "indexed": false,
          "internalType": "uint256",
          "name": "power",
          "type": "uint256"
        }
      ],
      "name": "ItemAdded",
      "type": "event"
    },
    {
      "anonymous": false,
      "inputs": [
        {
          "indexed": true,
          "internalType": "address",
          "name": "player",
          "type": "address"
        },
        {
          "indexed": true,
          "internalType": "uint256",
          "name": "itemId",
          "type": "uint256"
        }
      ],
      "name": "ItemPurchased",
      "type": "event"
    },
    {
      "anonymous": false,
      "inputs": [
        {
          "indexed": true,
          "internalType": "address",
          "name": "player",
          "type": "address"
        },
        {
          "indexed": false,
          "internalType": "uint256",
          "name": "newLevel",
          "type": "uint256"
        }
      ],
      "name": "LevelUp",
      "type": "event"
    },
    {
      "anonymous": false,
      "inputs": [
        {
          "indexed": true,
          "internalType": "address",
          "name": "previousOwner",
          "type": "address"
        },
        {
          "indexed": true,
          "internalType": "address",
          "name": "newOwner",
          "type": "address"
        }
      ],
      "name": "OwnershipTransferred",
      "type": "event"
    },
    {
      "anonymous": false,
      "inputs": [
        {
          "indexed": true,
          "internalType": "address",
          "name": "player",
          "type": "address"
        },
        {
          "indexed": false,
          "internalType": "uint256",
          "name": "rewards",
          "type": "uint256"
        }
      ],
      "name": "RewardsClaimed",
      "type": "event"
    },
    {
      "anonymous": false,
      "inputs": [
        {
          "indexed": true,
          "internalType": "address",
          "name": "from",
          "type": "address"
        },
        {
          "indexed": true,
          "internalType": "address",
          "name": "to",
          "type": "address"
        },
        {
          "indexed": true,
          "internalType": "uint256",
          "name": "tokenId",
          "type": "uint256"
        }
      ],
      "name": "Transfer",
      "type": "event"
    },
    {
      "inputs": [
        {
          "internalType": "string",
          "name": "_name",
          "type": "string"
        },
        {
          "internalType": "uint256",
          "name": "_power",
          "type": "uint256"
        }
      ],
      "name": "addItem",
      "outputs": [],
      "stateMutability": "nonpayable",
      "type": "function"
    },
    {
      "inputs": [
        {
          "internalType": "address",
          "name": "to",
          "type": "address"
        },
        {
          "internalType": "uint256",
          "name": "tokenId",
          "type": "uint256"
        }
      ],
      "name": "approve",
      "outputs": [],
      "stateMutability": "nonpayable",
      "type": "function"
    },
    {
      "inputs": [
        {
          "internalType": "address",
          "name": "owner",
          "type": "address"
        }
      ],
      "name": "balanceOf",
      "outputs": [
        {
          "internalType": "uint256",
          "name": "",
          "type": "uint256"
        }
      ],
      "stateMutability": "view",
      "type": "function"
    },
    {
      "inputs": [],
      "name": "claimRewards",
      "outputs": [],
      "stateMutability": "nonpayable",
      "type": "function"
    },
    {
      "inputs": [],
      "name": "gameCost",
      "outputs": [
        {
          "internalType": "uint256",
          "name": "",
          "type": "uint256"
        }
      ],
      "stateMutability": "view",
      "type": "function"
    },
    {
      "inputs": [
        {
          "internalType": "uint256",
          "name": "tokenId",
          "type": "uint256"
        }
      ],
      "name": "getApproved",
      "outputs": [
        {
          "internalType": "address",
          "name": "",
          "type": "address"
        }
      ],
      "stateMutability": "view",
      "type": "function"
    },
    {
      "inputs": [],
      "name": "getItems",
      "outputs": [
        {
          "components": [
            {
              "internalType": "uint256",
              "name": "id",
              "type": "uint256"
            },
            {
              "internalType": "string",
              "name": "name",
              "type": "string"
            },
            {
              "internalType": "uint256",
              "name": "power",
              "type": "uint256"
            }
          ],
          "internalType": "struct ArcadeGame.Item[]",
          "name": "",
          "type": "tuple[]"
        }
      ],
      "stateMutability": "view",
      "type": "function"
    },
    {
      "inputs": [
        {
          "internalType": "address",
          "name": "_player",
          "type": "address"
        }
      ],
      "name": "getPlayerDetails",
      "outputs": [
        {
          "components": [
            {
              "internalType": "uint256",
              "name": "score",
              "type": "uint256"
            },
            {
              "internalType": "uint256",
              "name": "rewards",
              "type": "uint256"
            },
            {
              "internalType": "uint256",
              "name": "level",
              "type": "uint256"
            },
            {
              "internalType": "uint256[]",
              "name": "items",
              "type": "uint256[]"
            }
          ],
          "internalType": "struct ArcadeGame.Player",
          "name": "",
          "type": "tuple"
        }
      ],
      "stateMutability": "view",
      "type": "function"
    },
    {
      "inputs": [],
      "name": "initialAirdropAmount",
      "outputs": [
        {
          "internalType": "uint256",
          "name": "",
          "type": "uint256"
        }
      ],
      "stateMutability": "view",
      "type": "function"
    },
    {
      "inputs": [
        {
          "internalType": "address",
          "name": "playerAddress",
          "type": "address"
        }
      ],
      "name": "initializePlayer",
      "outputs": [],
      "stateMutability": "nonpayable",
      "type": "function"
    },
    {
      "inputs": [
        {
          "internalType": "address",
          "name": "owner",
          "type": "address"
        },
        {
          "internalType": "address",
          "name": "operator",
          "type": "address"
        }
      ],
      "name": "isApprovedForAll",
      "outputs": [
        {
          "internalType": "bool",
          "name": "",
          "type": "bool"
        }
      ],
      "stateMutability": "view",
      "type": "function"
    },
    {
      "inputs": [
        {
          "internalType": "uint256",
          "name": "",
          "type": "uint256"
        }
      ],
      "name": "items",
      "outputs": [
        {
          "internalType": "uint256",
          "name": "id",
          "type": "uint256"
        },
        {
          "internalType": "string",
          "name": "name",
          "type": "string"
        },
        {
          "internalType": "uint256",
          "name": "power",
          "type": "uint256"
        }
      ],
      "stateMutability": "view",
      "type": "function"
    },
    {
      "inputs": [],
      "name": "levelUpScore",
      "outputs": [
        {
          "internalType": "uint256",
          "name": "",
          "type": "uint256"
        }
      ],
      "stateMutability": "view",
      "type": "function"
    },
    {
      "inputs": [],
      "name": "mintNFT",
      "outputs": [],
      "stateMutability": "nonpayable",
      "type": "function"
    },
    {
      "inputs": [],
      "name": "name",
      "outputs": [
        {
          "internalType": "string",
          "name": "",
          "type": "string"
        }
      ],
      "stateMutability": "view",
      "type": "function"
    },
    {
      "inputs": [
        {
          "internalType": "uint256",
          "name": "",
          "type": "uint256"
        }
      ],
      "name": "nftOwners",
      "outputs": [
        {
          "internalType": "address",
          "name": "",
          "type": "address"
        }
      ],
      "stateMutability": "view",
      "type": "function"
    },
    {
      "inputs": [],
      "name": "owner",
      "outputs": [
        {
          "internalType": "address",
          "name": "",
          "type": "address"
        }
      ],
      "stateMutability": "view",
      "type": "function"
    },
    {
      "inputs": [
        {
          "internalType": "uint256",
          "name": "tokenId",
          "type": "uint256"
        }
      ],
      "name": "ownerOf",
      "outputs": [
        {
          "internalType": "address",
          "name": "",
          "type": "address"
        }
      ],
      "stateMutability": "view",
      "type": "function"
    },
    {
      "inputs": [
        {
          "internalType": "uint256",
          "name": "_score",
          "type": "uint256"
        }
      ],
      "name": "playGame",
      "outputs": [],
      "stateMutability": "nonpayable",
      "type": "function"
    },
    {
      "inputs": [
        {
          "internalType": "address",
          "name": "",
          "type": "address"
        }
      ],
      "name": "players",
      "outputs": [
        {
          "internalType": "uint256",
          "name": "score",
          "type": "uint256"
        },
        {
          "internalType": "uint256",
          "name": "rewards",
          "type": "uint256"
        },
        {
          "internalType": "uint256",
          "name": "level",
          "type": "uint256"
        }
      ],
      "stateMutability": "view",
      "type": "function"
    },
    {
      "inputs": [
        {
          "internalType": "uint256",
          "name": "_itemId",
          "type": "uint256"
        }
      ],
      "name": "purchaseItem",
      "outputs": [],
      "stateMutability": "nonpayable",
      "type": "function"
    },
    {
      "inputs": [],
      "name": "renounceOwnership",
      "outputs": [],
      "stateMutability": "nonpayable",
      "type": "function"
    },
    {
      "inputs": [
        {
          "internalType": "address",
          "name": "from",
          "type": "address"
        },
        {
          "internalType": "address",
          "name": "to",
          "type": "address"
        },
        {
          "internalType": "uint256",
          "name": "tokenId",
          "type": "uint256"
        }
      ],
      "name": "safeTransferFrom",
      "outputs": [],
      "stateMutability": "nonpayable",
      "type": "function"
    },
    {
      "inputs": [
        {
          "internalType": "address",
          "name": "from",
          "type": "address"
        },
        {
          "internalType": "address",
          "name": "to",
          "type": "address"
        },
        {
          "internalType": "uint256",
          "name": "tokenId",
          "type": "uint256"
        },
        {
          "internalType": "bytes",
          "name": "data",
          "type": "bytes"
        }
      ],
      "name": "safeTransferFrom",
      "outputs": [],
      "stateMutability": "nonpayable",
      "type": "function"
    },
    {
      "inputs": [
        {
          "internalType": "address",
          "name": "operator",
          "type": "address"
        },
        {
          "internalType": "bool",
          "name": "approved",
          "type": "bool"
        }
      ],
      "name": "setApprovalForAll",
      "outputs": [],
      "stateMutability": "nonpayable",
      "type": "function"
    },
    {
      "inputs": [
        {
          "internalType": "uint256",
          "name": "_gameCost",
          "type": "uint256"
        }
      ],
      "name": "setGameCost",
      "outputs": [],
      "stateMutability": "nonpayable",
      "type": "function"
    },
    {
      "inputs": [
        {
          "internalType": "uint256",
          "name": "_initialAirdropAmount",
          "type": "uint256"
        }
      ],
      "name": "setInitialAirdropAmount",
      "outputs": [],
      "stateMutability": "nonpayable",
      "type": "function"
    },
    {
      "inputs": [
        {
          "internalType": "uint256",
          "name": "_levelUpScore",
          "type": "uint256"
        }
      ],
      "name": "setLevelUpScore",
      "outputs": [],
      "stateMutability": "nonpayable",
      "type": "function"
    },
    {
      "inputs": [
        {
          "internalType": "bytes4",
          "name": "interfaceId",
          "type": "bytes4"
        }
      ],
      "name": "supportsInterface",
      "outputs": [
        {
          "internalType": "bool",
          "name": "",
          "type": "bool"
        }
      ],
      "stateMutability": "view",
      "type": "function"
    },
    {
      "inputs": [],
      "name": "symbol",
      "outputs": [
        {
          "internalType": "string",
          "name": "",
          "type": "string"
        }
      ],
      "stateMutability": "view",
      "type": "function"
    },
    {
      "inputs": [],
      "name": "token",
      "outputs": [
        {
          "internalType": "contract IERC20",
          "name": "",
          "type": "address"
        }
      ],
      "stateMutability": "view",
      "type": "function"
    },
    {
      "inputs": [
        {
          "internalType": "uint256",
          "name": "tokenId",
          "type": "uint256"
        }
      ],
      "name": "tokenURI",
      "outputs": [
        {
          "internalType": "string",
          "name": "",
          "type": "string"
        }
      ],
      "stateMutability": "view",
      "type": "function"
    },
    {
      "inputs": [
        {
          "internalType": "address",
          "name": "from",
          "type": "address"
        },
        {
          "internalType": "address",
          "name": "to",
          "type": "address"
        },
        {
          "internalType": "uint256",
          "name": "tokenId",
          "type": "uint256"
        }
      ],
      "name": "transferFrom",
      "outputs": [],
      "stateMutability": "nonpayable",
      "type": "function"
    },
    {
      "inputs": [
        {
          "internalType": "address",
          "name": "newOwner",
          "type": "address"
        }
      ],
      "name": "transferOwnership",
      "outputs": [],
      "stateMutability": "nonpayable",
      "type": "function"
    }
  ],
  "bytecode": "0x60806040523480156200001157600080fd5b50604051620048bf380380620048bf833981810160405281019062000037919062000326565b816040518060400160405280600f81526020017f41726361646547616d65546f6b656e00000000000000000000000000000000008152506040518060400160405280600381526020017f41475400000000000000000000000000000000000000000000000000000000008152508160009081620000b59190620005f2565b508060019081620000c79190620005f2565b505050600073ffffffffffffffffffffffffffffffffffffffff168173ffffffffffffffffffffffffffffffffffffffff16036200013f5760006040517f1e4fbdf7000000000000000000000000000000000000000000000000000000008152600401620001369190620006ea565b60405180910390fd5b6200015081620001bb60201b60201c565b5082600760006101000a81548173ffffffffffffffffffffffffffffffffffffffff021916908373ffffffffffffffffffffffffffffffffffffffff16021790555068056bc75e2d63100000600a819055506103e8600b8190555080600c8190555050505062000707565b6000600660009054906101000a900473ffffffffffffffffffffffffffffffffffffffff16905081600660006101000a81548173ffffffffffffffffffffffffffffffffffffffff021916908373ffffffffffffffffffffffffffffffffffffffff1602179055508173ffffffffffffffffffffffffffffffffffffffff168173ffffffffffffffffffffffffffffffffffffffff167f8be0079c531659141344cd1fd0a4f28419497f9722a3daafe3b4186f6b6457e060405160405180910390a35050565b600080fd5b600073ffffffffffffffffffffffffffffffffffffffff82169050919050565b6000620002b38262000286565b9050919050565b620002c581620002a6565b8114620002d157600080fd5b50565b600081519050620002e581620002ba565b92915050565b6000819050919050565b6200030081620002eb565b81146200030c57600080fd5b50565b6000815190506200032081620002f5565b92915050565b60008060006060848603121562000342576200034162000281565b5b60006200035286828701620002d4565b93505060206200036586828701620002d4565b925050604062000378868287016200030f565b9150509250925092565b600081519050919050565b7f4e487b7100000000000000000000000000000000000000000000000000000000600052604160045260246000fd5b7f4e487b7100000000000000000000000000000000000000000000000000000000600052602260045260246000fd5b600060028204905060018216806200040457607f821691505b6020821081036200041a5762000419620003bc565b5b50919050565b60008190508160005260206000209050919050565b60006020601f8301049050919050565b600082821b905092915050565b600060088302620004847fffffffffffffffffffffffffffffffffffffffffffffffffffffffffffffffff8262000445565b62000490868362000445565b95508019841693508086168417925050509392505050565b6000819050919050565b6000620004d3620004cd620004c784620002eb565b620004a8565b620002eb565b9050919050565b6000819050919050565b620004ef83620004b2565b62000507620004fe82620004da565b84845462000452565b825550505050565b600090565b6200051e6200050f565b6200052b818484620004e4565b505050565b5b8181101562000553576200054760008262000514565b60018101905062000531565b5050565b601f821115620005a2576200056c8162000420565b620005778462000435565b8101602085101562000587578190505b6200059f620005968562000435565b83018262000530565b50505b505050565b600082821c905092915050565b6000620005c760001984600802620005a7565b1980831691505092915050565b6000620005e28383620005b4565b9150826002028217905092915050565b620005fd8262000382565b67ffffffffffffffff8111156200061957620006186200038d565b5b620006258254620003eb565b6200063282828562000557565b600060209050601f8311600181146200066a576000841562000655578287015190505b620006618582620005d4565b865550620006d1565b601f1984166200067a8662000420565b60005b82811015620006a4578489015182556001820191506020850194506020810190506200067d565b86831015620006c45784890151620006c0601f891682620005b4565b8355505b6001600288020188555050505b505050505050565b620006e481620002a6565b82525050565b6000602082019050620007016000830184620006d9565b92915050565b6141a880620007176000396000f3fe608060405234801561001057600080fd5b50600436106102065760003560e01c80637f17b79d1161011a578063c87b56dd116100ad578063e2eb41ff1161007c578063e2eb41ff146105af578063e7804338146105e1578063e985e9c5146105ff578063f2fde38b1461062f578063fc0c546a1461064b57610206565b8063c87b56dd14610515578063c8dd6ce714610545578063cab896dc14610575578063d38ea5bf1461059357610206565b8063affc55c0116100e9578063affc55c014610479578063b88d4fde14610497578063bbd94c2f146104b3578063bfb231d2146104e357610206565b80637f17b79d146104055780638da5cb5b1461042157806395d89b411461043f578063a22cb4651461045d57610206565b8063372500ab1161019d57806362d6bbdf1161016c57806362d6bbdf146103635780636352211e1461037f57806370a08231146103af57806370ca3b16146103df578063715018a6146103fb57610206565b8063372500ab14610303578063410d59cc1461030d57806342842e0e1461032b5780635873533d1461034757610206565b8063095ea7b3116101d9578063095ea7b3146102a5578063139652e4146102c157806314f710fe146102dd57806323b872dd146102e757610206565b806301ffc9a71461020b57806306fdde031461023b578063081812fc146102595780630931a4d114610289575b600080fd5b61022560048036038101906102209190612d64565b610669565b6040516102329190612dac565b60405180910390f35b61024361074b565b6040516102509190612e57565b60405180910390f35b610273600480360381019061026e9190612eaf565b6107dd565b6040516102809190612f1d565b60405180910390f35b6102a3600480360381019061029e9190612eaf565b6107f9565b005b6102bf60048036038101906102ba9190612f64565b61080b565b005b6102db60048036038101906102d69190612fa4565b610821565b005b6102e5610ad7565b005b61030160048036038101906102fc9190612fd1565b610b4e565b005b61030b610c50565b005b610315610e1a565b604051610322919061318f565b60405180910390f35b61034560048036038101906103409190612fd1565b610f8b565b005b610361600480360381019061035c9190612eaf565b610fab565b005b61037d600480360381019061037891906132e6565b6112eb565b005b61039960048036038101906103949190612eaf565b6113a5565b6040516103a69190612f1d565b60405180910390f35b6103c960048036038101906103c49190612fa4565b6113b7565b6040516103d69190613351565b60405180910390f35b6103f960048036038101906103f49190612eaf565b611471565b005b610403611483565b005b61041f600480360381019061041a9190612eaf565b611497565b005b6104296114a9565b6040516104369190612f1d565b60405180910390f35b6104476114d3565b6040516104549190612e57565b60405180910390f35b61047760048036038101906104729190613398565b611565565b005b61048161157b565b60405161048e9190613351565b60405180910390f35b6104b160048036038101906104ac9190613479565b611581565b005b6104cd60048036038101906104c89190612eaf565b61159e565b6040516104da9190612f1d565b60405180910390f35b6104fd60048036038101906104f89190612eaf565b6115d1565b60405161050c939291906134fc565b60405180910390f35b61052f600480360381019061052a9190612eaf565b611683565b60405161053c9190612e57565b60405180910390f35b61055f600480360381019061055a9190612fa4565b6116ec565b60405161056c919061364c565b60405180910390f35b61057d6118dd565b60405161058a9190613351565b60405180910390f35b6105ad60048036038101906105a89190612eaf565b6118e3565b005b6105c960048036038101906105c49190612fa4565b611c23565b6040516105d89392919061366e565b60405180910390f35b6105e9611c4d565b6040516105f69190613351565b60405180910390f35b610619600480360381019061061491906136a5565b611c53565b6040516106269190612dac565b60405180910390f35b61064960048036038101906106449190612fa4565b611ce7565b005b610653611d6d565b6040516106609190613744565b60405180910390f35b60007f80ac58cd000000000000000000000000000000000000000000000000000000007bffffffffffffffffffffffffffffffffffffffffffffffffffffffff1916827bffffffffffffffffffffffffffffffffffffffffffffffffffffffff1916148061073457507f5b5e139f000000000000000000000000000000000000000000000000000000007bffffffffffffffffffffffffffffffffffffffffffffffffffffffff1916827bffffffffffffffffffffffffffffffffffffffffffffffffffffffff1916145b80610744575061074382611d93565b5b9050919050565b60606000805461075a9061378e565b80601f01602080910402602001604051908101604052809291908181526020018280546107869061378e565b80156107d35780601f106107a8576101008083540402835291602001916107d3565b820191906000526020600020905b8154815290600101906020018083116107b657829003601f168201915b5050505050905090565b60006107e882611dfd565b506107f282611e85565b9050919050565b610801611ec2565b80600b8190555050565b61081d8282610818611f49565b611f51565b5050565b6000600d60008373ffffffffffffffffffffffffffffffffffffffff1673ffffffffffffffffffffffffffffffffffffffff168152602001908152602001600020600201541480156108b557506000600d60008373ffffffffffffffffffffffffffffffffffffffff1673ffffffffffffffffffffffffffffffffffffffff16815260200190815260200160002060000154145b801561090357506000600d60008373ffffffffffffffffffffffffffffffffffffffff1673ffffffffffffffffffffffffffffffffffffffff16815260200190815260200160002060010154145b15610ad4576040518060800160405280600081526020016000815260200160018152602001600067ffffffffffffffff811115610943576109426131bb565b5b6040519080825280602002602001820160405280156109715781602001602082028036833780820191505090505b50815250600d60008373ffffffffffffffffffffffffffffffffffffffff1673ffffffffffffffffffffffffffffffffffffffff16815260200190815260200160002060008201518160000155602082015181600101556040820151816002015560608201518160030190805190602001906109ee929190612c45565b50905050600760009054906101000a900473ffffffffffffffffffffffffffffffffffffffff1673ffffffffffffffffffffffffffffffffffffffff1663a9059cbb82600c546040518363ffffffff1660e01b8152600401610a519291906137bf565b6020604051808303816000875af1158015610a70573d6000803e3d6000fd5b505050506040513d601f19601f82011682018060405250810190610a9491906137fd565b610ad3576040517f08c379a0000000000000000000000000000000000000000000000000000000008152600401610aca90613876565b60405180910390fd5b5b50565b6000610ae36009611f63565b9050610aef6009611f71565b610af93382611f87565b33600f600083815260200190815260200160002060006101000a81548173ffffffffffffffffffffffffffffffffffffffff021916908373ffffffffffffffffffffffffffffffffffffffff16021790555050565b600073ffffffffffffffffffffffffffffffffffffffff168273ffffffffffffffffffffffffffffffffffffffff1603610bc05760006040517f64a0ae92000000000000000000000000000000000000000000000000000000008152600401610bb79190612f1d565b60405180910390fd5b6000610bd48383610bcf611f49565b612080565b90508373ffffffffffffffffffffffffffffffffffffffff168173ffffffffffffffffffffffffffffffffffffffff1614610c4a578382826040517f64283d7b000000000000000000000000000000000000000000000000000000008152600401610c4193929190613896565b60405180910390fd5b50505050565b6000600d60003373ffffffffffffffffffffffffffffffffffffffff1673ffffffffffffffffffffffffffffffffffffffff168152602001908152602001600020905060008160010154905060008111610cdf576040517f08c379a0000000000000000000000000000000000000000000000000000000008152600401610cd690613919565b60405180910390fd5b60008260010181905550600760009054906101000a900473ffffffffffffffffffffffffffffffffffffffff1673ffffffffffffffffffffffffffffffffffffffff1663a9059cbb33836040518363ffffffff1660e01b8152600401610d469291906137bf565b6020604051808303816000875af1158015610d65573d6000803e3d6000fd5b505050506040513d601f19601f82011682018060405250810190610d8991906137fd565b610dc8576040517f08c379a0000000000000000000000000000000000000000000000000000000008152600401610dbf90613985565b60405180910390fd5b3373ffffffffffffffffffffffffffffffffffffffff167ffc30cddea38e2bf4d6ea7d3f9ed3b6ad7f176419f4963bd81318067a4aee73fe82604051610e0e9190613351565b60405180910390a25050565b60606000610e286008611f63565b905060008167ffffffffffffffff811115610e4657610e456131bb565b5b604051908082528060200260200182016040528015610e7f57816020015b610e6c612c92565b815260200190600190039081610e645790505b50905060005b82811015610f8257600e600082815260200190815260200160002060405180606001604052908160008201548152602001600182018054610ec59061378e565b80601f0160208091040260200160405190810160405280929190818152602001828054610ef19061378e565b8015610f3e5780601f10610f1357610100808354040283529160200191610f3e565b820191906000526020600020905b815481529060010190602001808311610f2157829003601f168201915b50505050508152602001600282015481525050828281518110610f6457610f636139a5565b5b60200260200101819052508080610f7a90613a03565b915050610e85565b50809250505090565b610fa683838360405180602001604052806000815250611581565b505050565b600a54600760009054906101000a900473ffffffffffffffffffffffffffffffffffffffff1673ffffffffffffffffffffffffffffffffffffffff166370a08231336040518263ffffffff1660e01b81526004016110099190612f1d565b602060405180830381865afa158015611026573d6000803e3d6000fd5b505050506040513d601f19601f8201168201806040525081019061104a9190613a60565b101561108b576040517f08c379a000000000000000000000000000000000000000000000000000000000815260040161108290613ad9565b60405180910390fd5b600760009054906101000a900473ffffffffffffffffffffffffffffffffffffffff1673ffffffffffffffffffffffffffffffffffffffff166323b872dd3330600a546040518463ffffffff1660e01b81526004016110ec93929190613af9565b6020604051808303816000875af115801561110b573d6000803e3d6000fd5b505050506040513d601f19601f8201168201806040525081019061112f91906137fd565b61116e576040517f08c379a000000000000000000000000000000000000000000000000000000000815260040161116590613b7c565b60405180910390fd5b61117733610821565b6000600d60003373ffffffffffffffffffffffffffffffffffffffff1673ffffffffffffffffffffffffffffffffffffffff1681526020019081526020016000209050818160000160008282546111ce9190613b9c565b92505081905550600a826111e29190613bff565b8160010160008282546111f59190613b9c565b92505081905550600b548160000154106112935780600201600081548092919061121e90613a03565b9190505550600b548160000160008282546112399190613c30565b925050819055503373ffffffffffffffffffffffffffffffffffffffff167f91e51c29e7e87a74ad3b8ccba98538970f50a4309242735467f41e27c6b0fbac826002015460405161128a9190613351565b60405180910390a25b3373ffffffffffffffffffffffffffffffffffffffff167f24b31e1dbf1732a12bb700d3d77e5fb96ff3b693374d9fa15ccbc03f427150768383600201546040516112df929190613c64565b60405180910390a25050565b6112f3611ec2565b60006112ff6008611f63565b905061130b6008611f71565b604051806060016040528082815260200184815260200183815250600e60008381526020019081526020016000206000820151816000015560208201518160010190816113589190613e2f565b5060408201518160020155905050807f0444434676a57f70f8479401c50fb4add3e31052f88f4b35e155b7759e5968e58484604051611398929190613f01565b60405180910390a2505050565b60006113b082611dfd565b9050919050565b60008073ffffffffffffffffffffffffffffffffffffffff168273ffffffffffffffffffffffffffffffffffffffff160361142a5760006040517f89c62b640000000000000000000000000000000000000000000000000000000081526004016114219190612f1d565b60405180910390fd5b600360008373ffffffffffffffffffffffffffffffffffffffff1673ffffffffffffffffffffffffffffffffffffffff168152602001908152602001600020549050919050565b611479611ec2565b80600c8190555050565b61148b611ec2565b611495600061229a565b565b61149f611ec2565b80600a8190555050565b6000600660009054906101000a900473ffffffffffffffffffffffffffffffffffffffff16905090565b6060600180546114e29061378e565b80601f016020809104026020016040519081016040528092919081815260200182805461150e9061378e565b801561155b5780601f106115305761010080835404028352916020019161155b565b820191906000526020600020905b81548152906001019060200180831161153e57829003601f168201915b5050505050905090565b611577611570611f49565b8383612360565b5050565b600b5481565b61158c848484610b4e565b611598848484846124cf565b50505050565b600f6020528060005260406000206000915054906101000a900473ffffffffffffffffffffffffffffffffffffffff1681565b600e6020528060005260406000206000915090508060000154908060010180546115fa9061378e565b80601f01602080910402602001604051908101604052809291908181526020018280546116269061378e565b80156116735780601f1061164857610100808354040283529160200191611673565b820191906000526020600020905b81548152906001019060200180831161165657829003601f168201915b5050505050908060020154905083565b606061168e82611dfd565b506000611699612686565b905060008151116116b957604051806020016040528060008152506116e4565b806116c38461269d565b6040516020016116d4929190613f6d565b6040516020818303038152906040525b915050919050565b6116f4612cb3565b6000600d60008473ffffffffffffffffffffffffffffffffffffffff1673ffffffffffffffffffffffffffffffffffffffff1681526020019081526020016000206002015414158061178957506000600d60008473ffffffffffffffffffffffffffffffffffffffff1673ffffffffffffffffffffffffffffffffffffffff1681526020019081526020016000206000015414155b806117d757506000600d60008473ffffffffffffffffffffffffffffffffffffffff1673ffffffffffffffffffffffffffffffffffffffff1681526020019081526020016000206001015414155b611816576040517f08c379a000000000000000000000000000000000000000000000000000000000815260040161180d90613fdd565b60405180910390fd5b600d60008373ffffffffffffffffffffffffffffffffffffffff1673ffffffffffffffffffffffffffffffffffffffff168152602001908152602001600020604051806080016040529081600082015481526020016001820154815260200160028201548152602001600382018054806020026020016040519081016040528092919081815260200182805480156118cd57602002820191906000526020600020905b8154815260200190600101908083116118b9575b5050505050815250509050919050565b600a5481565b6000600e60008381526020019081526020016000206040518060600160405290816000820154815260200160018201805461191d9061378e565b80601f01602080910402602001604051908101604052809291908181526020018280546119499061378e565b80156119965780601f1061196b57610100808354040283529160200191611996565b820191906000526020600020905b81548152906001019060200180831161197957829003601f168201915b5050505050815260200160028201548152505090508060400151600760009054906101000a900473ffffffffffffffffffffffffffffffffffffffff1673ffffffffffffffffffffffffffffffffffffffff166370a08231336040518263ffffffff1660e01b8152600401611a0b9190612f1d565b602060405180830381865afa158015611a28573d6000803e3d6000fd5b505050506040513d601f19601f82011682018060405250810190611a4c9190613a60565b1015611a8d576040517f08c379a0000000000000000000000000000000000000000000000000000000008152600401611a849061406f565b60405180910390fd5b600760009054906101000a900473ffffffffffffffffffffffffffffffffffffffff1673ffffffffffffffffffffffffffffffffffffffff166323b872dd333084604001516040518463ffffffff1660e01b8152600401611af093929190613af9565b6020604051808303816000875af1158015611b0f573d6000803e3d6000fd5b505050506040513d601f19601f82011682018060405250810190611b3391906137fd565b611b72576040517f08c379a0000000000000000000000000000000000000000000000000000000008152600401611b6990613b7c565b60405180910390fd5b600d60003373ffffffffffffffffffffffffffffffffffffffff1673ffffffffffffffffffffffffffffffffffffffff168152602001908152602001600020600301829080600181540180825580915050600190039060005260206000200160009091909190915055813373ffffffffffffffffffffffffffffffffffffffff167f792fe07c0f3ce4ef42df79c4a2b07925168cddbaabf7a7ef1351f027a376031360405160405180910390a35050565b600d6020528060005260406000206000915090508060000154908060010154908060020154905083565b600c5481565b6000600560008473ffffffffffffffffffffffffffffffffffffffff1673ffffffffffffffffffffffffffffffffffffffff16815260200190815260200160002060008373ffffffffffffffffffffffffffffffffffffffff1673ffffffffffffffffffffffffffffffffffffffff16815260200190815260200160002060009054906101000a900460ff16905092915050565b611cef611ec2565b600073ffffffffffffffffffffffffffffffffffffffff168173ffffffffffffffffffffffffffffffffffffffff1603611d615760006040517f1e4fbdf7000000000000000000000000000000000000000000000000000000008152600401611d589190612f1d565b60405180910390fd5b611d6a8161229a565b50565b600760009054906101000a900473ffffffffffffffffffffffffffffffffffffffff1681565b60007f01ffc9a7000000000000000000000000000000000000000000000000000000007bffffffffffffffffffffffffffffffffffffffffffffffffffffffff1916827bffffffffffffffffffffffffffffffffffffffffffffffffffffffff1916149050919050565b600080611e098361276b565b9050600073ffffffffffffffffffffffffffffffffffffffff168173ffffffffffffffffffffffffffffffffffffffff1603611e7c57826040517f7e273289000000000000000000000000000000000000000000000000000000008152600401611e739190613351565b60405180910390fd5b80915050919050565b60006004600083815260200190815260200160002060009054906101000a900473ffffffffffffffffffffffffffffffffffffffff169050919050565b611eca611f49565b73ffffffffffffffffffffffffffffffffffffffff16611ee86114a9565b73ffffffffffffffffffffffffffffffffffffffff1614611f4757611f0b611f49565b6040517f118cdaa7000000000000000000000000000000000000000000000000000000008152600401611f3e9190612f1d565b60405180910390fd5b565b600033905090565b611f5e83838360016127a8565b505050565b600081600001549050919050565b6001816000016000828254019250508190555050565b600073ffffffffffffffffffffffffffffffffffffffff168273ffffffffffffffffffffffffffffffffffffffff1603611ff95760006040517f64a0ae92000000000000000000000000000000000000000000000000000000008152600401611ff09190612f1d565b60405180910390fd5b600061200783836000612080565b9050600073ffffffffffffffffffffffffffffffffffffffff168173ffffffffffffffffffffffffffffffffffffffff161461207b5760006040517f73c6ac6e0000000000000000000000000000000000000000000000000000000081526004016120729190612f1d565b60405180910390fd5b505050565b60008061208c8461276b565b9050600073ffffffffffffffffffffffffffffffffffffffff168373ffffffffffffffffffffffffffffffffffffffff16146120ce576120cd81848661296d565b5b600073ffffffffffffffffffffffffffffffffffffffff168173ffffffffffffffffffffffffffffffffffffffff161461215f576121106000856000806127a8565b6001600360008373ffffffffffffffffffffffffffffffffffffffff1673ffffffffffffffffffffffffffffffffffffffff168152602001908152602001600020600082825403925050819055505b600073ffffffffffffffffffffffffffffffffffffffff168573ffffffffffffffffffffffffffffffffffffffff16146121e2576001600360008773ffffffffffffffffffffffffffffffffffffffff1673ffffffffffffffffffffffffffffffffffffffff168152602001908152602001600020600082825401925050819055505b846002600086815260200190815260200160002060006101000a81548173ffffffffffffffffffffffffffffffffffffffff021916908373ffffffffffffffffffffffffffffffffffffffff160217905550838573ffffffffffffffffffffffffffffffffffffffff168273ffffffffffffffffffffffffffffffffffffffff167fddf252ad1be2c89b69c2b068fc378daa952ba7f163c4a11628f55a4df523b3ef60405160405180910390a4809150509392505050565b6000600660009054906101000a900473ffffffffffffffffffffffffffffffffffffffff16905081600660006101000a81548173ffffffffffffffffffffffffffffffffffffffff021916908373ffffffffffffffffffffffffffffffffffffffff1602179055508173ffffffffffffffffffffffffffffffffffffffff168173ffffffffffffffffffffffffffffffffffffffff167f8be0079c531659141344cd1fd0a4f28419497f9722a3daafe3b4186f6b6457e060405160405180910390a35050565b600073ffffffffffffffffffffffffffffffffffffffff168273ffffffffffffffffffffffffffffffffffffffff16036123d157816040517f5b08ba180000000000000000000000000000000000000000000000000000000081526004016123c89190612f1d565b60405180910390fd5b80600560008573ffffffffffffffffffffffffffffffffffffffff1673ffffffffffffffffffffffffffffffffffffffff16815260200190815260200160002060008473ffffffffffffffffffffffffffffffffffffffff1673ffffffffffffffffffffffffffffffffffffffff16815260200190815260200160002060006101000a81548160ff0219169083151502179055508173ffffffffffffffffffffffffffffffffffffffff168373ffffffffffffffffffffffffffffffffffffffff167f17307eab39ab6107e8899845ad3d59bd9653f200f220920489ca2b5937696c31836040516124c29190612dac565b60405180910390a3505050565b60008373ffffffffffffffffffffffffffffffffffffffff163b1115612680578273ffffffffffffffffffffffffffffffffffffffff1663150b7a02612513611f49565b8685856040518563ffffffff1660e01b815260040161253594939291906140e4565b6020604051808303816000875af192505050801561257157506040513d601f19601f8201168201806040525081019061256e9190614145565b60015b6125f5573d80600081146125a1576040519150601f19603f3d011682016040523d82523d6000602084013e6125a6565b606091505b5060008151036125ed57836040517f64a0ae920000000000000000000000000000000000000000000000000000000081526004016125e49190612f1d565b60405180910390fd5b805181602001fd5b63150b7a0260e01b7bffffffffffffffffffffffffffffffffffffffffffffffffffffffff1916817bffffffffffffffffffffffffffffffffffffffffffffffffffffffff19161461267e57836040517f64a0ae920000000000000000000000000000000000000000000000000000000081526004016126759190612f1d565b60405180910390fd5b505b50505050565b606060405180602001604052806000815250905090565b6060600060016126ac84612a31565b01905060008167ffffffffffffffff8111156126cb576126ca6131bb565b5b6040519080825280601f01601f1916602001820160405280156126fd5781602001600182028036833780820191505090505b509050600082602001820190505b600115612760578080600190039150507f3031323334353637383961626364656600000000000000000000000000000000600a86061a8153600a858161275457612753613bd0565b5b0494506000850361270b575b819350505050919050565b60006002600083815260200190815260200160002060009054906101000a900473ffffffffffffffffffffffffffffffffffffffff169050919050565b80806127e15750600073ffffffffffffffffffffffffffffffffffffffff168273ffffffffffffffffffffffffffffffffffffffff1614155b156129155760006127f184611dfd565b9050600073ffffffffffffffffffffffffffffffffffffffff168373ffffffffffffffffffffffffffffffffffffffff161415801561285c57508273ffffffffffffffffffffffffffffffffffffffff168173ffffffffffffffffffffffffffffffffffffffff1614155b801561286f575061286d8184611c53565b155b156128b157826040517fa9fbf51f0000000000000000000000000000000000000000000000000000000081526004016128a89190612f1d565b60405180910390fd5b811561291357838573ffffffffffffffffffffffffffffffffffffffff168273ffffffffffffffffffffffffffffffffffffffff167f8c5be1e5ebec7d5bd14f71427d1e84f3dd0314c0f7b2291e5b200ac8c7c3b92560405160405180910390a45b505b836004600085815260200190815260200160002060006101000a81548173ffffffffffffffffffffffffffffffffffffffff021916908373ffffffffffffffffffffffffffffffffffffffff16021790555050505050565b612978838383612b84565b612a2c57600073ffffffffffffffffffffffffffffffffffffffff168373ffffffffffffffffffffffffffffffffffffffff16036129ed57806040517f7e2732890000000000000000000000000000000000000000000000000000000081526004016129e49190613351565b60405180910390fd5b81816040517f177e802f000000000000000000000000000000000000000000000000000000008152600401612a239291906137bf565b60405180910390fd5b505050565b600080600090507a184f03e93ff9f4daa797ed6e38ed64bf6a1f0100000000000000008310612a8f577a184f03e93ff9f4daa797ed6e38ed64bf6a1f0100000000000000008381612a8557612a84613bd0565b5b0492506040810190505b6d04ee2d6d415b85acef81000000008310612acc576d04ee2d6d415b85acef81000000008381612ac257612ac1613bd0565b5b0492506020810190505b662386f26fc100008310612afb57662386f26fc100008381612af157612af0613bd0565b5b0492506010810190505b6305f5e1008310612b24576305f5e1008381612b1a57612b19613bd0565b5b0492506008810190505b6127108310612b49576127108381612b3f57612b3e613bd0565b5b0492506004810190505b60648310612b6c5760648381612b6257612b61613bd0565b5b0492506002810190505b600a8310612b7b576001810190505b80915050919050565b60008073ffffffffffffffffffffffffffffffffffffffff168373ffffffffffffffffffffffffffffffffffffffff1614158015612c3c57508273ffffffffffffffffffffffffffffffffffffffff168473ffffffffffffffffffffffffffffffffffffffff161480612bfd5750612bfc8484611c53565b5b80612c3b57508273ffffffffffffffffffffffffffffffffffffffff16612c2383611e85565b73ffffffffffffffffffffffffffffffffffffffff16145b5b90509392505050565b828054828255906000526020600020908101928215612c81579160200282015b82811115612c80578251825591602001919060010190612c65565b5b509050612c8e9190612cdb565b5090565b60405180606001604052806000815260200160608152602001600081525090565b6040518060800160405280600081526020016000815260200160008152602001606081525090565b5b80821115612cf4576000816000905550600101612cdc565b5090565b6000604051905090565b600080fd5b600080fd5b60007fffffffff0000000000000000000000000000000000000000000000000000000082169050919050565b612d4181612d0c565b8114612d4c57600080fd5b50565b600081359050612d5e81612d38565b92915050565b600060208284031215612d7a57612d79612d02565b5b6000612d8884828501612d4f565b91505092915050565b60008115159050919050565b612da681612d91565b82525050565b6000602082019050612dc16000830184612d9d565b92915050565b600081519050919050565b600082825260208201905092915050565b60005b83811015612e01578082015181840152602081019050612de6565b60008484015250505050565b6000601f19601f8301169050919050565b6000612e2982612dc7565b612e338185612dd2565b9350612e43818560208601612de3565b612e4c81612e0d565b840191505092915050565b60006020820190508181036000830152612e718184612e1e565b905092915050565b6000819050919050565b612e8c81612e79565b8114612e9757600080fd5b50565b600081359050612ea981612e83565b92915050565b600060208284031215612ec557612ec4612d02565b5b6000612ed384828501612e9a565b91505092915050565b600073ffffffffffffffffffffffffffffffffffffffff82169050919050565b6000612f0782612edc565b9050919050565b612f1781612efc565b82525050565b6000602082019050612f326000830184612f0e565b92915050565b612f4181612efc565b8114612f4c57600080fd5b50565b600081359050612f5e81612f38565b92915050565b60008060408385031215612f7b57612f7a612d02565b5b6000612f8985828601612f4f565b9250506020612f9a85828601612e9a565b9150509250929050565b600060208284031215612fba57612fb9612d02565b5b6000612fc884828501612f4f565b91505092915050565b600080600060608486031215612fea57612fe9612d02565b5b6000612ff886828701612f4f565b935050602061300986828701612f4f565b925050604061301a86828701612e9a565b9150509250925092565b600081519050919050565b600082825260208201905092915050565b6000819050602082019050919050565b61305981612e79565b82525050565b600082825260208201905092915050565b600061307b82612dc7565b613085818561305f565b9350613095818560208601612de3565b61309e81612e0d565b840191505092915050565b60006060830160008301516130c16000860182613050565b50602083015184820360208601526130d98282613070565b91505060408301516130ee6040860182613050565b508091505092915050565b600061310583836130a9565b905092915050565b6000602082019050919050565b600061312582613024565b61312f818561302f565b93508360208202850161314185613040565b8060005b8581101561317d578484038952815161315e85826130f9565b94506131698361310d565b925060208a01995050600181019050613145565b50829750879550505050505092915050565b600060208201905081810360008301526131a9818461311a565b905092915050565b600080fd5b600080fd5b7f4e487b7100000000000000000000000000000000000000000000000000000000600052604160045260246000fd5b6131f382612e0d565b810181811067ffffffffffffffff82111715613212576132116131bb565b5b80604052505050565b6000613225612cf8565b905061323182826131ea565b919050565b600067ffffffffffffffff821115613251576132506131bb565b5b61325a82612e0d565b9050602081019050919050565b82818337600083830152505050565b600061328961328484613236565b61321b565b9050828152602081018484840111156132a5576132a46131b6565b5b6132b0848285613267565b509392505050565b600082601f8301126132cd576132cc6131b1565b5b81356132dd848260208601613276565b91505092915050565b600080604083850312156132fd576132fc612d02565b5b600083013567ffffffffffffffff81111561331b5761331a612d07565b5b613327858286016132b8565b925050602061333885828601612e9a565b9150509250929050565b61334b81612e79565b82525050565b60006020820190506133666000830184613342565b92915050565b61337581612d91565b811461338057600080fd5b50565b6000813590506133928161336c565b92915050565b600080604083850312156133af576133ae612d02565b5b60006133bd85828601612f4f565b92505060206133ce85828601613383565b9150509250929050565b600067ffffffffffffffff8211156133f3576133f26131bb565b5b6133fc82612e0d565b9050602081019050919050565b600061341c613417846133d8565b61321b565b905082815260208101848484011115613438576134376131b6565b5b613443848285613267565b509392505050565b600082601f8301126134605761345f6131b1565b5b8135613470848260208601613409565b91505092915050565b6000806000806080858703121561349357613492612d02565b5b60006134a187828801612f4f565b94505060206134b287828801612f4f565b93505060406134c387828801612e9a565b925050606085013567ffffffffffffffff8111156134e4576134e3612d07565b5b6134f08782880161344b565b91505092959194509250565b60006060820190506135116000830186613342565b81810360208301526135238185612e1e565b90506135326040830184613342565b949350505050565b600081519050919050565b600082825260208201905092915050565b6000819050602082019050919050565b60006135728383613050565b60208301905092915050565b6000602082019050919050565b60006135968261353a565b6135a08185613545565b93506135ab83613556565b8060005b838110156135dc5781516135c38882613566565b97506135ce8361357e565b9250506001810190506135af565b5085935050505092915050565b60006080830160008301516136016000860182613050565b5060208301516136146020860182613050565b5060408301516136276040860182613050565b506060830151848203606086015261363f828261358b565b9150508091505092915050565b6000602082019050818103600083015261366681846135e9565b905092915050565b60006060820190506136836000830186613342565b6136906020830185613342565b61369d6040830184613342565b949350505050565b600080604083850312156136bc576136bb612d02565b5b60006136ca85828601612f4f565b92505060206136db85828601612f4f565b9150509250929050565b6000819050919050565b600061370a61370561370084612edc565b6136e5565b612edc565b9050919050565b600061371c826136ef565b9050919050565b600061372e82613711565b9050919050565b61373e81613723565b82525050565b60006020820190506137596000830184613735565b92915050565b7f4e487b7100000000000000000000000000000000000000000000000000000000600052602260045260246000fd5b600060028204905060018216806137a657607f821691505b6020821081036137b9576137b861375f565b5b50919050565b60006040820190506137d46000830185612f0e565b6137e16020830184613342565b9392505050565b6000815190506137f78161336c565b92915050565b60006020828403121561381357613812612d02565b5b6000613821848285016137e8565b91505092915050565b7f41697264726f70206661696c6564000000000000000000000000000000000000600082015250565b6000613860600e83612dd2565b915061386b8261382a565b602082019050919050565b6000602082019050818103600083015261388f81613853565b9050919050565b60006060820190506138ab6000830186612f0e565b6138b86020830185613342565b6138c56040830184612f0e565b949350505050565b7f4e6f207265776172647320746f20636c61696d00000000000000000000000000600082015250565b6000613903601383612dd2565b915061390e826138cd565b602082019050919050565b60006020820190508181036000830152613932816138f6565b9050919050565b7f526577617264207472616e73666572206661696c656400000000000000000000600082015250565b600061396f601683612dd2565b915061397a82613939565b602082019050919050565b6000602082019050818103600083015261399e81613962565b9050919050565b7f4e487b7100000000000000000000000000000000000000000000000000000000600052603260045260246000fd5b7f4e487b7100000000000000000000000000000000000000000000000000000000600052601160045260246000fd5b6000613a0e82612e79565b91507fffffffffffffffffffffffffffffffffffffffffffffffffffffffffffffffff8203613a4057613a3f6139d4565b5b600182019050919050565b600081519050613a5a81612e83565b92915050565b600060208284031215613a7657613a75612d02565b5b6000613a8484828501613a4b565b91505092915050565b7f496e73756666696369656e7420746f6b656e7320746f20706c61790000000000600082015250565b6000613ac3601b83612dd2565b9150613ace82613a8d565b602082019050919050565b60006020820190508181036000830152613af281613ab6565b9050919050565b6000606082019050613b0e6000830186612f0e565b613b1b6020830185612f0e565b613b286040830184613342565b949350505050565b7f546f6b656e207472616e73666572206661696c65640000000000000000000000600082015250565b6000613b66601583612dd2565b9150613b7182613b30565b602082019050919050565b60006020820190508181036000830152613b9581613b59565b9050919050565b6000613ba782612e79565b9150613bb283612e79565b9250828201905080821115613bca57613bc96139d4565b5b92915050565b7f4e487b7100000000000000000000000000000000000000000000000000000000600052601260045260246000fd5b6000613c0a82612e79565b9150613c1583612e79565b925082613c2557613c24613bd0565b5b828204905092915050565b6000613c3b82612e79565b9150613c4683612e79565b9250828203905081811115613c5e57613c5d6139d4565b5b92915050565b6000604082019050613c796000830185613342565b613c866020830184613342565b9392505050565b60008190508160005260206000209050919050565b60006020601f8301049050919050565b600082821b905092915050565b600060088302613cef7fffffffffffffffffffffffffffffffffffffffffffffffffffffffffffffffff82613cb2565b613cf98683613cb2565b95508019841693508086168417925050509392505050565b6000613d2c613d27613d2284612e79565b6136e5565b612e79565b9050919050565b6000819050919050565b613d4683613d11565b613d5a613d5282613d33565b848454613cbf565b825550505050565b600090565b613d6f613d62565b613d7a818484613d3d565b505050565b5b81811015613d9e57613d93600082613d67565b600181019050613d80565b5050565b601f821115613de357613db481613c8d565b613dbd84613ca2565b81016020851015613dcc578190505b613de0613dd885613ca2565b830182613d7f565b50505b505050565b600082821c905092915050565b6000613e0660001984600802613de8565b1980831691505092915050565b6000613e1f8383613df5565b9150826002028217905092915050565b613e3882612dc7565b67ffffffffffffffff811115613e5157613e506131bb565b5b613e5b825461378e565b613e66828285613da2565b600060209050601f831160018114613e995760008415613e87578287015190505b613e918582613e13565b865550613ef9565b601f198416613ea786613c8d565b60005b82811015613ecf57848901518255600182019150602085019450602081019050613eaa565b86831015613eec5784890151613ee8601f891682613df5565b8355505b6001600288020188555050505b505050505050565b60006040820190508181036000830152613f1b8185612e1e565b9050613f2a6020830184613342565b9392505050565b600081905092915050565b6000613f4782612dc7565b613f518185613f31565b9350613f61818560208601612de3565b80840191505092915050565b6000613f798285613f3c565b9150613f858284613f3c565b91508190509392505050565b7f506c61796572206e6f7420696e697469616c697a656400000000000000000000600082015250565b6000613fc7601683612dd2565b9150613fd282613f91565b602082019050919050565b60006020820190508181036000830152613ff681613fba565b9050919050565b7f496e73756666696369656e7420746f6b656e7320746f2070757263686173652060008201527f6974656d00000000000000000000000000000000000000000000000000000000602082015250565b6000614059602483612dd2565b915061406482613ffd565b604082019050919050565b600060208201905081810360008301526140888161404c565b9050919050565b600081519050919050565b600082825260208201905092915050565b60006140b68261408f565b6140c0818561409a565b93506140d0818560208601612de3565b6140d981612e0d565b840191505092915050565b60006080820190506140f96000830187612f0e565b6141066020830186612f0e565b6141136040830185613342565b818103606083015261412581846140ab565b905095945050505050565b60008151905061413f81612d38565b92915050565b60006020828403121561415b5761415a612d02565b5b600061416984828501614130565b9150509291505056fea264697066735822122009cc9a057aaed3ab9f60a7447aa166fb02f0726f249efe39092d8f09b23fce5464736f6c63430008140033",
  "linkReferences": {},
  "deployedLinkReferences": {}
}