{
  "_format": "hh-sol-artifact-1",
  "contractName": "ArcadeGame",
  "sourceName": "contracts/ArcadeGame.sol",
  "abi": [
    {
      "inputs": [
        {
          "internalType": "address",
          "name": "_token",
          "type": "address"
        },
        {
          "internalType": "address",
          "name": "_initialOwner",
          "type": "address"
        },
        {
          "internalType": "uint256",
          "name": "_initialAirdropAmount",
          "type": "uint256"
        }
      ],
      "stateMutability": "nonpayable",
      "type": "constructor"
    },
    {
      "inputs": [
        {
          "internalType": "address",
          "name": "sender",
          "type": "address"
        },
        {
          "internalType": "uint256",
          "name": "tokenId",
          "type": "uint256"
        },
        {
          "internalType": "address",
          "name": "owner",
          "type": "address"
        }
      ],
      "name": "ERC721IncorrectOwner",
      "type": "error"
    },
    {
      "inputs": [
        {
          "internalType": "address",
          "name": "operator",
          "type": "address"
        },
        {
          "internalType": "uint256",
          "name": "tokenId",
          "type": "uint256"
        }
      ],
      "name": "ERC721InsufficientApproval",
      "type": "error"
    },
    {
      "inputs": [
        {
          "internalType": "address",
          "name": "approver",
          "type": "address"
        }
      ],
      "name": "ERC721InvalidApprover",
      "type": "error"
    },
    {
      "inputs": [
        {
          "internalType": "address",
          "name": "operator",
          "type": "address"
        }
      ],
      "name": "ERC721InvalidOperator",
      "type": "error"
    },
    {
      "inputs": [
        {
          "internalType": "address",
          "name": "owner",
          "type": "address"
        }
      ],
      "name": "ERC721InvalidOwner",
      "type": "error"
    },
    {
      "inputs": [
        {
          "internalType": "address",
          "name": "receiver",
          "type": "address"
        }
      ],
      "name": "ERC721InvalidReceiver",
      "type": "error"
    },
    {
      "inputs": [
        {
          "internalType": "address",
          "name": "sender",
          "type": "address"
        }
      ],
      "name": "ERC721InvalidSender",
      "type": "error"
    },
    {
      "inputs": [
        {
          "internalType": "uint256",
          "name": "tokenId",
          "type": "uint256"
        }
      ],
      "name": "ERC721NonexistentToken",
      "type": "error"
    },
    {
      "inputs": [
        {
          "internalType": "address",
          "name": "owner",
          "type": "address"
        }
      ],
      "name": "OwnableInvalidOwner",
      "type": "error"
    },
    {
      "inputs": [
        {
          "internalType": "address",
          "name": "account",
          "type": "address"
        }
      ],
      "name": "OwnableUnauthorizedAccount",
      "type": "error"
    },
    {
      "anonymous": false,
      "inputs": [
        {
          "indexed": true,
          "internalType": "address",
          "name": "owner",
          "type": "address"
        },
        {
          "indexed": true,
          "internalType": "address",
          "name": "approved",
          "type": "address"
        },
        {
          "indexed": true,
          "internalType": "uint256",
          "name": "tokenId",
          "type": "uint256"
        }
      ],
      "name": "Approval",
      "type": "event"
    },
    {
      "anonymous": false,
      "inputs": [
        {
          "indexed": true,
          "internalType": "address",
          "name": "owner",
          "type": "address"
        },
        {
          "indexed": true,
          "internalType": "address",
          "name": "operator",
          "type": "address"
        },
        {
          "indexed": false,
          "internalType": "bool",
          "name": "approved",
          "type": "bool"
        }
      ],
      "name": "ApprovalForAll",
      "type": "event"
    },
    {
      "anonymous": false,
      "inputs": [
        {
          "indexed": true,
          "internalType": "address",
          "name": "player",
          "type": "address"
        },
        {
          "indexed": false,
          "internalType": "uint256",
          "name": "score",
          "type": "uint256"
        },
        {
          "indexed": false,
          "internalType": "uint256",
          "name": "level",
          "type": "uint256"
        }
      ],
      "name": "GamePlayed",
      "type": "event"
    },
    {
      "anonymous": false,
      "inputs": [
        {
          "indexed": true,
          "internalType": "uint256",
          "name": "itemId",
          "type": "uint256"
        },
        {
          "indexed": false,
          "internalType": "string",
          "name": "name",
          "type": "string"
        },
        {
          "indexed": false,
          "internalType": "uint256",
          "name": "power",
          "type": "uint256"
        }
      ],
      "name": "ItemAdded",
      "type": "event"
    },
    {
      "anonymous": false,
      "inputs": [
        {
          "indexed": true,
          "internalType": "address",
          "name": "player",
          "type": "address"
        },
        {
          "indexed": true,
          "internalType": "uint256",
          "name": "itemId",
          "type": "uint256"
        }
      ],
      "name": "ItemPurchased",
      "type": "event"
    },
    {
      "anonymous": false,
      "inputs": [
        {
          "indexed": true,
          "internalType": "address",
          "name": "player",
          "type": "address"
        },
        {
          "indexed": false,
          "internalType": "uint256",
          "name": "newLevel",
          "type": "uint256"
        }
      ],
      "name": "LevelUp",
      "type": "event"
    },
    {
      "anonymous": false,
      "inputs": [
        {
          "indexed": true,
          "internalType": "address",
          "name": "previousOwner",
          "type": "address"
        },
        {
          "indexed": true,
          "internalType": "address",
          "name": "newOwner",
          "type": "address"
        }
      ],
      "name": "OwnershipTransferred",
      "type": "event"
    },
    {
      "anonymous": false,
      "inputs": [
        {
          "indexed": true,
          "internalType": "address",
          "name": "player",
          "type": "address"
        },
        {
          "indexed": false,
          "internalType": "uint256",
          "name": "rewards",
          "type": "uint256"
        }
      ],
      "name": "RewardsClaimed",
      "type": "event"
    },
    {
      "anonymous": false,
      "inputs": [
        {
          "indexed": true,
          "internalType": "address",
          "name": "from",
          "type": "address"
        },
        {
          "indexed": true,
          "internalType": "address",
          "name": "to",
          "type": "address"
        },
        {
          "indexed": true,
          "internalType": "uint256",
          "name": "tokenId",
          "type": "uint256"
        }
      ],
      "name": "Transfer",
      "type": "event"
    },
    {
      "inputs": [
        {
          "internalType": "string",
          "name": "_name",
          "type": "string"
        },
        {
          "internalType": "uint256",
          "name": "_power",
          "type": "uint256"
        }
      ],
      "name": "addItem",
      "outputs": [],
      "stateMutability": "nonpayable",
      "type": "function"
    },
    {
      "inputs": [
        {
          "internalType": "address",
          "name": "to",
          "type": "address"
        },
        {
          "internalType": "uint256",
          "name": "tokenId",
          "type": "uint256"
        }
      ],
      "name": "approve",
      "outputs": [],
      "stateMutability": "nonpayable",
      "type": "function"
    },
    {
      "inputs": [
        {
          "internalType": "address",
          "name": "owner",
          "type": "address"
        }
      ],
      "name": "balanceOf",
      "outputs": [
        {
          "internalType": "uint256",
          "name": "",
          "type": "uint256"
        }
      ],
      "stateMutability": "view",
      "type": "function"
    },
    {
      "inputs": [],
      "name": "claimRewards",
      "outputs": [],
      "stateMutability": "nonpayable",
      "type": "function"
    },
    {
      "inputs": [],
      "name": "gameCost",
      "outputs": [
        {
          "internalType": "uint256",
          "name": "",
          "type": "uint256"
        }
      ],
      "stateMutability": "view",
      "type": "function"
    },
    {
      "inputs": [
        {
          "internalType": "uint256",
          "name": "tokenId",
          "type": "uint256"
        }
      ],
      "name": "getApproved",
      "outputs": [
        {
          "internalType": "address",
          "name": "",
          "type": "address"
        }
      ],
      "stateMutability": "view",
      "type": "function"
    },
    {
      "inputs": [],
      "name": "getItems",
      "outputs": [
        {
          "components": [
            {
              "internalType": "uint256",
              "name": "id",
              "type": "uint256"
            },
            {
              "internalType": "string",
              "name": "name",
              "type": "string"
            },
            {
              "internalType": "uint256",
              "name": "power",
              "type": "uint256"
            }
          ],
          "internalType": "struct ArcadeGame.Item[]",
          "name": "",
          "type": "tuple[]"
        }
      ],
      "stateMutability": "view",
      "type": "function"
    },
    {
      "inputs": [
        {
          "internalType": "address",
          "name": "_player",
          "type": "address"
        }
      ],
      "name": "getPlayerDetails",
      "outputs": [
        {
          "components": [
            {
              "internalType": "uint256",
              "name": "score",
              "type": "uint256"
            },
            {
              "internalType": "uint256",
              "name": "rewards",
              "type": "uint256"
            },
            {
              "internalType": "uint256",
              "name": "level",
              "type": "uint256"
            },
            {
              "internalType": "uint256[]",
              "name": "items",
              "type": "uint256[]"
            }
          ],
          "internalType": "struct ArcadeGame.Player",
          "name": "",
          "type": "tuple"
        }
      ],
      "stateMutability": "view",
      "type": "function"
    },
    {
      "inputs": [],
      "name": "initialAirdropAmount",
      "outputs": [
        {
          "internalType": "uint256",
          "name": "",
          "type": "uint256"
        }
      ],
      "stateMutability": "view",
      "type": "function"
    },
    {
      "inputs": [
        {
          "internalType": "address",
          "name": "playerAddress",
          "type": "address"
        }
      ],
      "name": "initializePlayer",
      "outputs": [],
      "stateMutability": "nonpayable",
      "type": "function"
    },
    {
      "inputs": [
        {
          "internalType": "address",
          "name": "owner",
          "type": "address"
        },
        {
          "internalType": "address",
          "name": "operator",
          "type": "address"
        }
      ],
      "name": "isApprovedForAll",
      "outputs": [
        {
          "internalType": "bool",
          "name": "",
          "type": "bool"
        }
      ],
      "stateMutability": "view",
      "type": "function"
    },
    {
      "inputs": [
        {
          "internalType": "uint256",
          "name": "",
          "type": "uint256"
        }
      ],
      "name": "items",
      "outputs": [
        {
          "internalType": "uint256",
          "name": "id",
          "type": "uint256"
        },
        {
          "internalType": "string",
          "name": "name",
          "type": "string"
        },
        {
          "internalType": "uint256",
          "name": "power",
          "type": "uint256"
        }
      ],
      "stateMutability": "view",
      "type": "function"
    },
    {
      "inputs": [],
      "name": "levelUpScore",
      "outputs": [
        {
          "internalType": "uint256",
          "name": "",
          "type": "uint256"
        }
      ],
      "stateMutability": "view",
      "type": "function"
    },
    {
      "inputs": [],
      "name": "mintNFT",
      "outputs": [],
      "stateMutability": "nonpayable",
      "type": "function"
    },
    {
      "inputs": [],
      "name": "name",
      "outputs": [
        {
          "internalType": "string",
          "name": "",
          "type": "string"
        }
      ],
      "stateMutability": "view",
      "type": "function"
    },
    {
      "inputs": [
        {
          "internalType": "uint256",
          "name": "",
          "type": "uint256"
        }
      ],
      "name": "nftOwners",
      "outputs": [
        {
          "internalType": "address",
          "name": "",
          "type": "address"
        }
      ],
      "stateMutability": "view",
      "type": "function"
    },
    {
      "inputs": [],
      "name": "owner",
      "outputs": [
        {
          "internalType": "address",
          "name": "",
          "type": "address"
        }
      ],
      "stateMutability": "view",
      "type": "function"
    },
    {
      "inputs": [
        {
          "internalType": "uint256",
          "name": "tokenId",
          "type": "uint256"
        }
      ],
      "name": "ownerOf",
      "outputs": [
        {
          "internalType": "address",
          "name": "",
          "type": "address"
        }
      ],
      "stateMutability": "view",
      "type": "function"
    },
    {
      "inputs": [
        {
          "internalType": "uint256",
          "name": "_score",
          "type": "uint256"
        }
      ],
      "name": "playGame",
      "outputs": [],
      "stateMutability": "nonpayable",
      "type": "function"
    },
    {
      "inputs": [
        {
          "internalType": "address",
          "name": "",
          "type": "address"
        }
      ],
      "name": "players",
      "outputs": [
        {
          "internalType": "uint256",
          "name": "score",
          "type": "uint256"
        },
        {
          "internalType": "uint256",
          "name": "rewards",
          "type": "uint256"
        },
        {
          "internalType": "uint256",
          "name": "level",
          "type": "uint256"
        }
      ],
      "stateMutability": "view",
      "type": "function"
    },
    {
      "inputs": [
        {
          "internalType": "uint256",
          "name": "_itemId",
          "type": "uint256"
        }
      ],
      "name": "purchaseItem",
      "outputs": [],
      "stateMutability": "nonpayable",
      "type": "function"
    },
    {
      "inputs": [],
      "name": "renounceOwnership",
      "outputs": [],
      "stateMutability": "nonpayable",
      "type": "function"
    },
    {
      "inputs": [
        {
          "internalType": "address",
          "name": "from",
          "type": "address"
        },
        {
          "internalType": "address",
          "name": "to",
          "type": "address"
        },
        {
          "internalType": "uint256",
          "name": "tokenId",
          "type": "uint256"
        }
      ],
      "name": "safeTransferFrom",
      "outputs": [],
      "stateMutability": "nonpayable",
      "type": "function"
    },
    {
      "inputs": [
        {
          "internalType": "address",
          "name": "from",
          "type": "address"
        },
        {
          "internalType": "address",
          "name": "to",
          "type": "address"
        },
        {
          "internalType": "uint256",
          "name": "tokenId",
          "type": "uint256"
        },
        {
          "internalType": "bytes",
          "name": "data",
          "type": "bytes"
        }
      ],
      "name": "safeTransferFrom",
      "outputs": [],
      "stateMutability": "nonpayable",
      "type": "function"
    },
    {
      "inputs": [
        {
          "internalType": "address",
          "name": "operator",
          "type": "address"
        },
        {
          "internalType": "bool",
          "name": "approved",
          "type": "bool"
        }
      ],
      "name": "setApprovalForAll",
      "outputs": [],
      "stateMutability": "nonpayable",
      "type": "function"
    },
    {
      "inputs": [
        {
          "internalType": "uint256",
          "name": "_gameCost",
          "type": "uint256"
        }
      ],
      "name": "setGameCost",
      "outputs": [],
      "stateMutability": "nonpayable",
      "type": "function"
    },
    {
      "inputs": [
        {
          "internalType": "uint256",
          "name": "_initialAirdropAmount",
          "type": "uint256"
        }
      ],
      "name": "setInitialAirdropAmount",
      "outputs": [],
      "stateMutability": "nonpayable",
      "type": "function"
    },
    {
      "inputs": [
        {
          "internalType": "uint256",
          "name": "_levelUpScore",
          "type": "uint256"
        }
      ],
      "name": "setLevelUpScore",
      "outputs": [],
      "stateMutability": "nonpayable",
      "type": "function"
    },
    {
      "inputs": [
        {
          "internalType": "bytes4",
          "name": "interfaceId",
          "type": "bytes4"
        }
      ],
      "name": "supportsInterface",
      "outputs": [
        {
          "internalType": "bool",
          "name": "",
          "type": "bool"
        }
      ],
      "stateMutability": "view",
      "type": "function"
    },
    {
      "inputs": [],
      "name": "symbol",
      "outputs": [
        {
          "internalType": "string",
          "name": "",
          "type": "string"
        }
      ],
      "stateMutability": "view",
      "type": "function"
    },
    {
      "inputs": [],
      "name": "token",
      "outputs": [
        {
          "internalType": "contract IERC20",
          "name": "",
          "type": "address"
        }
      ],
      "stateMutability": "view",
      "type": "function"
    },
    {
      "inputs": [
        {
          "internalType": "uint256",
          "name": "tokenId",
          "type": "uint256"
        }
      ],
      "name": "tokenURI",
      "outputs": [
        {
          "internalType": "string",
          "name": "",
          "type": "string"
        }
      ],
      "stateMutability": "view",
      "type": "function"
    },
    {
      "inputs": [
        {
          "internalType": "address",
          "name": "from",
          "type": "address"
        },
        {
          "internalType": "address",
          "name": "to",
          "type": "address"
        },
        {
          "internalType": "uint256",
          "name": "tokenId",
          "type": "uint256"
        }
      ],
      "name": "transferFrom",
      "outputs": [],
      "stateMutability": "nonpayable",
      "type": "function"
    },
    {
      "inputs": [
        {
          "internalType": "address",
          "name": "newOwner",
          "type": "address"
        }
      ],
      "name": "transferOwnership",
      "outputs": [],
      "stateMutability": "nonpayable",
      "type": "function"
    }
  ],
  "bytecode": "0x60806040523480156200001157600080fd5b50604051620049a3380380620049a3833981810160405281019062000037919062000325565b816040518060400160405280600f81526020017f41726361646547616d65546f6b656e00000000000000000000000000000000008152506040518060400160405280600381526020017f41475400000000000000000000000000000000000000000000000000000000008152508160009081620000b59190620005f1565b508060019081620000c79190620005f1565b505050600073ffffffffffffffffffffffffffffffffffffffff168173ffffffffffffffffffffffffffffffffffffffff16036200013f5760006040517f1e4fbdf7000000000000000000000000000000000000000000000000000000008152600401620001369190620006e9565b60405180910390fd5b6200015081620001ba60201b60201c565b5082600760006101000a81548173ffffffffffffffffffffffffffffffffffffffff021916908373ffffffffffffffffffffffffffffffffffffffff160217905550678ac7230489e80000600a819055506103e8600b8190555080600c8190555050505062000706565b6000600660009054906101000a900473ffffffffffffffffffffffffffffffffffffffff16905081600660006101000a81548173ffffffffffffffffffffffffffffffffffffffff021916908373ffffffffffffffffffffffffffffffffffffffff1602179055508173ffffffffffffffffffffffffffffffffffffffff168173ffffffffffffffffffffffffffffffffffffffff167f8be0079c531659141344cd1fd0a4f28419497f9722a3daafe3b4186f6b6457e060405160405180910390a35050565b600080fd5b600073ffffffffffffffffffffffffffffffffffffffff82169050919050565b6000620002b28262000285565b9050919050565b620002c481620002a5565b8114620002d057600080fd5b50565b600081519050620002e481620002b9565b92915050565b6000819050919050565b620002ff81620002ea565b81146200030b57600080fd5b50565b6000815190506200031f81620002f4565b92915050565b60008060006060848603121562000341576200034062000280565b5b60006200035186828701620002d3565b93505060206200036486828701620002d3565b925050604062000377868287016200030e565b9150509250925092565b600081519050919050565b7f4e487b7100000000000000000000000000000000000000000000000000000000600052604160045260246000fd5b7f4e487b7100000000000000000000000000000000000000000000000000000000600052602260045260246000fd5b600060028204905060018216806200040357607f821691505b602082108103620004195762000418620003bb565b5b50919050565b60008190508160005260206000209050919050565b60006020601f8301049050919050565b600082821b905092915050565b600060088302620004837fffffffffffffffffffffffffffffffffffffffffffffffffffffffffffffffff8262000444565b6200048f868362000444565b95508019841693508086168417925050509392505050565b6000819050919050565b6000620004d2620004cc620004c684620002ea565b620004a7565b620002ea565b9050919050565b6000819050919050565b620004ee83620004b1565b62000506620004fd82620004d9565b84845462000451565b825550505050565b600090565b6200051d6200050e565b6200052a818484620004e3565b505050565b5b8181101562000552576200054660008262000513565b60018101905062000530565b5050565b601f821115620005a1576200056b816200041f565b620005768462000434565b8101602085101562000586578190505b6200059e620005958562000434565b8301826200052f565b50505b505050565b600082821c905092915050565b6000620005c660001984600802620005a6565b1980831691505092915050565b6000620005e18383620005b3565b9150826002028217905092915050565b620005fc8262000381565b67ffffffffffffffff8111156200061857620006176200038c565b5b620006248254620003ea565b6200063182828562000556565b600060209050601f83116001811462000669576000841562000654578287015190505b620006608582620005d3565b865550620006d0565b601f19841662000679866200041f565b60005b82811015620006a3578489015182556001820191506020850194506020810190506200067c565b86831015620006c35784890151620006bf601f891682620005b3565b8355505b6001600288020188555050505b505050505050565b620006e381620002a5565b82525050565b6000602082019050620007006000830184620006d8565b92915050565b61428d80620007166000396000f3fe608060405234801561001057600080fd5b50600436106102065760003560e01c80637f17b79d1161011a578063c87b56dd116100ad578063e2eb41ff1161007c578063e2eb41ff146105af578063e7804338146105e1578063e985e9c5146105ff578063f2fde38b1461062f578063fc0c546a1461064b57610206565b8063c87b56dd14610515578063c8dd6ce714610545578063cab896dc14610575578063d38ea5bf1461059357610206565b8063affc55c0116100e9578063affc55c014610479578063b88d4fde14610497578063bbd94c2f146104b3578063bfb231d2146104e357610206565b80637f17b79d146104055780638da5cb5b1461042157806395d89b411461043f578063a22cb4651461045d57610206565b8063372500ab1161019d57806362d6bbdf1161016c57806362d6bbdf146103635780636352211e1461037f57806370a08231146103af57806370ca3b16146103df578063715018a6146103fb57610206565b8063372500ab14610303578063410d59cc1461030d57806342842e0e1461032b5780635873533d1461034757610206565b8063095ea7b3116101d9578063095ea7b3146102a5578063139652e4146102c157806314f710fe146102dd57806323b872dd146102e757610206565b806301ffc9a71461020b57806306fdde031461023b578063081812fc146102595780630931a4d114610289575b600080fd5b61022560048036038101906102209190612da3565b610669565b6040516102329190612deb565b60405180910390f35b61024361074b565b6040516102509190612e96565b60405180910390f35b610273600480360381019061026e9190612eee565b6107dd565b6040516102809190612f5c565b60405180910390f35b6102a3600480360381019061029e9190612eee565b6107f9565b005b6102bf60048036038101906102ba9190612fa3565b61080b565b005b6102db60048036038101906102d69190612fe3565b610821565b005b6102e5610ad7565b005b61030160048036038101906102fc9190613010565b610b4e565b005b61030b610c50565b005b610315610e1a565b60405161032291906131ce565b60405180910390f35b61034560048036038101906103409190613010565b610f8b565b005b610361600480360381019061035c9190612eee565b610fab565b005b61037d60048036038101906103789190613325565b61132a565b005b61039960048036038101906103949190612eee565b6113e4565b6040516103a69190612f5c565b60405180910390f35b6103c960048036038101906103c49190612fe3565b6113f6565b6040516103d69190613390565b60405180910390f35b6103f960048036038101906103f49190612eee565b6114b0565b005b6104036114c2565b005b61041f600480360381019061041a9190612eee565b6114d6565b005b6104296114e8565b6040516104369190612f5c565b60405180910390f35b610447611512565b6040516104549190612e96565b60405180910390f35b610477600480360381019061047291906133d7565b6115a4565b005b6104816115ba565b60405161048e9190613390565b60405180910390f35b6104b160048036038101906104ac91906134b8565b6115c0565b005b6104cd60048036038101906104c89190612eee565b6115dd565b6040516104da9190612f5c565b60405180910390f35b6104fd60048036038101906104f89190612eee565b611610565b60405161050c9392919061353b565b60405180910390f35b61052f600480360381019061052a9190612eee565b6116c2565b60405161053c9190612e96565b60405180910390f35b61055f600480360381019061055a9190612fe3565b61172b565b60405161056c919061368b565b60405180910390f35b61057d61191c565b60405161058a9190613390565b60405180910390f35b6105ad60048036038101906105a89190612eee565b611922565b005b6105c960048036038101906105c49190612fe3565b611c62565b6040516105d8939291906136ad565b60405180910390f35b6105e9611c8c565b6040516105f69190613390565b60405180910390f35b610619600480360381019061061491906136e4565b611c92565b6040516106269190612deb565b60405180910390f35b61064960048036038101906106449190612fe3565b611d26565b005b610653611dac565b6040516106609190613783565b60405180910390f35b60007f80ac58cd000000000000000000000000000000000000000000000000000000007bffffffffffffffffffffffffffffffffffffffffffffffffffffffff1916827bffffffffffffffffffffffffffffffffffffffffffffffffffffffff1916148061073457507f5b5e139f000000000000000000000000000000000000000000000000000000007bffffffffffffffffffffffffffffffffffffffffffffffffffffffff1916827bffffffffffffffffffffffffffffffffffffffffffffffffffffffff1916145b80610744575061074382611dd2565b5b9050919050565b60606000805461075a906137cd565b80601f0160208091040260200160405190810160405280929190818152602001828054610786906137cd565b80156107d35780601f106107a8576101008083540402835291602001916107d3565b820191906000526020600020905b8154815290600101906020018083116107b657829003601f168201915b5050505050905090565b60006107e882611e3c565b506107f282611ec4565b9050919050565b610801611f01565b80600b8190555050565b61081d8282610818611f88565b611f90565b5050565b6000600d60008373ffffffffffffffffffffffffffffffffffffffff1673ffffffffffffffffffffffffffffffffffffffff168152602001908152602001600020600201541480156108b557506000600d60008373ffffffffffffffffffffffffffffffffffffffff1673ffffffffffffffffffffffffffffffffffffffff16815260200190815260200160002060000154145b801561090357506000600d60008373ffffffffffffffffffffffffffffffffffffffff1673ffffffffffffffffffffffffffffffffffffffff16815260200190815260200160002060010154145b15610ad4576040518060800160405280600081526020016000815260200160018152602001600067ffffffffffffffff811115610943576109426131fa565b5b6040519080825280602002602001820160405280156109715781602001602082028036833780820191505090505b50815250600d60008373ffffffffffffffffffffffffffffffffffffffff1673ffffffffffffffffffffffffffffffffffffffff16815260200190815260200160002060008201518160000155602082015181600101556040820151816002015560608201518160030190805190602001906109ee929190612c84565b50905050600760009054906101000a900473ffffffffffffffffffffffffffffffffffffffff1673ffffffffffffffffffffffffffffffffffffffff1663a9059cbb82600c546040518363ffffffff1660e01b8152600401610a519291906137fe565b6020604051808303816000875af1158015610a70573d6000803e3d6000fd5b505050506040513d601f19601f82011682018060405250810190610a94919061383c565b610ad3576040517f08c379a0000000000000000000000000000000000000000000000000000000008152600401610aca906138b5565b60405180910390fd5b5b50565b6000610ae36009611fa2565b9050610aef6009611fb0565b610af93382611fc6565b33600f600083815260200190815260200160002060006101000a81548173ffffffffffffffffffffffffffffffffffffffff021916908373ffffffffffffffffffffffffffffffffffffffff16021790555050565b600073ffffffffffffffffffffffffffffffffffffffff168273ffffffffffffffffffffffffffffffffffffffff1603610bc05760006040517f64a0ae92000000000000000000000000000000000000000000000000000000008152600401610bb79190612f5c565b60405180910390fd5b6000610bd48383610bcf611f88565b6120bf565b90508373ffffffffffffffffffffffffffffffffffffffff168173ffffffffffffffffffffffffffffffffffffffff1614610c4a578382826040517f64283d7b000000000000000000000000000000000000000000000000000000008152600401610c41939291906138d5565b60405180910390fd5b50505050565b6000600d60003373ffffffffffffffffffffffffffffffffffffffff1673ffffffffffffffffffffffffffffffffffffffff168152602001908152602001600020905060008160010154905060008111610cdf576040517f08c379a0000000000000000000000000000000000000000000000000000000008152600401610cd690613958565b60405180910390fd5b60008260010181905550600760009054906101000a900473ffffffffffffffffffffffffffffffffffffffff1673ffffffffffffffffffffffffffffffffffffffff1663a9059cbb33836040518363ffffffff1660e01b8152600401610d469291906137fe565b6020604051808303816000875af1158015610d65573d6000803e3d6000fd5b505050506040513d601f19601f82011682018060405250810190610d89919061383c565b610dc8576040517f08c379a0000000000000000000000000000000000000000000000000000000008152600401610dbf906139c4565b60405180910390fd5b3373ffffffffffffffffffffffffffffffffffffffff167ffc30cddea38e2bf4d6ea7d3f9ed3b6ad7f176419f4963bd81318067a4aee73fe82604051610e0e9190613390565b60405180910390a25050565b60606000610e286008611fa2565b905060008167ffffffffffffffff811115610e4657610e456131fa565b5b604051908082528060200260200182016040528015610e7f57816020015b610e6c612cd1565b815260200190600190039081610e645790505b50905060005b82811015610f8257600e600082815260200190815260200160002060405180606001604052908160008201548152602001600182018054610ec5906137cd565b80601f0160208091040260200160405190810160405280929190818152602001828054610ef1906137cd565b8015610f3e5780601f10610f1357610100808354040283529160200191610f3e565b820191906000526020600020905b815481529060010190602001808311610f2157829003601f168201915b50505050508152602001600282015481525050828281518110610f6457610f636139e4565b5b60200260200101819052508080610f7a90613a42565b915050610e85565b50809250505090565b610fa6838383604051806020016040528060008152506115c0565b505050565b600a54600760009054906101000a900473ffffffffffffffffffffffffffffffffffffffff1673ffffffffffffffffffffffffffffffffffffffff166370a08231336040518263ffffffff1660e01b81526004016110099190612f5c565b602060405180830381865afa158015611026573d6000803e3d6000fd5b505050506040513d601f19601f8201168201806040525081019061104a9190613a9f565b101561108b576040517f08c379a000000000000000000000000000000000000000000000000000000000815260040161108290613b18565b60405180910390fd5b600760009054906101000a900473ffffffffffffffffffffffffffffffffffffffff1673ffffffffffffffffffffffffffffffffffffffff166323b872dd3330600a546040518463ffffffff1660e01b81526004016110ec93929190613b38565b6020604051808303816000875af115801561110b573d6000803e3d6000fd5b505050506040513d601f19601f8201168201806040525081019061112f919061383c565b61116e576040517f08c379a000000000000000000000000000000000000000000000000000000000815260040161116590613bbb565b60405180910390fd5b61117733610821565b6000600d60003373ffffffffffffffffffffffffffffffffffffffff1673ffffffffffffffffffffffffffffffffffffffff1681526020019081526020016000209050818160000160008282546111ce9190613bdb565b925050819055506000600160644442336040516020016111f093929190613c78565b6040516020818303038152906040528051906020012060001c6112139190613ce4565b61121d9190613bdb565b9050808260010160008282546112339190613bdb565b92505081905550600b548260000154106112d15781600201600081548092919061125c90613a42565b9190505550600b548260000160008282546112779190613d15565b925050819055503373ffffffffffffffffffffffffffffffffffffffff167f91e51c29e7e87a74ad3b8ccba98538970f50a4309242735467f41e27c6b0fbac83600201546040516112c89190613390565b60405180910390a25b3373ffffffffffffffffffffffffffffffffffffffff167f24b31e1dbf1732a12bb700d3d77e5fb96ff3b693374d9fa15ccbc03f4271507684846002015460405161131d929190613d49565b60405180910390a2505050565b611332611f01565b600061133e6008611fa2565b905061134a6008611fb0565b604051806060016040528082815260200184815260200183815250600e60008381526020019081526020016000206000820151816000015560208201518160010190816113979190613f14565b5060408201518160020155905050807f0444434676a57f70f8479401c50fb4add3e31052f88f4b35e155b7759e5968e584846040516113d7929190613fe6565b60405180910390a2505050565b60006113ef82611e3c565b9050919050565b60008073ffffffffffffffffffffffffffffffffffffffff168273ffffffffffffffffffffffffffffffffffffffff16036114695760006040517f89c62b640000000000000000000000000000000000000000000000000000000081526004016114609190612f5c565b60405180910390fd5b600360008373ffffffffffffffffffffffffffffffffffffffff1673ffffffffffffffffffffffffffffffffffffffff168152602001908152602001600020549050919050565b6114b8611f01565b80600c8190555050565b6114ca611f01565b6114d460006122d9565b565b6114de611f01565b80600a8190555050565b6000600660009054906101000a900473ffffffffffffffffffffffffffffffffffffffff16905090565b606060018054611521906137cd565b80601f016020809104026020016040519081016040528092919081815260200182805461154d906137cd565b801561159a5780601f1061156f5761010080835404028352916020019161159a565b820191906000526020600020905b81548152906001019060200180831161157d57829003601f168201915b5050505050905090565b6115b66115af611f88565b838361239f565b5050565b600b5481565b6115cb848484610b4e565b6115d78484848461250e565b50505050565b600f6020528060005260406000206000915054906101000a900473ffffffffffffffffffffffffffffffffffffffff1681565b600e602052806000526040600020600091509050806000015490806001018054611639906137cd565b80601f0160208091040260200160405190810160405280929190818152602001828054611665906137cd565b80156116b25780601f10611687576101008083540402835291602001916116b2565b820191906000526020600020905b81548152906001019060200180831161169557829003601f168201915b5050505050908060020154905083565b60606116cd82611e3c565b5060006116d86126c5565b905060008151116116f85760405180602001604052806000815250611723565b80611702846126dc565b604051602001611713929190614052565b6040516020818303038152906040525b915050919050565b611733612cf2565b6000600d60008473ffffffffffffffffffffffffffffffffffffffff1673ffffffffffffffffffffffffffffffffffffffff168152602001908152602001600020600201541415806117c857506000600d60008473ffffffffffffffffffffffffffffffffffffffff1673ffffffffffffffffffffffffffffffffffffffff1681526020019081526020016000206000015414155b8061181657506000600d60008473ffffffffffffffffffffffffffffffffffffffff1673ffffffffffffffffffffffffffffffffffffffff1681526020019081526020016000206001015414155b611855576040517f08c379a000000000000000000000000000000000000000000000000000000000815260040161184c906140c2565b60405180910390fd5b600d60008373ffffffffffffffffffffffffffffffffffffffff1673ffffffffffffffffffffffffffffffffffffffff1681526020019081526020016000206040518060800160405290816000820154815260200160018201548152602001600282015481526020016003820180548060200260200160405190810160405280929190818152602001828054801561190c57602002820191906000526020600020905b8154815260200190600101908083116118f8575b5050505050815250509050919050565b600a5481565b6000600e60008381526020019081526020016000206040518060600160405290816000820154815260200160018201805461195c906137cd565b80601f0160208091040260200160405190810160405280929190818152602001828054611988906137cd565b80156119d55780601f106119aa576101008083540402835291602001916119d5565b820191906000526020600020905b8154815290600101906020018083116119b857829003601f168201915b5050505050815260200160028201548152505090508060400151600760009054906101000a900473ffffffffffffffffffffffffffffffffffffffff1673ffffffffffffffffffffffffffffffffffffffff166370a08231336040518263ffffffff1660e01b8152600401611a4a9190612f5c565b602060405180830381865afa158015611a67573d6000803e3d6000fd5b505050506040513d601f19601f82011682018060405250810190611a8b9190613a9f565b1015611acc576040517f08c379a0000000000000000000000000000000000000000000000000000000008152600401611ac390614154565b60405180910390fd5b600760009054906101000a900473ffffffffffffffffffffffffffffffffffffffff1673ffffffffffffffffffffffffffffffffffffffff166323b872dd333084604001516040518463ffffffff1660e01b8152600401611b2f93929190613b38565b6020604051808303816000875af1158015611b4e573d6000803e3d6000fd5b505050506040513d601f19601f82011682018060405250810190611b72919061383c565b611bb1576040517f08c379a0000000000000000000000000000000000000000000000000000000008152600401611ba890613bbb565b60405180910390fd5b600d60003373ffffffffffffffffffffffffffffffffffffffff1673ffffffffffffffffffffffffffffffffffffffff168152602001908152602001600020600301829080600181540180825580915050600190039060005260206000200160009091909190915055813373ffffffffffffffffffffffffffffffffffffffff167f792fe07c0f3ce4ef42df79c4a2b07925168cddbaabf7a7ef1351f027a376031360405160405180910390a35050565b600d6020528060005260406000206000915090508060000154908060010154908060020154905083565b600c5481565b6000600560008473ffffffffffffffffffffffffffffffffffffffff1673ffffffffffffffffffffffffffffffffffffffff16815260200190815260200160002060008373ffffffffffffffffffffffffffffffffffffffff1673ffffffffffffffffffffffffffffffffffffffff16815260200190815260200160002060009054906101000a900460ff16905092915050565b611d2e611f01565b600073ffffffffffffffffffffffffffffffffffffffff168173ffffffffffffffffffffffffffffffffffffffff1603611da05760006040517f1e4fbdf7000000000000000000000000000000000000000000000000000000008152600401611d979190612f5c565b60405180910390fd5b611da9816122d9565b50565b600760009054906101000a900473ffffffffffffffffffffffffffffffffffffffff1681565b60007f01ffc9a7000000000000000000000000000000000000000000000000000000007bffffffffffffffffffffffffffffffffffffffffffffffffffffffff1916827bffffffffffffffffffffffffffffffffffffffffffffffffffffffff1916149050919050565b600080611e48836127aa565b9050600073ffffffffffffffffffffffffffffffffffffffff168173ffffffffffffffffffffffffffffffffffffffff1603611ebb57826040517f7e273289000000000000000000000000000000000000000000000000000000008152600401611eb29190613390565b60405180910390fd5b80915050919050565b60006004600083815260200190815260200160002060009054906101000a900473ffffffffffffffffffffffffffffffffffffffff169050919050565b611f09611f88565b73ffffffffffffffffffffffffffffffffffffffff16611f276114e8565b73ffffffffffffffffffffffffffffffffffffffff1614611f8657611f4a611f88565b6040517f118cdaa7000000000000000000000000000000000000000000000000000000008152600401611f7d9190612f5c565b60405180910390fd5b565b600033905090565b611f9d83838360016127e7565b505050565b600081600001549050919050565b6001816000016000828254019250508190555050565b600073ffffffffffffffffffffffffffffffffffffffff168273ffffffffffffffffffffffffffffffffffffffff16036120385760006040517f64a0ae9200000000000000000000000000000000000000000000000000000000815260040161202f9190612f5c565b60405180910390fd5b6000612046838360006120bf565b9050600073ffffffffffffffffffffffffffffffffffffffff168173ffffffffffffffffffffffffffffffffffffffff16146120ba5760006040517f73c6ac6e0000000000000000000000000000000000000000000000000000000081526004016120b19190612f5c565b60405180910390fd5b505050565b6000806120cb846127aa565b9050600073ffffffffffffffffffffffffffffffffffffffff168373ffffffffffffffffffffffffffffffffffffffff161461210d5761210c8184866129ac565b5b600073ffffffffffffffffffffffffffffffffffffffff168173ffffffffffffffffffffffffffffffffffffffff161461219e5761214f6000856000806127e7565b6001600360008373ffffffffffffffffffffffffffffffffffffffff1673ffffffffffffffffffffffffffffffffffffffff168152602001908152602001600020600082825403925050819055505b600073ffffffffffffffffffffffffffffffffffffffff168573ffffffffffffffffffffffffffffffffffffffff1614612221576001600360008773ffffffffffffffffffffffffffffffffffffffff1673ffffffffffffffffffffffffffffffffffffffff168152602001908152602001600020600082825401925050819055505b846002600086815260200190815260200160002060006101000a81548173ffffffffffffffffffffffffffffffffffffffff021916908373ffffffffffffffffffffffffffffffffffffffff160217905550838573ffffffffffffffffffffffffffffffffffffffff168273ffffffffffffffffffffffffffffffffffffffff167fddf252ad1be2c89b69c2b068fc378daa952ba7f163c4a11628f55a4df523b3ef60405160405180910390a4809150509392505050565b6000600660009054906101000a900473ffffffffffffffffffffffffffffffffffffffff16905081600660006101000a81548173ffffffffffffffffffffffffffffffffffffffff021916908373ffffffffffffffffffffffffffffffffffffffff1602179055508173ffffffffffffffffffffffffffffffffffffffff168173ffffffffffffffffffffffffffffffffffffffff167f8be0079c531659141344cd1fd0a4f28419497f9722a3daafe3b4186f6b6457e060405160405180910390a35050565b600073ffffffffffffffffffffffffffffffffffffffff168273ffffffffffffffffffffffffffffffffffffffff160361241057816040517f5b08ba180000000000000000000000000000000000000000000000000000000081526004016124079190612f5c565b60405180910390fd5b80600560008573ffffffffffffffffffffffffffffffffffffffff1673ffffffffffffffffffffffffffffffffffffffff16815260200190815260200160002060008473ffffffffffffffffffffffffffffffffffffffff1673ffffffffffffffffffffffffffffffffffffffff16815260200190815260200160002060006101000a81548160ff0219169083151502179055508173ffffffffffffffffffffffffffffffffffffffff168373ffffffffffffffffffffffffffffffffffffffff167f17307eab39ab6107e8899845ad3d59bd9653f200f220920489ca2b5937696c31836040516125019190612deb565b60405180910390a3505050565b60008373ffffffffffffffffffffffffffffffffffffffff163b11156126bf578273ffffffffffffffffffffffffffffffffffffffff1663150b7a02612552611f88565b8685856040518563ffffffff1660e01b815260040161257494939291906141c9565b6020604051808303816000875af19250505080156125b057506040513d601f19601f820116820180604052508101906125ad919061422a565b60015b612634573d80600081146125e0576040519150601f19603f3d011682016040523d82523d6000602084013e6125e5565b606091505b50600081510361262c57836040517f64a0ae920000000000000000000000000000000000000000000000000000000081526004016126239190612f5c565b60405180910390fd5b805181602001fd5b63150b7a0260e01b7bffffffffffffffffffffffffffffffffffffffffffffffffffffffff1916817bffffffffffffffffffffffffffffffffffffffffffffffffffffffff1916146126bd57836040517f64a0ae920000000000000000000000000000000000000000000000000000000081526004016126b49190612f5c565b60405180910390fd5b505b50505050565b606060405180602001604052806000815250905090565b6060600060016126eb84612a70565b01905060008167ffffffffffffffff81111561270a576127096131fa565b5b6040519080825280601f01601f19166020018201604052801561273c5781602001600182028036833780820191505090505b509050600082602001820190505b60011561279f578080600190039150507f3031323334353637383961626364656600000000000000000000000000000000600a86061a8153600a858161279357612792613cb5565b5b0494506000850361274a575b819350505050919050565b60006002600083815260200190815260200160002060009054906101000a900473ffffffffffffffffffffffffffffffffffffffff169050919050565b80806128205750600073ffffffffffffffffffffffffffffffffffffffff168273ffffffffffffffffffffffffffffffffffffffff1614155b1561295457600061283084611e3c565b9050600073ffffffffffffffffffffffffffffffffffffffff168373ffffffffffffffffffffffffffffffffffffffff161415801561289b57508273ffffffffffffffffffffffffffffffffffffffff168173ffffffffffffffffffffffffffffffffffffffff1614155b80156128ae57506128ac8184611c92565b155b156128f057826040517fa9fbf51f0000000000000000000000000000000000000000000000000000000081526004016128e79190612f5c565b60405180910390fd5b811561295257838573ffffffffffffffffffffffffffffffffffffffff168273ffffffffffffffffffffffffffffffffffffffff167f8c5be1e5ebec7d5bd14f71427d1e84f3dd0314c0f7b2291e5b200ac8c7c3b92560405160405180910390a45b505b836004600085815260200190815260200160002060006101000a81548173ffffffffffffffffffffffffffffffffffffffff021916908373ffffffffffffffffffffffffffffffffffffffff16021790555050505050565b6129b7838383612bc3565b612a6b57600073ffffffffffffffffffffffffffffffffffffffff168373ffffffffffffffffffffffffffffffffffffffff1603612a2c57806040517f7e273289000000000000000000000000000000000000000000000000000000008152600401612a239190613390565b60405180910390fd5b81816040517f177e802f000000000000000000000000000000000000000000000000000000008152600401612a629291906137fe565b60405180910390fd5b505050565b600080600090507a184f03e93ff9f4daa797ed6e38ed64bf6a1f0100000000000000008310612ace577a184f03e93ff9f4daa797ed6e38ed64bf6a1f0100000000000000008381612ac457612ac3613cb5565b5b0492506040810190505b6d04ee2d6d415b85acef81000000008310612b0b576d04ee2d6d415b85acef81000000008381612b0157612b00613cb5565b5b0492506020810190505b662386f26fc100008310612b3a57662386f26fc100008381612b3057612b2f613cb5565b5b0492506010810190505b6305f5e1008310612b63576305f5e1008381612b5957612b58613cb5565b5b0492506008810190505b6127108310612b88576127108381612b7e57612b7d613cb5565b5b0492506004810190505b60648310612bab5760648381612ba157612ba0613cb5565b5b0492506002810190505b600a8310612bba576001810190505b80915050919050565b60008073ffffffffffffffffffffffffffffffffffffffff168373ffffffffffffffffffffffffffffffffffffffff1614158015612c7b57508273ffffffffffffffffffffffffffffffffffffffff168473ffffffffffffffffffffffffffffffffffffffff161480612c3c5750612c3b8484611c92565b5b80612c7a57508273ffffffffffffffffffffffffffffffffffffffff16612c6283611ec4565b73ffffffffffffffffffffffffffffffffffffffff16145b5b90509392505050565b828054828255906000526020600020908101928215612cc0579160200282015b82811115612cbf578251825591602001919060010190612ca4565b5b509050612ccd9190612d1a565b5090565b60405180606001604052806000815260200160608152602001600081525090565b6040518060800160405280600081526020016000815260200160008152602001606081525090565b5b80821115612d33576000816000905550600101612d1b565b5090565b6000604051905090565b600080fd5b600080fd5b60007fffffffff0000000000000000000000000000000000000000000000000000000082169050919050565b612d8081612d4b565b8114612d8b57600080fd5b50565b600081359050612d9d81612d77565b92915050565b600060208284031215612db957612db8612d41565b5b6000612dc784828501612d8e565b91505092915050565b60008115159050919050565b612de581612dd0565b82525050565b6000602082019050612e006000830184612ddc565b92915050565b600081519050919050565b600082825260208201905092915050565b60005b83811015612e40578082015181840152602081019050612e25565b60008484015250505050565b6000601f19601f8301169050919050565b6000612e6882612e06565b612e728185612e11565b9350612e82818560208601612e22565b612e8b81612e4c565b840191505092915050565b60006020820190508181036000830152612eb08184612e5d565b905092915050565b6000819050919050565b612ecb81612eb8565b8114612ed657600080fd5b50565b600081359050612ee881612ec2565b92915050565b600060208284031215612f0457612f03612d41565b5b6000612f1284828501612ed9565b91505092915050565b600073ffffffffffffffffffffffffffffffffffffffff82169050919050565b6000612f4682612f1b565b9050919050565b612f5681612f3b565b82525050565b6000602082019050612f716000830184612f4d565b92915050565b612f8081612f3b565b8114612f8b57600080fd5b50565b600081359050612f9d81612f77565b92915050565b60008060408385031215612fba57612fb9612d41565b5b6000612fc885828601612f8e565b9250506020612fd985828601612ed9565b9150509250929050565b600060208284031215612ff957612ff8612d41565b5b600061300784828501612f8e565b91505092915050565b60008060006060848603121561302957613028612d41565b5b600061303786828701612f8e565b935050602061304886828701612f8e565b925050604061305986828701612ed9565b9150509250925092565b600081519050919050565b600082825260208201905092915050565b6000819050602082019050919050565b61309881612eb8565b82525050565b600082825260208201905092915050565b60006130ba82612e06565b6130c4818561309e565b93506130d4818560208601612e22565b6130dd81612e4c565b840191505092915050565b6000606083016000830151613100600086018261308f565b506020830151848203602086015261311882826130af565b915050604083015161312d604086018261308f565b508091505092915050565b600061314483836130e8565b905092915050565b6000602082019050919050565b600061316482613063565b61316e818561306e565b9350836020820285016131808561307f565b8060005b858110156131bc578484038952815161319d8582613138565b94506131a88361314c565b925060208a01995050600181019050613184565b50829750879550505050505092915050565b600060208201905081810360008301526131e88184613159565b905092915050565b600080fd5b600080fd5b7f4e487b7100000000000000000000000000000000000000000000000000000000600052604160045260246000fd5b61323282612e4c565b810181811067ffffffffffffffff82111715613251576132506131fa565b5b80604052505050565b6000613264612d37565b90506132708282613229565b919050565b600067ffffffffffffffff8211156132905761328f6131fa565b5b61329982612e4c565b9050602081019050919050565b82818337600083830152505050565b60006132c86132c384613275565b61325a565b9050828152602081018484840111156132e4576132e36131f5565b5b6132ef8482856132a6565b509392505050565b600082601f83011261330c5761330b6131f0565b5b813561331c8482602086016132b5565b91505092915050565b6000806040838503121561333c5761333b612d41565b5b600083013567ffffffffffffffff81111561335a57613359612d46565b5b613366858286016132f7565b925050602061337785828601612ed9565b9150509250929050565b61338a81612eb8565b82525050565b60006020820190506133a56000830184613381565b92915050565b6133b481612dd0565b81146133bf57600080fd5b50565b6000813590506133d1816133ab565b92915050565b600080604083850312156133ee576133ed612d41565b5b60006133fc85828601612f8e565b925050602061340d858286016133c2565b9150509250929050565b600067ffffffffffffffff821115613432576134316131fa565b5b61343b82612e4c565b9050602081019050919050565b600061345b61345684613417565b61325a565b905082815260208101848484011115613477576134766131f5565b5b6134828482856132a6565b509392505050565b600082601f83011261349f5761349e6131f0565b5b81356134af848260208601613448565b91505092915050565b600080600080608085870312156134d2576134d1612d41565b5b60006134e087828801612f8e565b94505060206134f187828801612f8e565b935050604061350287828801612ed9565b925050606085013567ffffffffffffffff81111561352357613522612d46565b5b61352f8782880161348a565b91505092959194509250565b60006060820190506135506000830186613381565b81810360208301526135628185612e5d565b90506135716040830184613381565b949350505050565b600081519050919050565b600082825260208201905092915050565b6000819050602082019050919050565b60006135b1838361308f565b60208301905092915050565b6000602082019050919050565b60006135d582613579565b6135df8185613584565b93506135ea83613595565b8060005b8381101561361b57815161360288826135a5565b975061360d836135bd565b9250506001810190506135ee565b5085935050505092915050565b6000608083016000830151613640600086018261308f565b506020830151613653602086018261308f565b506040830151613666604086018261308f565b506060830151848203606086015261367e82826135ca565b9150508091505092915050565b600060208201905081810360008301526136a58184613628565b905092915050565b60006060820190506136c26000830186613381565b6136cf6020830185613381565b6136dc6040830184613381565b949350505050565b600080604083850312156136fb576136fa612d41565b5b600061370985828601612f8e565b925050602061371a85828601612f8e565b9150509250929050565b6000819050919050565b600061374961374461373f84612f1b565b613724565b612f1b565b9050919050565b600061375b8261372e565b9050919050565b600061376d82613750565b9050919050565b61377d81613762565b82525050565b60006020820190506137986000830184613774565b92915050565b7f4e487b7100000000000000000000000000000000000000000000000000000000600052602260045260246000fd5b600060028204905060018216806137e557607f821691505b6020821081036137f8576137f761379e565b5b50919050565b60006040820190506138136000830185612f4d565b6138206020830184613381565b9392505050565b600081519050613836816133ab565b92915050565b60006020828403121561385257613851612d41565b5b600061386084828501613827565b91505092915050565b7f41697264726f70206661696c6564000000000000000000000000000000000000600082015250565b600061389f600e83612e11565b91506138aa82613869565b602082019050919050565b600060208201905081810360008301526138ce81613892565b9050919050565b60006060820190506138ea6000830186612f4d565b6138f76020830185613381565b6139046040830184612f4d565b949350505050565b7f4e6f207265776172647320746f20636c61696d00000000000000000000000000600082015250565b6000613942601383612e11565b915061394d8261390c565b602082019050919050565b6000602082019050818103600083015261397181613935565b9050919050565b7f526577617264207472616e73666572206661696c656400000000000000000000600082015250565b60006139ae601683612e11565b91506139b982613978565b602082019050919050565b600060208201905081810360008301526139dd816139a1565b9050919050565b7f4e487b7100000000000000000000000000000000000000000000000000000000600052603260045260246000fd5b7f4e487b7100000000000000000000000000000000000000000000000000000000600052601160045260246000fd5b6000613a4d82612eb8565b91507fffffffffffffffffffffffffffffffffffffffffffffffffffffffffffffffff8203613a7f57613a7e613a13565b5b600182019050919050565b600081519050613a9981612ec2565b92915050565b600060208284031215613ab557613ab4612d41565b5b6000613ac384828501613a8a565b91505092915050565b7f496e73756666696369656e7420746f6b656e7320746f20706c61790000000000600082015250565b6000613b02601b83612e11565b9150613b0d82613acc565b602082019050919050565b60006020820190508181036000830152613b3181613af5565b9050919050565b6000606082019050613b4d6000830186612f4d565b613b5a6020830185612f4d565b613b676040830184613381565b949350505050565b7f546f6b656e207472616e73666572206661696c65640000000000000000000000600082015250565b6000613ba5601583612e11565b9150613bb082613b6f565b602082019050919050565b60006020820190508181036000830152613bd481613b98565b9050919050565b6000613be682612eb8565b9150613bf183612eb8565b9250828201905080821115613c0957613c08613a13565b5b92915050565b6000819050919050565b613c2a613c2582612eb8565b613c0f565b82525050565b60008160601b9050919050565b6000613c4882613c30565b9050919050565b6000613c5a82613c3d565b9050919050565b613c72613c6d82612f3b565b613c4f565b82525050565b6000613c848286613c19565b602082019150613c948285613c19565b602082019150613ca48284613c61565b601482019150819050949350505050565b7f4e487b7100000000000000000000000000000000000000000000000000000000600052601260045260246000fd5b6000613cef82612eb8565b9150613cfa83612eb8565b925082613d0a57613d09613cb5565b5b828206905092915050565b6000613d2082612eb8565b9150613d2b83612eb8565b9250828203905081811115613d4357613d42613a13565b5b92915050565b6000604082019050613d5e6000830185613381565b613d6b6020830184613381565b9392505050565b60008190508160005260206000209050919050565b60006020601f8301049050919050565b600082821b905092915050565b600060088302613dd47fffffffffffffffffffffffffffffffffffffffffffffffffffffffffffffffff82613d97565b613dde8683613d97565b95508019841693508086168417925050509392505050565b6000613e11613e0c613e0784612eb8565b613724565b612eb8565b9050919050565b6000819050919050565b613e2b83613df6565b613e3f613e3782613e18565b848454613da4565b825550505050565b600090565b613e54613e47565b613e5f818484613e22565b505050565b5b81811015613e8357613e78600082613e4c565b600181019050613e65565b5050565b601f821115613ec857613e9981613d72565b613ea284613d87565b81016020851015613eb1578190505b613ec5613ebd85613d87565b830182613e64565b50505b505050565b600082821c905092915050565b6000613eeb60001984600802613ecd565b1980831691505092915050565b6000613f048383613eda565b9150826002028217905092915050565b613f1d82612e06565b67ffffffffffffffff811115613f3657613f356131fa565b5b613f4082546137cd565b613f4b828285613e87565b600060209050601f831160018114613f7e5760008415613f6c578287015190505b613f768582613ef8565b865550613fde565b601f198416613f8c86613d72565b60005b82811015613fb457848901518255600182019150602085019450602081019050613f8f565b86831015613fd15784890151613fcd601f891682613eda565b8355505b6001600288020188555050505b505050505050565b600060408201905081810360008301526140008185612e5d565b905061400f6020830184613381565b9392505050565b600081905092915050565b600061402c82612e06565b6140368185614016565b9350614046818560208601612e22565b80840191505092915050565b600061405e8285614021565b915061406a8284614021565b91508190509392505050565b7f506c61796572206e6f7420696e697469616c697a656400000000000000000000600082015250565b60006140ac601683612e11565b91506140b782614076565b602082019050919050565b600060208201905081810360008301526140db8161409f565b9050919050565b7f496e73756666696369656e7420746f6b656e7320746f2070757263686173652060008201527f6974656d00000000000000000000000000000000000000000000000000000000602082015250565b600061413e602483612e11565b9150614149826140e2565b604082019050919050565b6000602082019050818103600083015261416d81614131565b9050919050565b600081519050919050565b600082825260208201905092915050565b600061419b82614174565b6141a5818561417f565b93506141b5818560208601612e22565b6141be81612e4c565b840191505092915050565b60006080820190506141de6000830187612f4d565b6141eb6020830186612f4d565b6141f86040830185613381565b818103606083015261420a8184614190565b905095945050505050565b60008151905061422481612d77565b92915050565b6000602082840312156142405761423f612d41565b5b600061424e84828501614215565b9150509291505056fea26469706673582212203cac5774b7b89139d807c07cfbf8e966aa3d0ed6327dd737d79aa2ce6e0b65ae64736f6c63430008140033",
  "linkReferences": {},
  "deployedLinkReferences": {}
}